:1000000048040020C100000021010000210100007F
:10001000210100002101000021010000000000007A
:1000200000000000000000000000000021010000AE
:10003000210100000000000021010000210100005A
:1000400021010000210100002903000091030000AC
:1000500029010000FD01000001040000ED04000082
:100060002101000021010000210100002101000008
:1000700021010000210100002101000021010000F8
:1000800021010000210100002101000021010000E8
:1000900021010000210100002101000021010000D8
:1000A00021010000210100002101000021010000C8
:1000B00021010000210100002101000021010000B8
:1000C00080B582B000AF114B7B60114B3B6007E005
:1000D0003B681A1D3A607A68111D796012681A60CF
:1000E0003A680C4B9A42F3D30B4B3B6004E03B68FD
:1000F0001A1D3A6000221A603A68084B9A42F6D3F9
:1001000000F07AF9BD4602B080BDC046E4050000AB
:100110000000002000000020000000204800002017
:1001200080B500AFFEE7C04690B585B000AF2F4B5D
:100130001B68BB602E4B1B687B602C4BBA681A6037
:100140002B4B7A681A600023FB6049E0294BFA6860
:10015000D200D3581B0C1A048023DB059A4219D114
:10016000244BFA68D200D358BA6813401B041B0C06
:1001700010D0204AFB68DB00D3185B68002B09D045
:100180001C4AFB68DB00D3185C68002000210022B9
:100190000023A047174BFA68D200D3581B0C1A044F
:1001A000154B9A4219D1134BFA68D200D3587A688A
:1001B00013401B041B0C10D00E4AFB68DB00D31845
:1001C0005B68002B09D00B4AFB68DB00D3185C6826
:1001D0000020002100220023A047FB680133FB60C0
:1001E000FB68072BB2D9BD4605B090BD204000503A
:1001F00060400050000000200000404090B585B0F5
:1002000000AF444B1B68BB60434B1B687B60434B98
:100210001B683B603F4BBA681A603F4B7A681A60B4
:100220003E4B3A681A600023FB606DE03C4BFA6875
:10023000D200D3581B0C1A048123DB059A4219D132
:10024000374BFA68D200D358BA6813401B041B0C12
:1002500010D0334AFB68DB00D3185B68002B09D051
:100260002F4AFB68DB00D3185C68002000210022C5
:100270000023A0472A4BFA68D200D3581B0C1A045B
:10028000284B9A4219D1264BFA68D200D3587A6883
:1002900013401B041B0C10D0214AFB68DB00D31851
:1002A0005B68002B09D01E4AFB68DB00D3185C6832
:1002B0000020002100220023A047194BFA68D20039
:1002C000D3581B0C1A048223DB059A4219D1144B14
:1002D000FA68D200D3583A6813401B041B0C10D0A4
:1002E0000F4AFB68DB00D3185B68002B09D00C4A6F
:1002F000FB68DB00D3185C6800200021002200238B
:10030000A047FB680133FB60FB68072B8ED9BD4615
:1003100005B090BDA0400050E0400050204100508A
:10032000000000200000C04090B583B000AF154B26
:10033000144A12688021C9010A431A6000237B60B5
:100340001AE0114B7A68D200D258104B9A4210D161
:100350000D4A7B68DB00D3185B68002B09D00A4A82
:100360007B68DB00D3185C6800200021002200239A
:10037000A0477B6801337B607B68072BE1D9BD46D2
:1003800003B090BD6040005000000020004040409D
:1003900090B583B000AF154B144A12688021090252
:1003A0000A431A6000237B601AE0114B7A68D2007E
:1003B000D258104B9A4210D10D4A7B68DB00D318FB
:1003C0005B68002B09D00A4A7B68DB00D3185C68A5
:1003D0000020002100220023A0477B6801337B60BE
:1003E0007B68072BE1D9BD4603B090BD604000504B
:1003F000000000200080404080B500AFFEE7C0460E
:1004000090B585B000AF364BBB60BB6844331A680B
:100410000F231340FB60BB684433FA681A60BB6863
:1004200050331A682F4B13407B60BB6854331A68F3
:100430002C4B13403B602C4B1B68002B3CD0FB68C3
:10044000002B07D0284B1C68FB68002000211A1CD9
:100450000023A0477B68002B02D13B68002B2BD0E8
:100460000023FB607A681023134003D0FB6801224D
:100470001343FB607A6880235B03134003D0FB685F
:1004800002221343FB603A681023134003D0FB6839
:1004900004221343FB603A6880235B03134003D0BC
:1004A000FB6808221343FB600F4B1C68FB680020AD
:1004B00001211A1C0023A047BB685033BA68503290
:1004C00011687A680A431A60BB685433BA685432B8
:1004D00011683A680A431A60BD4605B090BDC0462F
:1004E00000000440100010004000002090B585B0CE
:1004F00000AF394BBB60BB6844331A680F2313400D
:10050000FB60BB684433FA681A60BB6850331A68F2
:10051000324B13407B60BB6854331A682F4B134037
:100520003B602F4B5B68002B42D0FB68002B0AD04E
:10053000FB681B01FB602A4B5C68FB680020002104
:100540001A1C0023A0477B68002B02D13B68002BBC
:100550002ED00023FB607A681023134003D0FB6881
:1005600001221343FB607A6880235B03134003D0AE
:10057000FB6802221343FB603A681023134003D048
:10058000FB6804221343FB603A6880235B0313403B
:1005900003D0FB6808221343FB60FB681B01FB6070
:1005A0000F4B5C68FB68002001211A1C0023A04748
:1005B000BB685033BA68503211687A680A431A60CF
:1005C000BB685433BA68543211683A680A431A60F7
:1005D000BD4605B090BDC04600001440100010009C
:0405E00040000020B7
:00000001FF
