:1000000048040020C1000000250100002501000077
:1000100000000000000000000000000000000000E0
:1000200000000000000000000000000025010000AA
:100030000000000000000000250100002501000074
:100040002501000025010000250100002501000018
:10005000250100002501000065040000AD0400003A
:1000600025010000250100002501000025010000F8
:1000700025010000250100002501000025010000E8
:1000800025010000250100002501000025010000D8
:1000900025010000250100002501000025010000C8
:1000A00025010000250100002501000025010000B8
:1000B00025010000250100002501000025010000A8
:1000C00080B582B000AF124B7B60124B3B6007E003
:1000D0003B681A1D3A607A68111D796012681A60CF
:1000E0003A680D4B9A42F3D30C4B3B6004E03B68FB
:1000F0001A1D3A6000221A603A68094B9A42F6D3F8
:1001000000F090FB00F05EFBBD4602B080BDC04633
:10011000DC080000000000200C0000200C00002083
:100120004800002080B500AFFEE7C04680B582B031
:1001300000AF021CFB1D1A70064BFA1D1278111C31
:100140001F220A40012191400A1C1A60BD4602B0DC
:1001500080BDC04600E100E080B584B000AF7860AB
:100160007B681B78032B01D8B34B00E0B34BBB601B
:100170000F23FB187A6812781A700F23FB181B786C
:10018000042B06D90F23FB180F22BA181278043A51
:100190001A707B681B78002B03D07B681B78012BBF
:1001A0001AD1A74B1B78002B16D1A64BA54A9268F3
:1001B000802149030A439A60A24BA24A5269A2498C
:1001C0000A405A619F4B9F4A5269802189050A4320
:1001D0005A619B4B01221A707B681B78022B03D05B
:1001E0007B681B78032B1AD1984B1B78002B16D1F8
:1001F000944B944A9268802189030A439A60914BF8
:10020000904A5269920092085A618E4B8D4A526907
:10021000802109060A435A618C4B01221A707B68BF
:100220001B78042B03D07B681B78052B19D1884BD6
:100230001B78002B15D1834B824A92688021C90319
:100240000A439A607F4B7F4AD26930218A43DA6140
:100250007C4B7C4AD26920210A43DA617C4B012223
:100260001A707B681B78062B03D07B681B78072BE2
:1002700019D1784B1B78002B15D1724B714A9268BB
:10028000802109040A439A606E4B6E4AD269C021EC
:100290008A43DA616B4B6B4AD26980210A43DA6187
:1002A0006C4B01221A707B681B78032B0AD86A4BAF
:1002B0001B78002B10D10620FFF738FF664B012278
:1002C0001A7009E0654B1B78002B05D10720FFF75A
:1002D0002DFF624B01221A70BB689A680F23FB182E
:1002E0001B78DB00082199400B1C1A43BB689A60FD
:1002F000BB681B680F22BA1812785208D2B2D2001B
:10030000FF2191400A1CD24313407A685278111C95
:100310000F22BA1812785208D2B2D20091400A1CA9
:100320001A43BB681A60BB685B680F22BA18127860
:100330009200072191400A1CD24313407A689278B8
:10034000111C0F22BA181278920091400A1C1A430D
:10035000BB685A60BB681033191C0F23FB181A784E
:10036000131C5B009B189B00CB181A1C7B685B68F6
:100370001360BB680C33191C0F23FB181A78131C6D
:100380005B009B189B00CB181A1C7B689B68136052
:10039000BB68DA6F0F23FB181B78012199400B1CF7
:1003A0001A43BB68DA677B681B7B012B02D0022BE8
:1003B0000ED01AE0A023DB05A022D205916B7A684B
:1003C0001278083201209040021C0A439A630CE024
:1003D000A023DB05A022D205116C7A681278101CCC
:1003E000012282400A431A64C0467B681B69002BC5
:1003F00012D0BB681A6C0F23FB181B78012199409F
:100400000B1C1A43BB681A647B681B781A1C7B6838
:100410001969134B9200D150BB689A680F23FB18DF
:100420001B78DB00012199400B1C1A43BB689A60C2
:10043000BD4604B080BDC04600000440000014402A
:100440000E00002000020050FFFFFFCF0F00002031
:1004500010000020110000200C0000200D000020E2
:100460001400002080B582B000AF00237B6013E051
:100470000C4B01217A6891400A1C5A640A4B7A6835
:100480009200D358002B04D0074B7A689200D358BF
:1004900098477B6801337B607B68032BE8DDBD46B2
:1004A00002B080BD000004401400002080B582B07E
:1004B00000AF04237B6014E00D4B7A68043A0121FD
:1004C00091400A1C5A640B4B7A689200D358002B57
:1004D00004D0084B7A689200D35898477B68013360
:1004E0007B607B68072BE7DDBD4602B080BDC04660
:1004F0000000144014000020B0B582B000AF021C10
:100500003960FB1D1A70FB1D1B787F2B2FD92D4CDA
:10051000FB1D1B781A1C0F231340083B9908294A1E
:10052000FB1D1B78181C0F230340083B9B08063358
:100530009B00D3185B68FA1D1278101C032202403E
:10054000D200101CFF228240D2431A403B689B011C
:10055000FF200340F81D0078051C03202840C00040
:1005600083401A438B1D9B00E3185A6026E0164C0B
:10057000FB1D1B785BB29B081349FA1D127852B21F
:100580009208C03292005258F91D0978081C0321C4
:100590000140C900081CFF218140C94311403A684D
:1005A0009201FF200240F81D0078051C032028401E
:1005B000C00082400A43C0339B001A51BD4602B0BE
:1005C000B0BDC04600ED00E000E100E080B584B0C1
:1005D00000AF7860094BFB6005E0FB685A1EFA60CB
:1005E000002B00DC06E0064BDB687A681A407B686B
:1005F0009A42F2D1BD4604B080BDC04690D00300FF
:100600000002005080B500AFA023DA0580235B0014
:100610005921D150A023DA0580235B001621D15047
:10062000A023DA0580235B008821D150A023DA05BE
:1006300080235B00D358002BE6D0BD4680BDC0466A
:1006400080B500AFA023DA0580235B000021D150E4
:10065000BD4680BD80B500AFFFF7D4FF3F4B3F4A9A
:10066000126804210A431A601020FFF7AFFF3B4BCA
:1006700007221A61394B394A126A802149020A431A
:100680001A62364B354A126805210A431A60334B09
:10069000334A1A621520FFF799FF304B1A221A616C
:1006A000FFF7CEFF2F4B304A1A60304B2E4A1A60AC
:1006B0002F4B32221A602F4B2E4A126803218A4395
:1006C00001210A431A602B4B2A4A12680C218A43E3
:1006D00004210A431A60274B264A126830218A43B4
:1006E00010210A431A60234B224A1268C0218A4310
:1006F00040210A431A601F4B1E4A12681E490A40D5
:10070000802149000A431A601A4B1A4A12681B4991
:100710000A408021C9000A431A60194B184A12681E
:1007200030218A431A60164B154A1268C0218A4349
:100730001A600A200021FFF7DFFE01235B42181C2C
:100740000121FFF7D9FE04200221FFF7D5FE062084
:100750000321FFF7D1FEBD4680BDC0460002005018
:10076000174200000800002080F0FA02000000207C
:1007700004000020C0400050FFFCFFFFFFF3FFFF1C
:100780000040005080B500AF0C4B02221A700B4B9A
:1007900009225A70094B04229A70084BF422FF3246
:1007A0005A60064B064A9A60044B01221A73034BA7
:1007B000181CFFF7D1FCBD4680BDC04634000020A8
:1007C000E703000080B500AFFFF744FFFFF7DAFF53
:1007D000FEE7C04680B500AFA023DA0580235B00AA
:1007E0005921D150A023DA0580235B001621D15076
:1007F000A023DA0580235B008821D150A023DA05ED
:1008000080235B00D358002BE6D0BD4680BDC04698
:1008100080B500AFA023DA0580235B000021D15012
:10082000BD4680BD80B584B000AF264B00221A6063
:100830000B23FB1800221A70234B1B69072213405D
:100840007B607B68002B15D11F4B204A1A62204B1E
:10085000FB6005E0FB685A1EFA60002B00DC04E038
:10086000194BDB6804221340F4D00B23FB18012240
:100870001A7017E07B68072B14D1134B154A1A62C4
:10088000154BFB6005E0FB685A1EFA60002B00DC8C
:1008900004E00D4BDB6804221340F4D00B23FB185B
:1008A00001221A700B23FB181B785BB2002B06D0B9
:1008B000FFF790FF044B02221A61FFF7A9FFBD4624
:1008C00004B080BD08000020000200501742000064
:0C08D000E02E00003956080066560000BB
:0C08DC0080F0FA023200000080F0FA0206
:00000001FF
