:1000000010040020C10000002501000025010000AF
:1000100000000000000000000000000000000000E0
:1000200000000000000000000000000025010000AA
:100030000000000000000000250100002501000074
:100040002501000025010000250100002501000018
:100050002501000025010000250100002501000008
:1000600025010000250100002501000025010000F8
:1000700025010000250100002501000025010000E8
:1000800025010000250100002501000025010000D8
:1000900025010000250100002501000025010000C8
:1000A00025010000250100002501000025010000B8
:1000B00025010000250100002501000025010000A8
:1000C00080B582B000AF124B7B60124B3B6007E003
:1000D0003B681A1D3A607A68111D796012681A60CF
:1000E0003A680D4B9A42F3D30C4B3B6004E03B68FB
:1000F0001A1D3A6000221A603A68094B9A42F6D3F8
:1001000000F082F900F030F8BD4602B080BDC04674
:10011000D0040000000000200C0000200C00002093
:100120000C00002080B500AFFEE7C04680B582B06D
:1001300000AF78600A4B0B4A126879684A435A60EC
:10014000074B00229A60064B05221A60C046044BFA
:100150001A6880235B021340F9D0BD4602B080BD0F
:1001600010E000E00400002080B500AF00F0E8F8E7
:1001700000F0D0F8044B181CFFF7D8FF034B181CF5
:1001800000F0FEF8FEE7C04680841E00C0040000B8
:1001900080B582B000AF78600A4B0B4A126879686C
:1001A0004A435A60074B00229A60064B05221A60A8
:1001B000C046044B1A6880235B021340F9D0BD4649
:1001C00002B080BD10E000E00400002080B500AF68
:1001D000094B00221A606420FFF7DAFF064B012268
:1001E0001A606420FFF7D4FF034B00221A606420DA
:1001F000FFF7CEFFBD4680BD7042005080B500AF16
:10020000094B00221A60094B00221A60084B002299
:100210001A60084B00221A60074B00221A60074B35
:1002200000221A60BD4680BD7442005070420050EA
:100230006C420050684200506442005060420050DE
:1002400080B582B000AF0A1CFB1D011C1970BB1DDC
:100250001A70FFF7D3FF2A4BBA1D1278D209D2B217
:10026000111C01220A401A60264BBA1D127892090D
:10027000D2B2111C01220A401A60234BBA1D127817
:100280005209D2B2111C01220A401A601F4BBA1D3A
:1002900012781209D2B2111C01220A401A601C4BBA
:1002A000FA1D12781A60FFF791FF154BBA1D1278EC
:1002B000D208D2B2111C01220A401A60114BBA1D99
:1002C00012789208D2B2111C01220A401A600E4B19
:1002D000BA1D12785208D2B2111C01220A401A60CB
:1002E0000A4BBA1D117801220A401A60084BFA1D08
:1002F00012781A60FFF76AFFBD4602B080BDC046A3
:100300006C4200506842005064420050604200500D
:100310007442005080B500AF00200121FFF790FF2C
:10032000FA23DB00181CFFF733FF00200221FFF740
:1003300087FFFA23DB00181CFFF72AFFBD4680BDAC
:1003400080B500AFFFF75AFF0B4B181CFFF720FFDB
:100350000A4B01221A60FFF739FF00202821FFF71E
:100360006FFF00200E21FFF76BFF00200621FFF733
:1003700067FFBD4680BDC0461027000064420050A4
:1003800080B584B000AF78600023FB600AE0FB68B2
:100390007A68D3181B780120191CFFF751FFFB68FE
:1003A0000133FB60FB687A68D3181B78002BEED111
:1003B000BD4604B080BDC04680B500AFA023DA05BD
:1003C00080235B005921D150A023DA0580235B00F4
:1003D0001621D150A023DA0580235B008821D1505B
:1003E000A023DA0580235B00D358002BE6D0BD465E
:1003F00080BDC04680B500AFA023DA0580235B0036
:100400000021D150BD4680BD80B584B000AF264BE1
:1004100000221A603B1C0B3300221A70234B1A690E
:10042000072313407B607B68002B15D11F4B204AAC
:100430001A62204BFB6005E0FB685A1EFA60002B35
:1004400000DC04E0194BDA6804231340F4D03B1CB1
:100450000B3301221A7017E07B68072B14D1134B62
:10046000154A1A62154BFB6005E0FB685A1EFA60DC
:10047000002B00DC04E00D4BDA6804231340F4D0B9
:100480003B1C0B3301221A703B1C0B331B785BB2F5
:10049000002B06D0FFF790FF044B02221A61FFF7F2
:1004A000A9FFBD4604B080BD080000200002005036
:1004B00017420000E02E0000395608006656000082
:1004C00048656C6C6F20576F726C642100000000EF
:0C04D00080F0FA023200000080F0FA0216
:00000001FF
