:1000000010040020C10000002501000025010000AF
:1000100000000000000000000000000000000000E0
:1000200000000000000000000000000025010000AA
:100030000000000000000000250100002501000074
:100040002501000025010000250100002501000018
:100050002501000025010000250100002501000008
:1000600025010000250100002501000025010000F8
:1000700025010000250100002501000025010000E8
:1000800025010000250100002501000025010000D8
:1000900025010000250100002501000025010000C8
:1000A00025010000250100002501000025010000B8
:1000B00025010000250100002501000025010000A8
:1000C00080B582B000AF124B7B60124B3B6007E003
:1000D0003B681A1D3A607A68111D796012681A60CF
:1000E0003A680D4B9A42F3D30C4B3B6004E03B68FB
:1000F0001A1D3A6000221A603A68094B9A42F6D3F8
:1001000000F0ECF800F0A0F8BD4602B080BDC0469B
:1001100094030000000000200C0000200C000020D0
:100120000C00002080B500AFFEE7C04680B584B06B
:1001300000AF7860094BFB6005E0FB685A1EFA606F
:10014000002B00DC06E0064BDB687A681A407B680F
:100150009A42F2D1BD4604B080BDC04690D00300A3
:100160000002005080B582B000AF78600A4A0B4BA5
:100170001B6879684B435360074B00229A60064B1B
:1001800005221A60C046044B1A6880235B021340A4
:10019000F9D0BD4602B080BD10E000E004000020B0
:1001A00080B500AFA023DA0580235B005921D15030
:1001B000A023DA0580235B001621D150A023DA05A5
:1001C00080235B008821D150A023DA0580235B00C7
:1001D000D358002BE6D0BD4680BDC04680B500AFE9
:1001E000A023DA0580235B000021D150BD4680BDED
:1001F00080B500AFFFF7D4FF0D4B0D4A1268012107
:100200000A431A600A4B0B4A1A620520FFF78EFF59
:10021000074B1A221A61084B084A1A60084B074A12
:100220001A60084B32221A60FFF7D8FFBD4680BD26
:1002300000020050174200000800002080F0FA027F
:10024000000000200400002080B500AFFFF7D0FFC1
:100250000B4B0B4A126803218A4301210A431A609F
:10026000084B00221A60084B181CFFF77BFF054B58
:1002700001221A60044B181CFFF774FFF0E7C04618
:10028000C0400050604200508813000080B500AFAD
:10029000A023DA0580235B005921D150A023DA0581
:1002A00080235B001621D150A023DA0580235B0058
:1002B0008821D150A023DA0580235B00D358002B7E
:1002C000E6D0BD4680BDC04680B500AFA023DA05AC
:1002D00080235B000021D150BD4680BD80B584B035
:1002E00000AF264B00221A600B23FB1800221A7065
:1002F000234B1B69072213407B607B68002B15D1C1
:100300001F4B204A1A62204BFB6005E0FB685A1E17
:10031000FA60002B00DC04E0194BDB680422134078
:10032000F4D00B23FB1801221A7017E07B68072B0F
:1003300014D1134B154A1A62154BFB6005E0FB689C
:100340005A1EFA60002B00DC04E00D4BDB6804222F
:100350001340F4D00B23FB1801221A700B23FB1857
:100360001B785BB2002B06D0FFF790FF044B0222F4
:100370001A61FFF7A9FFBD4604B080BD0800002048
:100380000002005017420000E02E0000395608001D
:0403900066560000AD
:0C03940080F0FA023200000080F0FA0253
:00000001FF
