:1000000010040020C10000002501000025010000AF
:1000100000000000000000000000000000000000E0
:1000200000000000000000000000000025010000AA
:100030000000000000000000250100002501000074
:100040002501000025010000250100002501000018
:100050002501000025010000250100002501000008
:1000600025010000250100002501000025010000F8
:1000700025010000250100002501000025010000E8
:1000800025010000250100002501000025010000D8
:1000900025010000250100002501000025010000C8
:1000A00025010000250100002501000025010000B8
:1000B00025010000250100002501000025010000A8
:1000C00080B582B000AF124B7B60124B3B6007E003
:1000D0003B681A1D3A607A68111D796012681A60CF
:1000E0003A680D4B9A42F3D30C4B3B6004E03B68FB
:1000F0001A1D3A6000221A603A68094B9A42F6D3F8
:1001000000F00CFB00F0E4F8BD4602B080BDC04634
:1001100078080000000000200C0000200C000020E7
:100120000C00002080B500AFFEE7C04680B584B06B
:1001300000AF7860094BFB6005E0FB685A1EFA606F
:10014000002B00DC06E0064BDB687A681A407B680F
:100150009A42F2D1BD4604B080BDC04690D00300A3
:100160000002005080B500AFA023DA0580235B00B9
:100170005921D150A023DA0580235B001621D150EC
:10018000A023DA0580235B008821D150A023DA0563
:1001900080235B00D358002BE6D0BD4680BDC0460F
:1001A00080B500AFA023DA0580235B000021D15089
:1001B000BD4680BD80B500AFFFF7D4FF3B4B3B4A47
:1001C000126804210A431A601020FFF7AFFF374B73
:1001D00007221A61354B354A126A802149020A43C7
:1001E0001A62324B314A126805210A431A602F4BBA
:1001F0002F4A1A621520FFF799FF2C4B1A221A6119
:100200002A4B802252039A60284B802292055A6121
:10021000A023DB0580225203DA60A023DB05002245
:10022000DA60244B244A1A60244B234A1A60244B78
:1002300032221A60234B234A126803218A43012188
:100240000A431A601F4B1F4A12680C218A4304217B
:100250000A431A601B4B1B4A126830218A43102143
:100260000A431A60174B174A1268C0218A4340217B
:100270000A431A60134B134A1168134A0A4080213B
:1002800049000A431A600F4B0E4A11680F4A0A4090
:100290008021C9000A431A60A023DB058022520096
:1002A0009A63FFF77DFFBD4680BDC0460002005047
:1002B000174200000800002080F0FA020000002031
:1002C00004000020C0400050FFFCFFFFFFF3FFFFD1
:1002D00080B500AFFFF76EFF00F032F8164B181C28
:1002E00000F03EF8154B154A926808210A439A60BF
:1002F000124B124A1268FF218A4301210A431A60F5
:100300000E4B0E4A526807218A4304210A435A6061
:100310000A4B7D221A61094BFA22DA60074B074A21
:10032000D26F01210A43DA67044B044A9268012123
:100330000A439A60FEE7C046102700000000044010
:1003400080B500AF00F0B0F80B20002100F094F968
:10035000024B181C00F0F4F8BD4680BD7408000084
:1003600080B582B000AF78607B68181C092100223C
:10037000052300F005F9BD4602B080BD80B582B00E
:1003800000AF78600A4B0B4A126879684A435A609A
:10039000074B00229A60064B05221A60C046044BA8
:1003A0001A6880235B021340F9D0BD4602B080BDBD
:1003B00010E000E00400002080B582B000AF0A1C0D
:1003C000FB1D011C1970BB1D1A70314BFA1D1278F0
:1003D0001A60304B01221A602F4BBA1D1278D209D5
:1003E000D2B2111C01220A401A602C4BBA1D12789D
:1003F0009209D2B2111C01220A401A60284BBA1D80
:1004000012785209D2B2111C01220A401A60254BFF
:10041000BA1D12781209D2B2111C01220A401A60C8
:100420001C4B00221A60FA23DB00181CFFF7A6FF02
:10043000184B01221A60184BBA1D1278D208D2B29A
:10044000111C01220A401A60144BBA1D127892083E
:10045000D2B2111C01220A401A60114BBA1D127847
:100460005208D2B2111C01220A401A600D4BBA1D6B
:10047000117801220A401A60FA23DB00181CFFF7EA
:100480007DFF044B00221A60BD4602B080BDC0460D
:1004900074420050704200506C420050684200505C
:1004A000644200506042005080B500AF1D4B0022F6
:1004B0001A601D4B00221A601C4B00221A601C4B54
:1004C00000221A601B4B00221A601B4B00221A608C
:1004D0001A4B181CFFF752FF00202821FFF76CFF72
:1004E000FA23DB00181CFFF749FF00200C21FFF75F
:1004F00063FFFA23DB00181CFFF740FF00200121F7
:10050000FFF75AFFFA23DB00181CFFF737FF002024
:100510000621FFF751FFFA23DB00181CFFF72EFF1F
:10052000BD4680BD704200506042005064420050A1
:10053000684200506C42005074420050204E00004F
:1005400080B584B000AF78600023FB600FE0FA2331
:10055000DB00181CFFF712FFFB687A68D3181B78C2
:100560000120191CFFF728FFFB680133FB60FB68C3
:100570007A68D3181B78002BE9D1BD4604B080BD42
:1005800080B584B000AF7860081C111C1A1CFB1CDD
:100590001870BB1C19707B1C1A703B1C0F33FA1CA3
:1005A00012781A707B68002B12D13B1C0F331A781B
:1005B000BB1C1B78101C191C00F05EF8FA23DB0032
:1005C000181CFFF7DBFE01203021FFF7F5FE50E09D
:1005D00028E03B1C0F331A78BB1C1B78101C191C1D
:1005E00000F04AF8FA23DB00181CFFF7C7FE7B680F
:1005F000181C0A2100F032F90B1CDBB23033DBB2DD
:100600000120191CFFF7D8FE7B68181C0A2100F096
:10061000E1F8031C7B603B1C0F331A783B1C0F3343
:10062000013A1A707B68002BD3D118E03B1C0F33C2
:100630001A78BB1C1B78101C191C00F01DF8FA233B
:10064000DB00181CFFF79AFE01202021FFF7B4FE03
:100650003B1C0F331A783B1C0F33013A1A70FB1CFA
:100660001A783B1C0F331B78D21A7B1C1B789A42DA
:10067000DCDBBD4604B080BD80B584B000AF0A1C91
:10068000FB1D011C1970BB1D1A703B1C0F3300228F
:100690001A70BB1D1B789B01D9B23B1C0F33FA1D8E
:1006A00012788A181A70FA23DB00181CFFF766FE0E
:1006B0003B1C0F331B78802252421343DBB20020D5
:1006C000191CFFF779FEBD4604B080BD80B500AFB0
:1006D000A023DA0580235B005921D150A023DA053D
:1006E00080235B001621D150A023DA0580235B0014
:1006F0008821D150A023DA0580235B00D358002B3A
:10070000E6D0BD4680BDC04680B500AFA023DA0567
:1007100080235B000021D150BD4680BD80B584B0F0
:1007200000AF264B00221A603B1C0B3300221A70CC
:10073000234B1A69072313407B607B68002B15D17C
:100740001F4B204A1A62204BFB6005E0FB685A1ED3
:10075000FA60002B00DC04E0194BDA680423134034
:10076000F4D03B1C0B3301221A7017E07B68072B77
:1007700014D1134B154A1A62154BFB6005E0FB6858
:100780005A1EFA60002B00DC04E00D4BDA680423EB
:100790001340F4D03B1C0B3301221A703B1C0B336B
:1007A0001B785BB2002B06D0FFF790FF044B0222B0
:1007B0001A61FFF7A9FFBD4604B080BD0800002004
:1007C0000002005017420000E02E000039560800D9
:1007D00066560000002934D00123002210B488425C
:1007E0002CD301242407A14204D2814202D2090160
:1007F0001B01F8E7E400A14204D2814202D2490081
:100800005B00F8E7884201D3401A1A434C08A04223
:1008100002D3001B5C0822438C08A04202D3001BB9
:100820009C082243CC08A04202D3001BDC082243D0
:10083000002803D01B0901D00909E3E7101C10BCF4
:100840007047002801D00020C04307B4024802A12D
:100850004018029003BDC046190000000029F0D0E6
:1008600003B5FFF7B9FF0EBC4243891A1847C046CB
:080870007047C04672706D0074
:0C08780080F0FA023200000080F0FA026A
:00000001FF
