:1000000070040020C100000025010000250100004F
:1000100000000000000000000000000000000000E0
:1000200000000000000000000000000025010000AA
:100030000000000000000000250100002501000074
:100040002501000025010000250100002501000018
:1000500001070000250100008906000025010000BD
:100060002501000025010000850500002501000094
:1000700025010000250100002501000025010000E8
:1000800025010000250100002501000025010000D8
:1000900025010000250100002501000025010000C8
:1000A00025010000250100002501000025010000B8
:1000B00025010000250100002501000025010000A8
:1000C00080B582B000AF124B7B60124B3B6007E003
:1000D0003B681A1D3A607A68111D796012681A60CF
:1000E0003A680D4B9A42F3D30C4B3B6004E03B68FB
:1000F0001A1D3A6000221A603A68094B9A42F6D3F8
:1001000000F0D8FE00F08CFBBD4602B080BDC046BA
:10011000C0100000000000200C0000200C00002097
:100120007000002080B500AFFEE7C04680B582B009
:1001300000AF021CFB1D1A70064BFA1D1278111C31
:100140001F220A40012191400A1C1A60BD4602B0DC
:1001500080BDC04600E100E0B0B582B000AF021C37
:100160003960FB1D1A70FB1D1B787F2B2FD92D4C7E
:10017000FB1D1B781A1C0F231340083B9908294AC2
:10018000FB1D1B78181C0F230340083B9B080633FC
:100190009B00D3185B68FA1D1278101C03220240E2
:1001A000D200101CFF228240D2431A403B689B01C0
:1001B000FF200340F81D0078051C03202840C000E4
:1001C00083401A438B1D9B00E3185A6026E0164CAF
:1001D000FB1D1B785BB29B081349FA1D127852B2C3
:1001E0009208C03292005258F91D0978081C032168
:1001F0000140C900081CFF218140C94311403A68F1
:100200009201FF200240F81D0078051C03202840C1
:10021000C00082400A43C0339B001A51BD4602B061
:10022000B0BDC04600ED00E000E100E080B584B064
:1002300000AF7860094BFB6005E0FB685A1EFA606E
:10024000002B00DC06E0064BDB687A681A407B680E
:100250009A42F2D1BD4604B080BDC04690D00300A2
:100260000002005080B582B000AF78600A4A0B4BA4
:100270001B6879684B435360074B00229A60064B1A
:1002800005221A60C046044B1A6880235B021340A3
:10029000F9D0BD4602B080BD10E000E004000020AF
:1002A00080B500AFA023DA0580235B005921D1502F
:1002B000A023DA0580235B001621D150A023DA05A4
:1002C00080235B008821D150A023DA0580235B00C6
:1002D000D358002BE6D0BD4680BDC04680B500AFE8
:1002E000A023DA0580235B000021D150BD4680BDEC
:1002F00080B584B000AFF860B9607A60FB689A6935
:100300007B68190EBB6899400B1C1A43FB689A6105
:10031000FB68DA697B681B02190ABB6899400B1CF1
:100320001A43FB68DA61BD4604B080BD80B500AFFA
:10033000FFF7B6FF584B584A126804210A431A6067
:100340001020FFF773FF544B07221A61524B524A99
:10035000126A802149020A431A624F4B4E4A1268C0
:1003600005210A431A604C4B4C4A1A621520FFF7CC
:100370005DFF494B1A221A61474B494A9A60464B26
:10038000484A5A61A023DB0580225203DA60A02389
:10039000DB050022DA60444B444A1A60444B434A6E
:1003A0001A60444B32221A60434B434A12680321BD
:1003B0008A4301210A431A603F4B3F4A12680C21CD
:1003C0008A4304210A431A603B4B3B4A126830219E
:1003D0008A4310210A431A60374B374A1268C021FA
:1003E0008A4340210A431A60334B334A1268334927
:1003F0000A40802149000A431A602F4B2E4A126896
:100400002F490A408021C9000A431A602D4B2D4A0A
:10041000126830218A431A602A4B2A4A1268C02186
:100420008A431A60274A80235B02101C02211A1C8F
:10043000FFF75EFF234A80235B02101C03211A1C76
:10044000FFF756FF0A200021FFF786FE01235B42DB
:10045000181C0121FFF780FE04200221FFF77CFE1B
:1004600006200321FFF778FE0420FFF75FFE0A2035
:10047000FFF75CFE0620FFF759FEA023DB05A02254
:10048000D2009A63A023DB05802252001A64FFF792
:1004900025FFBD4680BDC046000200501742000047
:1004A00010003000000002A00800002080F0FA02D6
:1004B0000000002004000020C0400050FFFCFFFFAF
:1004C000FFF3FFFF0040005080B582B000AF0D4B3E
:1004D00000221A700C4B00221A600C4B00221A608A
:1004E00000237B6007E00A4B7A6892000021D1501C
:1004F0007B6801337B607B680C2BF4DDBD4602B06A
:1005000080BDC046200000201C00002024000020E8
:100510002800002080B582B000AF7860154B1A68C3
:100520007B68D218134B1A60134B1A68134B920056
:100530007968D150104B1B680C2B03D00E4B1B68F5
:100540005A1C00E000220C4B1A600B4B1A680B4B34
:100550009200D258074B1B689A1A064B1A60064B3A
:100560001B68002B02D1064B01221A70BD4602B057
:1005700080BDC046240000201C0000202800002070
:100580002000002080B582B000AF394B9B6801226B
:10059000134021D0374B1B68374A93420BD8374B57
:1005A0001B78DBB2002B06D1324B1B688022520431
:1005B0009A18304B1A60314B00221A702C4B0122D2
:1005C0009A602C4B1A6880239B049A4204D9FFF747
:1005D0007BFF284B00221A60254B9B6901221340A8
:1005E00043D0234B1B691B021B0A7B60244B1A68F8
:1005F0007B689A420DD91F4B1B68002B09D11D4BFC
:100600001B68802252049A181A4B1A601B4B012255
:100610001A70184B1A681B4B1A60164B00221A608E
:10062000184B1A687B68D218164B1A60144B1A685C
:10063000144B1B689A1A134B1A60114B7A681A6094
:10064000104B1A6880235B049A4206D90D4B1B6835
:10065000FF2212069A180B4B1A600A4B1B68181CD3
:10066000FFF758FF024B01229A61BD4602B080BDE0
:100670000000114014000020FEFFFF7E5C000020FF
:10068000100000201800002080B582B000AF164B8B
:1006900008225A64154B1B78DBB2002B0CD0144B8C
:1006A0001B68002B08D0124B1B681248191C00F065
:1006B0005DFC031C7B6001E000237B607B68181CF1
:1006C00000F09AF90C4B1B78002B09D00B4B1B68E0
:1006D0003B60094B00221A703B68181C00F0A8F917
:1006E000BD4602B080BDC04600000440200000208E
:1006F00024000020005ED0B26000002064000020D2
:1007000080B500AF6420FFF7ADFD194B1B68DBB26D
:10071000DB18DAB2174B1B68DBB21343DAB2164BA5
:100720001B789B00DBB21343DAB2134B1A70134BE6
:1007300004221A62114B08221A620F4B1B781A1CF2
:100740000F2313400E4AD35C5BB25A1C02D0012B1C
:1007500007D00BE00B4B1B6801225242101C98473C
:1007600004E0084B1B6801209847C046BD4680BD89
:100770000C420050084200500C0000200040005085
:10078000A01000006800002080B582B000AF786043
:100790000B4B7A681A600B4B1B68DBB2DB18DAB2C2
:1007A000094B1B68DBB21343DAB2084B1B789B0082
:1007B000DBB21343DAB2054B1A70BD4602B080BDFE
:1007C000680000200C420050084200500C0000203D
:1007D00080B584B000AF021CFB1D1A700D4B1B6866
:1007E000FB60FB1D1B785BB2FA68D318FB60FB68EB
:1007F000002B0BDBFB68F92B08DC074BFA681A614E
:10080000FA68044B1A60054B01221A70BD4604B009
:1008100080BDC0466400002000000440600000204D
:1008200080B500AFFFF782FD00F0BCF8504B00220E
:100830001A60FFF749FE4F4B181CFFF7A5FF4E4B00
:100840004D4A926808210A439A604B4B4A4A126803
:10085000FF218A4301210A431A60474B464A5268E6
:1008600007218A4304210A435A60434B00221A613C
:10087000424B00221A60424B01221A703E4BF92271
:10088000DA603D4B3C4AD26F01210A43DA673A4BAA
:10089000394A926801210A439A60374B364A926876
:1008A000802109050A439A60334B334A1268FF21BD
:1008B00009020A431A60304B2F4A526831490A40F4
:1008C000C02189010A435A602B4B2F4A5A632A4B95
:1008D0002E4A1A63284B284A126C08210A431A64CC
:1008E000254B254A9268802149040A439A60224B8D
:1008F000214A9268802109030A439A601E4B1E4ACE
:10090000126823490A40902109010A431A601A4BD0
:10091000194A52681F490A408021C9000A435A6097
:10092000154BF422FF329A62134B1B4A5A62124B48
:10093000114AD26F04210A43DA670F4B0E4A9268BC
:10094000802149020A439A60144B8022D2041A6023
:10095000124B00225A60114B114A1A600F4B2A2287
:100960005A610E4B01229A610C4B01229A60FEE7FC
:1009700014000020D10700000000044064000020A3
:1009800060000020FF8FFFFFE2040000C4090000A8
:10099000FF00FFFFFFF8FFFFE7030000000011402A
:1009A0000000016880B500AF00F03AF90E4B00225C
:1009B0001A700B20002100F02FFA0C4B181C00F0CD
:1009C00051F90020012100F027FA094B181C00F012
:1009D00049F90A20012100F01FFA064B181C00F00B
:1009E00041F9BD4680BDC0466C000020B01000003B
:1009F000B4100000BC10000080B584B002AF786075
:100A00000A4B1B78002B0ED1084B01221A707A6812
:100A100000230093101C09210022082300F03EF956
:100A2000024B00221A70BD4602B080BD6C0000204F
:100A300080B586B002AF78607B6801339B00FB60B5
:100A40000A4B1B78002B0ED1084B01221A70FA6852
:100A500001230093101C09210122052300F01EF937
:100A6000024B00221A70BD4604B080BD6C0000200D
:100A700080B582B000AF78600A4A0B4B1B6879687A
:100A80004B435360074B00229A60064B05221A60C5
:100A9000C046044B1A6880235B021340F9D0BD4660
:100AA00002B080BD10E000E00400002080B500AF7F
:100AB000094B00221A606420FFF7DAFF064B01227F
:100AC0001A606420FFF7D4FF034B00221A606420F1
:100AD000FFF7CEFFBD4680BD7042005080B500AF2D
:100AE000094B00221A60094B00221A60084B0022B1
:100AF0001A60084B00221A60074B00221A60074B4D
:100B000000221A60BD4680BD744200507042005001
:100B10006C420050684200506442005060420050F5
:100B200080B582B000AF021CFB1D1A70BB1D0A1CF1
:100B30001A70FFF7D3FF2A4BBA1D1278D209D2B22E
:100B4000111C01220A401A60264BBA1D1278920924
:100B5000D2B2111C01220A401A60234BBA1D12782E
:100B60005209D2B2111C01220A401A601F4BBA1D51
:100B700012781209D2B2111C01220A401A601C4BD1
:100B8000FA1D12781A60FFF791FF154BBA1D127803
:100B9000D208D2B2111C01220A401A60114BBA1DB0
:100BA00012789208D2B2111C01220A401A600E4B30
:100BB000BA1D12785208D2B2111C01220A401A60E2
:100BC0000A4BBA1D127801210A401A60084BFA1D1F
:100BD00012781A60FFF76AFFBD4602B080BDC046BA
:100BE0006C42005068420050644200506042005025
:100BF0007442005080B500AF00200121FFF790FF44
:100C0000FA23DB00181CFFF733FF00200221FFF757
:100C100087FFFA23DB00181CFFF72AFFBD4680BDC3
:100C200080B500AFFFF75AFF0C4B181CFFF720FFF1
:100C30000B4B01221A60FFF739FF00202821FFF734
:100C40006FFF00200C21FFF76BFF00200621FFF74C
:100C500067FFFFF7CFFFBD4680BDC046204E0000B6
:100C60006442005080B584B000AF78600023FB6020
:100C70000AE0FB687A68D3181B780120191CFFF77B
:100C80004FFFFB680133FB60FB687A68D3181B7861
:100C9000002BEED1BD4604B080BDC04690B585B0F6
:100CA00000AF78600C1C101C191CFB1C221C1A7055
:100CB000BB1C021C1A707B1C0A1C1A700F23FB1829
:100CC000FA1C12781A700F23FB181A78BB1C1B78B9
:100CD000101C191C00F0A0F800200421FFF720FFD1
:100CE0007B68002B0BD101203021FFF719FF0F2368
:100CF000FB181A780F23FB18013A1A706FE05AE0BC
:100D0000FB1C1A780F23FB181B78D21A2023FB1820
:100D10001B789A420FD12023FB181B78002B0AD096
:100D200001202E21FFF7FCFE0F23FB181A780F235A
:100D3000FB18013A1A707B68002B14D07B68181CD2
:100D40000A2100F099F90B1CDBB23033DBB2012031
:100D5000191CFFF7E5FE7B68181C0A2100F006F954
:100D6000031C7B6003E001203021FFF7D9FEFB1C50
:100D70001A780F23FB181B78D21A7B1C1B789A4217
:100D800012DD0F23FB18FA1C12781A700F23FB18C0
:100D90001A78BB1C1B78101C191C00F03DF80120B0
:100DA0002021FFF7BDFE1AE00F23FB181A780F234E
:100DB000FB18013A1A707B68002BA1D12023FB1885
:100DC0001B78002B0BD00F23FB181A782023FB185D
:100DD0001B78D3185A1CFB1C1B789A4290DC0AE043
:100DE00001202021FFF79CFE0F23FB181A780F2308
:100DF000FB18013A1A70FB1C1A780F23FB181B789A
:100E0000D21A7B1C1B789A42EADD00200621FFF7EC
:100E100087FEBD4605B090BD80B584B000AF021C12
:100E2000FB1D1A70BB1D0A1C1A700F23FB18002231
:100E30001A70BB1D1B789B01D9B20F23FB18FA1D3A
:100E400012788A181A700F23FB181B7880225242DE
:100E50001343DBB20020191CFFF762FEBD4604B04D
:100E600080BDC04680B500AFA023DA0580235B00BB
:100E70005921D150A023DA0580235B001621D150DF
:100E8000A023DA0580235B008821D150A023DA0556
:100E900080235B00D358002BE6D0BD4680BDC04602
:100EA00080B500AFA023DA0580235B000021D1507C
:100EB000BD4680BD80B584B000AF264B00221A60CD
:100EC0003B1C0B3300221A70234B1A690723134073
:100ED0007B607B68002B15D11F4B204A1A62204B88
:100EE000FB6005E0FB685A1EFA60002B00DC04E0A2
:100EF000194BDA6804231340F4D03B1C0B33012256
:100F00001A7017E07B68072B14D1134B154A1A622D
:100F1000154BFB6005E0FB685A1EFA60002B00DCF5
:100F200004E00D4BDA6804231340F4D03B1C0B3370
:100F300001221A703B1C0B331B785BB2002B06D0CE
:100F4000FFF790FF044B02221A61FFF7A9FFBD468D
:100F500004B080BD080000200002005017420000CD
:100F6000E02E0000395608006656000000224308B3
:100F70008B4274D303098B425FD3030A8B4244D361
:100F8000030B8B4228D3030C8B420DD3FF220902A3
:100F900012BA030C8B4202D31212090265D0030B62
:100FA0008B4219D300E0090AC30B8B4201D3CB0358
:100FB000C01A5241830B8B4201D38B03C01A52419A
:100FC000430B8B4201D34B03C01A5241030B8B429C
:100FD00001D30B03C01A5241C30A8B4201D3CB0287
:100FE000C01A5241830A8B4201D38B02C01A52416C
:100FF000430A8B4201D34B02C01A5241030A8B426F
:1010000001D30B02C01A5241CDD2C3098B4201D386
:10101000CB01C01A524183098B4201D38B01C01A04
:10102000524143098B4201D34B01C01A524103097B
:101030008B4201D30B01C01A5241C3088B4201D32A
:10104000CB00C01A524183088B4201D38B00C01AD7
:10105000524143088B4201D34B00C01A5241411AFE
:1010600000D20146524110467047FFE701B500200B
:1010700000F00CF802BDC0460029F7D003B5FFF719
:1010800075FF0EBC4243891A1847C0467047C046D8
:10109000001BB70010270000000000000080510175
:1010A00000FF0100010000FFFF0000010001FF0040
:1010B00072706D00647574793A00000025000000BC
:0C10C00080F0FA023200000080F0FA021A
:00000001FF
