:10000000D8040020C10000002501000025010000E7
:1000100000000000000000000000000000000000E0
:1000200000000000000000000000000025010000AA
:100030000000000000000000250100002501000074
:100040002501000025010000250100002501000018
:10005000150B000025010000D50400001D0500005F
:100060002501000025010000A50900002501000070
:1000700025010000250100002501000025010000E8
:1000800025010000250100002501000025010000D8
:1000900025010000250100002501000025010000C8
:1000A00025010000250100002501000025010000B8
:1000B00025010000250100002501000025010000A8
:1000C00080B582B000AF124B7B60124B3B6007E003
:1000D0003B681A1D3A607A68111D796012681A60CF
:1000E0003A680D4B9A42F3D30C4B3B6004E03B68FB
:1000F0001A1D3A6000221A603A68094B9A42F6D3F8
:1001000001F02CF900F016FEBD4602B080BDC046DD
:10011000041E0000000000200C0000200C00002045
:10012000D400002080B500AFFEE7C04680B582B0A5
:1001300000AF021CFB1D1A70064BFA1D1278111C31
:100140001F220A40012191400A1C1A60BD4602B0DC
:1001500080BDC04600E100E080B584B000AF7860AB
:100160007B681B78032B01D8B34B00E0B34BBB601B
:100170000F23FB187A6812781A700F23FB181B786C
:10018000042B06D90F23FB180F22BA181278043A51
:100190001A707B681B78002B03D07B681B78012BBF
:1001A0001AD1A74B1B78002B16D1A64BA54A9268F3
:1001B000802149030A439A60A24BA24A5269A2498C
:1001C0000A405A619F4B9F4A5269802189050A4320
:1001D0005A619B4B01221A707B681B78022B03D05B
:1001E0007B681B78032B1AD1984B1B78002B16D1F8
:1001F000944B944A9268802189030A439A60914BF8
:10020000904A5269920092085A618E4B8D4A526907
:10021000802109060A435A618C4B01221A707B68BF
:100220001B78042B03D07B681B78052B19D1884BD6
:100230001B78002B15D1834B824A92688021C90319
:100240000A439A607F4B7F4AD26930218A43DA6140
:100250007C4B7C4AD26920210A43DA617C4B012223
:100260001A707B681B78062B03D07B681B78072BE2
:1002700019D1784B1B78002B15D1724B714A9268BB
:10028000802109040A439A606E4B6E4AD269C021EC
:100290008A43DA616B4B6B4AD26980210A43DA6187
:1002A0006C4B01221A707B681B78032B0AD86A4BAF
:1002B0001B78002B10D10620FFF738FF664B012278
:1002C0001A7009E0654B1B78002B05D10720FFF75A
:1002D0002DFF624B01221A70BB689A680F23FB182E
:1002E0001B78DB00082199400B1C1A43BB689A60FD
:1002F000BB681B680F22BA1812785208D2B2D2001B
:10030000FF2191400A1CD24313407A685278111C95
:100310000F22BA1812785208D2B2D20091400A1CA9
:100320001A43BB681A60BB685B680F22BA18127860
:100330009200072191400A1CD24313407A689278B8
:10034000111C0F22BA181278920091400A1C1A430D
:10035000BB685A60BB681033191C0F23FB181A784E
:10036000131C5B009B189B00CB181A1C7B685B68F6
:100370001360BB680C33191C0F23FB181A78131C6D
:100380005B009B189B00CB181A1C7B689B68136052
:10039000BB68DA6F0F23FB181B78012199400B1CF7
:1003A0001A43BB68DA677B681B7B012B02D0022BE8
:1003B0000ED01AE0A023DB05A022D205916B7A684B
:1003C0001278083201209040021C0A439A630CE024
:1003D000A023DB05A022D205116C7A681278101CCC
:1003E000012282400A431A64C0467B681B69002BC5
:1003F00012D0BB681A6C0F23FB181B78012199409F
:100400000B1C1A43BB681A647B681B781A1C7B6838
:100410001969134B9200D150BB689A680F23FB18DF
:100420001B78DB00012199400B1C1A43BB689A60C2
:10043000BD4604B080BDC04600000440000014402A
:100440000E00002000020050FFFFFFCF0F00002031
:1004500010000020110000200C0000200D000020E2
:100460006800002080B584B000AF786039600F2349
:10047000FB187A6812781A707B681B78032B01D8F6
:10048000124B00E0124BBB600F23FB181B78042BB0
:1004900006D90F23FB180F22BA181278043A1A70E3
:1004A0007B683A685A60BB681033191C0F23FB182D
:1004B0001A78131C5B009B189B00CB181A1C7B68D6
:1004C0005B681360BD4604B080BDC04600000440B8
:1004D0000000144080B582B000AF00237B6013E0C1
:1004E0000C4B01217A6891400A1C5A640A4B7A68C5
:1004F0009200D358002B04D0074B7A689200D3584F
:1005000098477B6801337B607B68032BE8DDBD4641
:1005100002B080BD000004406800002080B582B0B9
:1005200000AF04237B6014E00D4B7A68043A01218C
:1005300091400A1C5A640B4B7A689200D358002BE6
:1005400004D0084B7A689200D35898477B680133EF
:100550007B607B68072BE7DDBD4602B080BDC046EF
:10056000000014406800002080B582B000AF021C7B
:10057000FB1D1A70064BFA1D1278111C1F220A402F
:10058000012191400A1C1A60BD4602B080BDC046E0
:1005900000E100E0B0B582B000AF021C3960FB1D85
:1005A0001A70FB1D1B787F2B2FD92D4CFB1D1B7840
:1005B0001A1C0F231340083B9908294AFB1D1B787E
:1005C000181C0F230340083B9B0806339B00D318DD
:1005D0005B68FA1D1278101C03220240D200101C26
:1005E000FF228240D2431A403B689B01FF20034018
:1005F000F81D0078051C03202840C00083401A43E2
:100600008B1D9B00E3185A6026E0164CFB1D1B78DF
:100610005BB29B081349FA1D127852B29208C0329D
:1006200092005258F91D0978081C03210140C900A5
:10063000081CFF218140C94311403A689201FF2004
:100640000240F81D0078051C03202840C0008240AD
:100650000A43C0339B001A51BD4602B0B0BDC0462C
:1006600000ED00E000E100E080B584B000AF78600C
:10067000094BFB6005E0FB685A1EFA60002B00DCAA
:1006800006E0064BDB687A681A407B689A42F2D132
:10069000BD4604B080BDC04690D0030000020050AB
:1006A00080B582B000AF78600A4A0B4B1B6879684E
:1006B0004B435360074B00229A60064B05221A6099
:1006C000C046044B1A6880235B021340F9D0BD4634
:1006D00002B080BD10E000E00400002080B500AF53
:1006E000A023DA0580235B005921D150A023DA052D
:1006F00080235B001621D150A023DA0580235B0004
:100700008821D150A023DA0580235B00D358002B29
:10071000E6D0BD4680BDC04680B500AFA023DA0557
:1007200080235B000021D150BD4680BD80B584B0E0
:1007300000AFF860B9607A60FB689A697B68190E4F
:10074000BB6899400B1C1A43FB689A61FB68DA6925
:100750007B681B02190ABB6899400B1C1A43FB6893
:10076000DA61BD4604B080BD80B500AFFFF7B6FFCB
:10077000504B504A126801210A431A604D4B4E4AB1
:100780001A620520FFF770FF4A4B1A221A61494B83
:100790004A4A9A60474B4A4A5A614A4B4A4A1A6047
:1007A0004A4B494A1A604A4B32221A60494B494A1D
:1007B000126803218A4301210A431A60454B454AC6
:1007C00012680C218A4304210A431A60414B414AB2
:1007D000126830218A4310210A431A603D4B3D4A7A
:1007E0001268C0218A4340210A431A60394B394AB2
:1007F000126839490A40802149000A431A60354B82
:10080000344A126835490A408021C9000A431A60F7
:10081000334B334A126803218A4301210A431A6089
:100820002F4B2F4A12680C218A4304210A431A6075
:100830002C4B2C4A126830218A431A60294B294AD2
:100840001268C0218A431A60264A80235B02101C6A
:1008500002211A1CFFF76AFF224A80235B02101C48
:1008600003211A1CFFF762FF0A200021FFF792FE06
:1008700001235B42181C0121FFF78CFE042002219A
:10088000FFF788FE06200321FFF784FE0420FFF710
:100890006BFE0A20FFF768FEA023DB0580225200D2
:1008A0001A64A023DB05F02212025A63FFF734FF1B
:1008B000BD4680BD0002005017420000101000002D
:1008C000100002000800002080F0FA020000002062
:1008D00004000020C0400050FFFCFFFFFFF3FFFFBB
:1008E000404000500040005080B582B000AF0D4B3A
:1008F00000221A700C4B00221A600C4B00221A6066
:1009000000237B6007E00A4B7A6892000021D150F7
:100910007B6801337B607B680C2BF4DDBD4602B045
:1009200080BDC04628000020240000202C000020AC
:100930003000002080B582B000AF7860154B1A6897
:100940007B68D218134B1A60134B1A68134B920032
:100950007968D150104B1B680C2B03D00E4B1B68D1
:100960005A1C00E000220C4B1A600B4B1A680B4B10
:100970009200D258074B1B689A1A064B1A60064B16
:100980001B68002B02D1064B01221A70BD4602B033
:1009900080BDC0462C000020240000203000002034
:1009A0002800002080B582B000AF394B9B6801223F
:1009B000134021D0374B1B68374A93420BD8374B33
:1009C0001B78DBB2002B06D1324B1B68802252040D
:1009D0009A18304B1A60314B00221A702C4B0122AE
:1009E0009A602C4B1A6880239B049A4204D9FFF723
:1009F0007BFF284B00221A60254B9B690122134084
:100A000043D0234B1B691B021B0A7B60244B1A68D3
:100A10007B689A420DD91F4B1B68002B09D11D4BD7
:100A20001B68802252049A181A4B1A601B4B012231
:100A30001A70184B1A681B4B1A60164B00221A606A
:100A4000184B1A687B68D218164B1A60144B1A6838
:100A5000144B1B689A1A134B1A60114B7A681A6070
:100A6000104B1A6880235B049A4206D90D4B1B6811
:100A7000FF2212069A180B4B1A600A4B1B68181CAF
:100A8000FFF758FF024B01229A61BD4602B080BDBC
:100A9000000011401C000020FEFFFF7E64000020CB
:100AA000180000202000002080B582B000AF144B59
:100AB0001B78DBB2002B0CD0124B1B68002B08D02C
:100AC000104B1B681048191C00F00AFF031C7B60C8
:100AD00001E000237B607B68181C00F0D5F90B4B0C
:100AE0001B78002B09D00A4B1B683B60074B002288
:100AF0001A703B68181C00F0E9F9BD4602B080BDD1
:100B0000280000202C000020005ED0B29C000020B5
:100B1000A000002080B500AFC820FFF7C1FD194B31
:100B20001B68DBB2DB18DAB2174B1B68DBB213436E
:100B3000DAB2164B1B789B00DBB21343DAB2134BCD
:100B40001A70134B04221A62114B08221A620F4BBF
:100B50001B781A1C0F2313400E4AD35C5BB25A1C3D
:100B600002D0012B07D00BE00B4B1B680122524235
:100B7000101C984704E0084B1B6801209847C046AA
:100B8000BD4680BD0C4200500842005014000020B9
:100B900000400050CC1D0000CC00002080B582B089
:100BA00000AF78600B4B7A681A600B4B1B68DBB2A6
:100BB000DB18DAB2094B1B68DBB21343DAB2084B1D
:100BC0001B789B00DBB21343DAB2054B1A70BD46AB
:100BD00002B080BDCC0000200C4200500842005002
:100BE0001400002080B584B000AF021CFB1D1A70F9
:100BF0000E4B1B68FB60FB1D1B785BB2FA68D318B9
:100C0000FB60FB68002B0EDBFB68F92B0BDCFB6841
:100C1000074A101C191CFFF725FCFA68034B1A60E1
:100C2000044B01221A70BD4604B080BDA000002014
:100C3000A40000209C00002080B500AF0A4B802259
:100C4000D2041A60084B00225A60074B074A1A6008
:100C5000054B2A225A61044B01229A61024B012260
:100C60009A60BD4680BDC04600001140000001688A
:100C700080B500AF0C4B02221A700B4B09225A7040
:100C8000094B04229A70084BF422FF325A60064B3B
:100C9000064A9A60044B01221A73034B181CFFF793
:100CA0005BFABD4680BDC046B8000020E7030000E7
:100CB00080B500AF0B4B00221A700A4B01225A700C
:100CC000084B04229A70074B00225A60054BF92208
:100CD0009A60044B01221A73024B181CFFF73CFA6E
:100CE000BD4680BDA400002080B500AF0D4B03229F
:100CF0001A700C4BFF225A700A4B03229A70094B50
:100D0000094A5A60074B094A9A60064B00221A7337
:100D1000044B074A1A61034B181CFFF71DFABD4626
:100D200080BDC04688000020E1040000C309000027
:100D3000A90A000080B584B002AFFFF715FD00F0EE
:100D400045F8002000F04EF8194B00221A60FFF71A
:100D5000CBFD184B181CFFF721FFFFF7A9FF164B1F
:100D600000221A60154B01221A70FFF7BDFFFFF732
:100D70007FFFFFF761FF00F0BDFB64237B6008E0AD
:100D80007B680F4A6420191C00F000FD7B6801336A
:100D90007B607B68C72BF3DD0A4A0B4B0093002373
:100DA0000193101C63210022002300F049FDFEE79F
:100DB0001C000020E50B0000A00000209C0000208B
:100DC00054A20000BC1D0000FFFF000080B500AF72
:100DD00000F07AF9024B00221A70BD4680BDC04671
:100DE000D100002080B582B000AF021CFB1D1A703C
:100DF0001F4BFA1D12781A70FB1D1B78002B02D0B6
:100E0000012B19D031E00B20002100F059FA194BC9
:100E1000181C00F07BF90020012100F051FA164B5C
:100E2000181C00F073F90A20012100F049FA134B55
:100E3000181C00F06BF918E00020002100F040FAC7
:100E40000F4B181C00F062F90020012100F038FA65
:100E5000094B181C00F05AF91420002100F030FA58
:100E6000084B181C00F052F9C046BD4602B080BDC8
:100E7000D0000020DC1D0000E01D0000E81D000087
:100E8000EC1D0000FC1D000080B584B002AF78604E
:100E90000C4B1B78002B12D10B4B1B78002B0ED167
:100EA000084B01221A707A6800230093101C092154
:100EB0000022082300F046F9024B00221A70BD46BA
:100EC00002B080BDD1000020D000002080B586B0E7
:100ED00002AF78600E4B1B78002B16D10D4B1B78A0
:100EE000002B12D17B6801339B00FB60084B012271
:100EF0001A70FA6801230093101C092101220523AE
:100F000000F020F9024B00221A70BD4604B080BDEB
:100F1000D1000020D000002080B582B000AF786002
:100F20000A4A0B4B1B6879684B435360074B0022FE
:100F30009A60064B05221A60C046044B1A6880234B
:100F40005B021340F9D0BD4602B080BD10E000E066
:100F50000400002080B500AF094B00221A60642015
:100F6000FFF7DAFF064B01221A606420FFF7D4FF77
:100F7000034B00221A606420FFF7CEFFBD4680BD00
:100F80007042005080B500AF094B00221A60094B37
:100F900000221A60084B00221A60084B00221A60D7
:100FA000074B00221A60074B00221A60BD4680BD25
:100FB00074420050704200506C4200506842005031
:100FC000644200506042005080B582B000AF021C05
:100FD000FB1D1A70BB1D0A1C1A70FFF7D3FF2A4BAA
:100FE000BA1D1278D209D2B2111C01220A401A602D
:100FF000264BBA1D12789209D2B2111C01220A4066
:101000001A60234BBA1D12785209D2B2111C012268
:101010000A401A601F4BBA1D12781209D2B2111C75
:1010200001220A401A601C4BFA1D12781A60FFF761
:1010300091FF154BBA1D1278D208D2B2111C0122B1
:101040000A401A60114BBA1D12789208D2B2111CD4
:1010500001220A401A600E4BBA1D12785208D2B211
:10106000111C01220A401A600A4BBA1D1278012194
:101070000A401A60084BFA1D12781A60FFF76AFFDF
:10108000BD4602B080BDC0466C4200506842005070
:1010900064420050604200507442005080B500AF7E
:1010A00000200121FFF790FFFA23DB00181CFFF757
:1010B00033FF00200221FFF787FFFA23DB00181C13
:1010C000FFF72AFFBD4680BD80B500AFFFF75AFF8E
:1010D0000C4B181CFFF720FF0B4B01221A60FFF787
:1010E00039FF00202821FFF76FFF00200C21FFF7B8
:1010F0006BFF00200621FFF767FFFFF7CFFFBD461C
:1011000080BDC046204E00006442005080B584B0CF
:1011100000AF78600023FB600AE0FB687A68D318B0
:101120001B780120191CFFF74FFFFB680133FB60A0
:10113000FB687A68D3181B78002BEED1BD4604B04B
:1011400080BDC04690B585B000AF78600C1C101C07
:10115000191CFB1C221C1A70BB1C021C1A707B1C65
:101160000A1C1A700F23FB18FA1C12781A700F232E
:10117000FB181A78BB1C1B78101C191C00F0A0F877
:1011800000200421FFF720FF7B68002B0BD10120FA
:101190003021FFF719FF0F23FB181A780F23FB18D4
:1011A000013A1A706FE05AE0FB1C1A780F23FB1803
:1011B0001B78D21A2023FB181B789A420FD12023C8
:1011C000FB181B78002B0AD001202E21FFF7FCFE14
:1011D0000F23FB181A780F23FB18013A1A707B684B
:1011E000002B14D07B68181C0A2100F0FFFB0B1C9D
:1011F000DBB23033DBB20120191CFFF7E5FE7B6860
:10120000181C0A2100F06CFB031C7B6003E001202A
:101210003021FFF7D9FEFB1C1A780F23FB181B782F
:10122000D21A7B1C1B789A4212DD0F23FB18FA1C82
:1012300012781A700F23FB181A78BB1C1B78101C2D
:10124000191C00F03DF801202021FFF7BDFE1AE037
:101250000F23FB181A780F23FB18013A1A707B68CA
:10126000002BA1D12023FB181B78002B0BD00F23C0
:10127000FB181A782023FB181B78D3185A1CFB1C68
:101280001B789A4290DC0AE001202021FFF79CFEA7
:101290000F23FB181A780F23FB18013A1A70FB1C56
:1012A0001A780F23FB181B78D21A7B1C1B789A42E2
:1012B000EADD00200621FFF787FEBD4605B090BDA0
:1012C00080B584B000AF021CFB1D1A70BB1D0A1C48
:1012D0001A700F23FB1800221A70BB1D1B789B018C
:1012E000D9B20F23FB18FA1D12788A181A700F232F
:1012F000FB181B78802252421343DBB20020191CDA
:10130000FFF762FEBD4604B080BDC04680B500AFA9
:10131000A023DA0580235B005921D150A023DA05F0
:1013200080235B001621D150A023DA0580235B00C7
:101330008821D150A023DA0580235B00D358002BED
:10134000E6D0BD4680BDC04680B500AFA023DA051B
:1013500080235B000021D150BD4680BD80B584B0A4
:1013600000AF264B00221A600B23FB1800221A70D4
:10137000234B1B69072213407B607B68002B15D130
:101380001F4B204A1A62204BFB6005E0FB685A1E87
:10139000FA60002B00DC04E0194BDB6804221340E8
:1013A000F4D00B23FB1801221A7017E07B68072B7F
:1013B00014D1134B154A1A62154BFB6005E0FB680C
:1013C0005A1EFA60002B00DC04E00D4BDB6804229F
:1013D0001340F4D00B23FB1801221A700B23FB18C7
:1013E0001B785BB2002B06D0FFF790FF044B022264
:1013F0001A61FFF7A9FFBD4604B080BD08000020B8
:101400000002005017420000E02E0000395608008C
:101410006656000080B582B000AF78600A4A0B4B78
:101420001B6879684B435360074B00229A60064B58
:1014300005221A60C046044B1A6880235B021340E1
:10144000F9D0BD4602B080BD10E000E004000020ED
:1014500080B582B000AF021CFB1D1A70094B01223F
:101460001A60094BFA1D12781A62074B064A126875
:1014700001210A431A601E20FFF7CCFFBD4602B0CF
:1014800080BDC046204200500000034080B582B0BD
:1014900000AF021CFB1D1A70094B00221A60094B99
:1014A000FA1D12781A62074B064A126801210A4394
:1014B0001A601E20FFF7AEFFBD4602B080BDC046D9
:1014C000204200500000034080B500AF084B0022CE
:1014D0001A60FA239B00181CFFF79CFF044B0122A3
:1014E0001A60FA239B00181CFFF794FFBD4680BDCD
:1014F0002442005080B500AFA24B44221A60A14B99
:1015000009229A609F4B9F4AD26B802109060A43A9
:10151000DA639C4B9B4A5268FF218A4363210A434A
:101520005A60994B01221A60FFF7CEFF0120FFF7A6
:10153000ADFFFA23DB00181CFFF76CFFCB20FFF791
:10154000A5FF3920FFF784FF2C20FFF781FF002043
:10155000FFF77EFF3420FFF77BFF0220FFF778FFC5
:10156000CF20FFF793FF0020FFF772FFC120FFF7A6
:101570006FFF3020FFF76CFFE820FFF787FF852023
:10158000FFF766FF0020FFF763FF7820FFF760FF9B
:10159000EA20FFF77BFF0020FFF75AFF0020FFF74C
:1015A00057FFED20FFF772FF6420FFF751FF032084
:1015B000FFF74EFF1220FFF74BFF8120FFF748FF98
:1015C000F720FFF763FF2020FFF742FFC020FFF75F
:1015D0005DFF2320FFF73CFFC120FFF757FF1020DE
:1015E000FFF736FFC520FFF751FF3E20FFF730FF22
:1015F0002820FFF72DFFC720FFF748FF8620FFF7C1
:1016000027FF3620FFF742FF4820FFF721FF3A204F
:10161000FFF73CFF5520FFF71BFFB120FFF736FF18
:101620000020FFF715FF1820FFF712FFB620FFF785
:101630002DFF0820FFF70CFF8220FFF709FF27206E
:10164000FFF706FFF220FFF721FF0020FFF700FF62
:101650002A20FFF71BFF0020FFF7FAFE0020FFF70C
:10166000F7FE0020FFF7F4FEEF20FFF7F1FE2B203E
:10167000FFF70CFF0020FFF7EBFE0020FFF7E8FE6E
:101680000120FFF7E5FE3F20FFF7E2FE2620FFF7EF
:10169000FDFE0120FFF7DCFEE020FFF7F7FE0F2044
:1016A000FFF7D6FE3120FFF7D3FE2B20FFF7D0FE49
:1016B0000C20FFF7CDFE0E20FFF7CAFE0820FFF733
:1016C000C7FE4E20FFF7C4FEF120FFF7C1FE372012
:1016D000FFF7BEFE0720FFF7BBFE1020FFF7B8FEA6
:1016E0000320FFF7B5FE0E20FFF7B2FE0920FFF73B
:1016F000AFFE0020FFF7ACFEE120FFF7C7FE0020A1
:10170000FFF7A6FE0E20FFF7A3FE1420FFF7A0FEB2
:101710000320FFF79DFE1120FFF79AFE0720FFF739
:1017200097FE3120FFF794FEC120FFF791FE48207D
:10173000FFF78EFE0820FFF78BFE0F20FFF788FED5
:101740000C20FFF785FE3120FFF782FE3620FFF7E1
:101750007FFE0F20FFF77CFE1120FFF797FEFA2394
:101760009B00181CFFF756FE2920FFF78FFE2C2048
:10177000FFF78CFEFA239B00181CFFF74BFEBD46BB
:1017800080BDC046000003402042005080B584B0B8
:1017900000AFF860B9607A60F868B968FA68BB6849
:1017A00000F012F82C20FFF771FE7B681B0ADBB2F9
:1017B000181CFFF74DFE7B68DBB2181CFFF748FED4
:1017C000BD4604B080BDC04680B584B000AFF860AF
:1017D000B9607A603B602A20FFF758FEFB681B0A5D
:1017E000DBB2181CFFF734FEFB68DBB2181CFFF7F6
:1017F0002FFE7B681B0ADBB2181CFFF729FE7B68F3
:10180000DBB2181CFFF724FE2B20FFF73FFEBB685E
:101810001B0ADBB2181CFFF71BFEBB68DBB2181CEF
:10182000FFF716FE3B681B0ADBB2181CFFF710FE21
:101830003B68DBB2181CFFF70BFEBD4604B080BD51
:1018400090B589B000AFF8607A603B600B23FB185D
:101850000A1C1A700023FB6139E0FB68DA680B236D
:10186000FB181B78203B191CFB685B685943FB691C
:10187000CB18F968097A4B43D3187B610023BB610D
:101880001DE07A68BB69D018FB681B68FA695A4387
:101890003B68D1187B691B68FA68127AD200141C65
:1018A000BA69A21AD3400122134001D03B6B00E079
:1018B0007B6B1A1CFFF76AFFBB690133BB61FB68D6
:1018C0001A68BB699A42DCD8FB690133FB61FB688B
:1018D0005A68FB699A42C0D8BD4609B090BDC0465F
:1018E000002243088B4274D303098B425FD3030A5F
:1018F0008B4244D3030B8B4228D3030C8B420DD372
:10190000FF22090212BA030C8B4202D312120902FF
:1019100065D0030B8B4219D300E0090AC30B8B423D
:1019200001D3CB03C01A5241830B8B4201D38B03EB
:10193000C01A5241430B8B4201D34B03C01A524190
:10194000030B8B4201D30B03C01A5241C30A8B42D3
:1019500001D3CB02C01A5241830A8B4201D38B02BE
:10196000C01A5241430A8B4201D34B02C01A524162
:10197000030A8B4201D30B02C01A5241CDD2C309D4
:101980008B4201D3CB01C01A524183098B4201D350
:101990008B01C01A524143098B4201D34B01C01A3B
:1019A000524103098B4201D30B01C01A5241C308B3
:1019B0008B4201D3CB00C01A524183088B4201D322
:1019C0008B00C01A524143088B4201D34B00C01A0E
:1019D0005241411A00D20146524110467047FFE77A
:1019E00001B5002000F00CF802BDC0460029F7D078
:1019F00003B5FFF775FF0EBC4243891A1847C0466E
:101A00007047C046000000000000000000001010F9
:101A100010101010001000002828280000000000FE
:101A2000000024247C24487C484800003854503866
:101A3000145454381000205458302854140800000E
:101A400010282810344848340000101010000000FE
:101A50000000000008102020202020201008201066
:101A60000808080808081020103810280000000096
:101A70000000000010107C101000000000000000AA
:101A800000000010101000000000003800000000EE
:101A900000000000000000100000080810101010E6
:101AA000202000003844445444444438000010309E
:101AB0005010101010100000384444040810207C0E
:101AC000000038440418040444380000081828288A
:101AD000487C080800007C4040780404443800003A
:101AE000384440784444443800007C0408101020F6
:101AF000202000003844443844444438000038442E
:101B000044443C0444380000000010000000001071
:101B100000000000001000000010101000000C3049
:101B200040300C0000000000007C007C0000000041
:101B30000000601804186000000038440408101009
:101B40000010000038444C545C404038000010281D
:101B50002828287C4444000078444478444444784D
:101B6000000038444040404044380000704844443D
:101B70004444487000007C40407C4040407C000071
:101B80007C404078404040400000384440405C4445
:101B9000443800004444447C444444440000381029
:101BA0001010101010380000040404040404443819
:101BB00000004448506050484844000040404040C5
:101BC0004040407C0000446C6C5444444444000059
:101BD00044646454544C4C440000384444444444E9
:101BE0004438000078444444784040400000384481
:101BF00044444444543804007844444478484844B5
:101C00000000384440300804443800007C101010B4
:101C10001010101000004444444444444438000070
:101C20004444442828281010000044445454546C60
:101C30002828000044282810102828440000444484
:101C400028281010101000007C0408101020407C80
:101C50000000181010101010101010182020101074
:101C60001010080800003010101010101010103064
:101C700010282844000000000000000000000000C0
:101C8000000000FE20100000000000000000000026
:101C900038443C444C340000404058644444645848
:101CA0000000000038444040443800000404344C34
:101CB00044444C340000000038447C404438000068
:101CC0000C107C101010101000000000344C444424
:101CD0004C340478404058644444444400001000AC
:101CE0007010101010100000100070101010101064
:101CF00010E0404048506050484400007010101000
:101D00001010101000000000785454545454000077
:101D100000005864444444440000000038444444F3
:101D200044380000000058644444645840400000B7
:101D3000344C44444C340404000058644040404057
:101D4000000000003844300844380000202078208B
:101D50002020201800000000444444444C3400007B
:101D60000000444428282810000000005454546CFB
:101D7000282800000000442810102844000000001B
:101D8000444428281010106000007C081020407C7B
:101D90000000181010102020101010181010101033
:101DA0001010101010103010101008081010103003
:101DB000000000744C00000000000000070000005C
:101DC0000A00000001000000041A000000FF0100EA
:101DD000010000FFFF0000010001FF0072706D00B4
:101DE000647574793A0000002500000043616C6955
:101DF00062726174696E672E2E2E000072706D3AE9
:041E000000000000DE
:0C1E040080F0FA023200000080F0FA02C8
:00000001FF
