:10000000600500200502000069020000690200008E
:1000100000000000000000000000000000000000E0
:100020000000000000000000000000006902000065
:1000300000000000000000006902000069020000EA
:100040006902000069020000690200006902000004
:10005000B10D00006902000069060000B106000051
:100060006902000069020000710B000069020000D3
:1000700069020000690200006902000069020000D4
:1000800069020000690200006902000069020000C4
:1000900069020000690200006902000069020000B4
:1000A00069020000690200006902000069020000A4
:1000B0006902000069020000690200006902000094
:1000C00080B582B000AF78600A4A0B4B1B68796834
:1000D0004B435360074B00229A60064B05221A607F
:1000E000C046044B1A6880235B021340F9D0BD461A
:1000F00002B080BD10E000E00800002080B500AF35
:10010000154B154A1268C02189000A431A60124B28
:10011000114A1268C02109010A431A600E4B0E4AA7
:100120001268C02189010A431A600B4B0A4A5269BE
:1001300010210A435A61084B074A526920210A4399
:100140005A61054B044A526940210A435A61034BE4
:100150002F221A60BD4680BD0040005080410050F3
:1001600080B582B000AF204B1B68002B01D002226B
:1001700000E000221D4B1B68591E8B41DBB2DBB235
:100180001343DAB2FB1D1A70194B1B78002B25D1D3
:10019000184B1B68002B07D0154B00221A7000F07B
:1001A000CBFA134B00221A70134B1B78FA1D1278EE
:1001B0009A4213D0114B00221A60114B01221A707F
:1001C000FB1D1B78DAB2022A00D90223DAB20A4BED
:1001D0001A70094B1B78181C01F0ACF8FA239B002D
:1001E000181CFFF76DFFBEE714420050104200508C
:1001F00010000020184200500000002014000020D1
:100200009D00002080B582B000AF124B7B60124B86
:100210003B6007E03B681A1D3A607A68111D7960FF
:1002200012681A603A680D4B9A42F3D30C4B3B604C
:1002300004E03B681A1D3A6000221A603A68094BD4
:100240009A42F6D301F0AAF900F0FCFEBD4602B0D6
:1002500080BDC0468C62000000000020100000201D
:10026000100000206001002080B500AFFEE7C0460E
:1002700080B582B000AF021CFB1D1A70064BFA1D40
:100280001278111C1F220A40012191400A1C1A6099
:10029000BD4602B080BDC04600E100E080B584B03C
:1002A00000AF78607B681B78032B01D8B34B00E06C
:1002B000B34BBB600F23FB187A6812781A700F23B8
:1002C000FB181B78032B06D90F23FB180F22BA1833
:1002D0001278043A1A707B681B78002B03D07B6875
:1002E0001B78012B1AD1A74B1B78002B16D1A64BDC
:1002F000A54A9268802149030A439A60A24BA24A08
:100300005269A2490A405A619F4B9F4A5269802113
:1003100089050A435A619B4B01221A707B681B783E
:10032000022B03D07B681B78032B1AD1984B1B78C8
:10033000002B16D1944B944A9268802189030A437A
:100340009A60914B904A5269920092085A618E4B82
:100350008D4A5269802109060A435A618C4B012259
:100360001A707B681B78042B03D07B681B78052BE5
:1003700019D1884B1B78002B15D1834B824A926888
:100380008021C9030A439A607F4B7F4AD26930219A
:100390008A43DA617C4B7C4AD26920210A43DA61C4
:1003A0007C4B01221A707B681B78062B03D07B687C
:1003B0001B78072B19D1784B1B78002B15D1724B6A
:1003C000714A9268802109040A439A606E4B6E4A12
:1003D000D269C0218A43DA616B4B6B4AD2698021B2
:1003E0000A43DA616C4B01221A707B681B78032B7D
:1003F0000AD86A4B1B78002B10D10620FFF738FF74
:10040000664B01221A7009E0654B1B78002B05D161
:100410000720FFF72DFF624B01221A70BB689A6814
:100420000F23FB181B78DB00082199400B1C1A4393
:10043000BB689A60BB681B680F22BA181278520812
:10044000D2B2D200FF2191400A1CD24313407A68F5
:100450005278111C0F22BA1812785208D2B2D20068
:1004600091400A1C1A43BB681A60BB685B680F2284
:10047000BA1812789200072191400A1CD243134007
:100480007A689278111C0F22BA1812789200914063
:100490000A1C1A43BB685A60BB681033191C0F232F
:1004A000FB181A78131C5B009B189B00CB181A1CB6
:1004B0007B685B681360BB680C33191C0F23FB1847
:1004C0001A78131C5B009B189B00CB181A1C7B68C6
:1004D0009B681360BB68DA6F0F23FB181B78012140
:1004E00099400B1C1A43BB68DA677B681B7B012BA6
:1004F00002D0022B0ED01AE0A023DB05A022D205E9
:10050000916B7A681278083201209040021C0A43ED
:100510009A630CE0A023DB05A022D205116C7A6857
:100520001278101C012282400A431A64C0467B687C
:100530001B69002B12D0BB681A6C0F23FB181B78A9
:10054000012199400B1C1A43BB681A647B681B7815
:100550001A1C7B681969134B9200D150BB689A68CA
:100560000F23FB181B78DB00012199400B1C1A4359
:10057000BB689A60BD4604B080BDC0460000044020
:10058000000014401A00002000020050FFFFFFCFBF
:100590001B0000201C0000201D000020180000206F
:1005A000190000207C00002080B584B000AF786086
:1005B00039600F23FB187A6812781A707B681B78F1
:1005C000032B01D8124B00E0124BBB600F23FB182A
:1005D0001B78032B06D90F23FB180F22BA181278A9
:1005E000043A1A707B683A685A60BB681033191C69
:1005F0000F23FB181A78131C5B009B189B00CB1869
:100600001A1C7B685B681360BD4604B080BDC046A1
:10061000000004400000144080B584B000AF786052
:100620000F23FB187A6812781A707B681B78032BEB
:1006300001D80B4B00E00B4BBB600F23FB181B7862
:10064000032B06D90F23FB180F22BA181278043A8D
:100650001A707B685B68181CBD4604B080BDC0463C
:10066000000004400000144080B582B000AF0023B9
:100670007B6013E00C4B01217A6891400A1C5A649C
:100680000A4B7A689200D358002B04D0074B7A6843
:100690009200D35898477B6801337B607B68032BBB
:1006A000E8DDBD4602B080BD000004407C000020B3
:1006B00080B582B000AF04237B6014E00D4B7A68F4
:1006C000043A012191400A1C5A640B4B7A6892004B
:1006D000D358002B04D0084B7A689200D35898471F
:1006E0007B6801337B607B68072BE7DDBD4602B08A
:1006F00080BDC046000014407C00002080B582B060
:1007000000AF78600A4A0B4B1B6879684B43536013
:10071000074B00229A60064B05221A60C046044B24
:100720001A6880235B021340F9D0BD4602B080BD39
:1007300010E000E00800002080B584B000AF012088
:1007400000F0D2FC0023FB604CE02F4AFB68101C39
:10075000191CFFF729FF2D4B01221A7000237B6023
:1007600007E0FA239B00181CFFF7C8FF7B680133E2
:100770007B607B68264A9342F3DD0023BB60002345
:100780007B600CE000F002FB021CBB689B18BB60A6
:10079000204B181CFFF7B2FF7B6801337B607B683E
:1007A0001F2BEFDDBB685B091B48191C01F010FF14
:1007B000031CBB60BA68FB68101C191C00F004FE27
:1007C000FB68181C00F0A4FF144B2C221A60BB68B5
:1007D000181C00F09DFF124B181C00F07DFFFB68F9
:1007E0000133FB60FB68F92BAFD90C4B2E221A604A
:1007F000002000F079FC0B4B01221A7000F080FE03
:10080000BD4604B080BDC046D4000020B500002025
:10081000E703000010270000005ED0B20000154082
:10082000F46100009D00002080B582B000AF021C82
:10083000FB1D1A70064BFA1D1278111C1F220A406C
:10084000012191400A1C1A60BD4602B080BDC0461D
:1008500000E100E0B0B582B000AF021C3960FB1DC2
:100860001A70FB1D1B787F2B2FD92D4CFB1D1B787D
:100870001A1C0F231340083B9908294AFB1D1B78BB
:10088000181C0F230340083B9B0806339B00D3181A
:100890005B68FA1D1278101C03220240D200101C63
:1008A000FF228240D2431A403B689B01FF20034055
:1008B000F81D0078051C03202840C00083401A431F
:1008C0008B1D9B00E3185A6026E0164CFB1D1B781D
:1008D0005BB29B081349FA1D127852B29208C032DB
:1008E00092005258F91D0978081C03210140C900E3
:1008F000081CFF218140C94311403A689201FF2042
:100900000240F81D0078051C03202840C0008240EA
:100910000A43C0339B001A51BD4602B0B0BDC04669
:1009200000ED00E000E100E080B584B000AF786049
:10093000094BFB6005E0FB685A1EFA60002B00DCE7
:1009400006E0064BDB687A681A407B689A42F2D16F
:10095000BD4604B080BDC04690D0030000020050E8
:1009600080B582B000AF78600A4A0B4B1B6879688B
:100970004B435360074B00229A60064B05221A60D6
:10098000C046044B1A6880235B021340F9D0BD4671
:1009900002B080BD10E000E00800002080B500AF8C
:1009A000A023DA0580235B005921D150A023DA056A
:1009B00080235B001621D150A023DA0580235B0041
:1009C0008821D150A023DA0580235B00D358002B67
:1009D000E6D0BD4680BDC04680B500AFA023DA0595
:1009E00080235B000021D150BD4680BD80B584B01E
:1009F00000AFF860B9607A60FB689A697B68190E8D
:100A0000BB6899400B1C1A43FB689A61FB68DA6962
:100A10007B681B02190ABB6899400B1C1A43FB68D0
:100A2000DA61BD4604B080BD80B500AFFFF7B6FF08
:100A30001A4B1A4A126801210A431A60174B184AC6
:100A40001A620520FFF770FF144B1A221A61134B2C
:100A500010229A60114B802292025A61114B124A65
:100A60001A60124B104A1A60114B32221A600A2087
:100A70000021FFF7EFFE01235B42181C0121FFF765
:100A8000E9FE04200221FFF7E5FE06200321FFF71F
:100A9000E1FEFFF7A1FFBD4680BDC0460002005049
:100AA000174200000C00002080F0FA020400002031
:100AB0000800002080B582B000AF0D4B00221A70F4
:100AC0000C4B00221A600C4B00221A6000237B6042
:100AD00007E00A4B7A6892000021D1507B6801330D
:100AE0007B607B680C2BF4DDBD4602B080BDC04648
:100AF0003400002030000020380000203C0000209E
:100B000080B582B000AF7860154B1A687B68D21848
:100B1000134B1A60134B1A68134B92007968D1502B
:100B2000104B1B680C2B03D00E4B1B685A1C00E0AB
:100B300000220C4B1A600B4B1A680B4B9200D258D8
:100B4000074B1B689A1A064B1A60064B1B68002B52
:100B500002D1064B01221A70BD4602B080BDC046CC
:100B600038000020300000203C000020340000202D
:100B700080B582B000AF524B01229A60514B1B7876
:100B8000DBB2002B0FD0C0464F4B1B78DBB2002BE3
:100B9000FAD14D4B01221A704C4B181C00F09CFDF1
:100BA000494B00221A70474B01221A70444B9B6834
:100BB000012213401ED0464B1B68464A93420BD875
:100BC000454B1B78DBB2002B06D1414B1B688022C2
:100BD00052049A183E4B1A603F4B00221A703C4B4D
:100BE0001A6880239B049A4204D9FFF763FF384BAD
:100BF00000221A60324B9B690122134059D0304BBE
:100C00001B691B021B0A7B60344B1A687B689A4283
:100C10000DD92F4B1B68002B09D12D4B1B6880224F
:100C200052049A182A4B1A602B4B01221A70284B37
:100C30001A682B4B1A60264B00221A60284B1A6840
:100C40007B68D218264B1A60244B1A68244B1B6809
:100C50009A1A234B1A60214B7A681A60204B1A6843
:100C600080235B049A4206D91D4B1B68FF221206A3
:100C70009A181B4B1A601A4B1B68181CFFF740FF91
:100C8000184B1B78002B14D1C0460F4B1B78DBB2DE
:100C9000002BFAD10C4B01221A70114B1B68181C47
:100CA00000F036FD104B181C00F016FD064B00221C
:100CB0001A70044B00221A70BD4602B080BDC046B7
:100CC00000001140B40000209C00002008620000D9
:100CD00028000020FEFFFF7E70000020240000207E
:100CE0002C000020100000200C62000080B582B0B3
:100CF00000AF1F4B1B78DBB2002B0CD01D4B1B68C9
:100D0000002B08D01B4B1B681B48191C01F060FC12
:100D1000031C7B6001E000237B607B68181C00F0F3
:100D200043FA164B1B78DBB2002B0AD000F0DEFB37
:100D3000031C3B603B68181C00F076FA0F4B002246
:100D40001A700F4B1B78DBB2002B0DD00D4B1B78AC
:100D5000002B09D00C4B1B683B603B68181C00F053
:100D6000A7FA074B00221A70BD4602B080BDC046EC
:100D70003400002038000020005ED0B2B500002012
:100D80009D000020000000201400002080B500AF6E
:100D9000054B1B78DBB2002B02D0044B1B6800E034
:100DA0000023181CBD4680BD340000203800002000
:100DB00080B500AFC820FFF7D3FD194B1B68DBB22D
:100DC000DB18DAB2174B1B68DBB21343DAB2164BEF
:100DD0001B789B00DBB21343DAB2134B1A70134B30
:100DE00004221A62114B08221A620F4B1B781A1C3C
:100DF0000F2313400E4AD35C5BB25A1C02D0012B66
:100E000007D00BE00B4B1B6801225242101C984785
:100E100004E0084B1B6801209847C046BD4680BDD2
:100E20000C420050084200502000002000400050BA
:100E3000F8610000CC00002080B582B000AF78607F
:100E40001B4B1B4A126830218A431A60184B184A00
:100E50001268C0218A431A60164B7A681A60164BD2
:100E60001B68DBB2DB18DAB2144B1B68DBB213432E
:100E7000DAB2134B1B789B00DBB21343DAB2104B90
:100E80001A700B4A80235B02101C02211A1CFFF708
:100E9000ADFD074A80235B02101C03211A1CFFF7DB
:100EA000A5FD0420FFF7C0FCBD4602B080BDC046D2
:100EB00000400050CC0000200C420050084200507E
:100EC0002000002080B584B000AF021CFB1D1A700A
:100ED0001D4B1B78002B18D100F008FB031CFB6096
:100EE000FB1D1B785BB2FA68D318FB60FB68002B14
:100EF0000BDBFB68F92B08DCFB68144A101C191C7F
:100F0000FFF752FB124B01221A700F4B1B78012B7B
:100F100017D1104B1B68FB60FB1D1B785BB2642272
:100F20005343FA68D318FB60FB68002B09DBFB68AE
:100F3000094A934205DCFA68064B1A60074B012206
:100F40001A70BD4604B080BD00000020D40000200F
:100F5000B500002014000020A86100009D000020C2
:100F600080B500AFA023DB05A022D205126C0F498B
:100F70000A40802149000A431A640A20FFF754FC02
:100F80000B4B8022D2041A60094B00225A60084B96
:100F9000084A1A60064B2A225A61054B01229A61BF
:100FA000034B01229A60BD4680BDC046FEFEFFFF96
:100FB000000011400000016880B500AF0C4B022218
:100FC0001A700B4B09225A70094B04229A70084B75
:100FD000F422FF325A60064B064A9A60044B012203
:100FE0001A73034B181CFFF759F9BD4680BDC04664
:100FF000B8000020E703000080B500AF0D4B0322CE
:101000001A700C4BFF225A700A4B03229A70094B3C
:10101000094A5A60074B094A9A60064B00221A7324
:10102000044B074A1A61034B181CFFF737F9BD46FA
:1010300080BDC046A0000020E1040000C3090000FC
:10104000ED0C000080B500AFFFF7EEFC00F040F8BB
:10105000002000F049F8174B00221A70164B0122AD
:101060001A70164B00221A60FFF724FD144B181C4F
:10107000FFF7E2FE00F01EFA124B01221A70124B2B
:1010800001221A70FFF7B8FF00F0E4FAFFF736F814
:10109000FFF792FFFFF764FF064B1B78181C00F068
:1010A00049F90A4B181C01F047FAFFF759F8181CC8
:1010B000BD4680BD000000207400002028000020F4
:1010C000C50E0000B50000209D000020D4000020C7
:1010D00080B500AF00F020FC024B00221A70BD4624
:1010E00080BDC0460100002080B584B002AF021C64
:1010F000FB1D1A70254B01221A70254BFA1D127820
:101100001A7000F08BFEFB1D1B78002B02D0012B08
:1011100019D035E01F49204A204B0093002301934A
:10112000081C111C05223C2300F050FF19491C4AE1
:101130001A4B009300230193081C111C7D223C23B1
:1011400000F044FF1CE01349164A144B009300239F
:101150000193081C111C0522052300F037FF0F4BDB
:10116000009305201E210522E02300F081FE0B4B99
:1011700000930520E021FE22E02300F079FEC04626
:10118000024B00221A70BD4602B080BD0100002053
:10119000D0000020884E000010620000FFFF000019
:1011A000186200001C62000080B586B004AF786051
:1011B000184B1B78002B29D1164B01221A70164BA5
:1011C0001B78002B10D115497A68154B009300232A
:1011D00001930523029300230393081C111C75221D
:1011E000052300F01DFF0EE00E48796889235A00A0
:1011F0000B4B0093002301930523029300230393D9
:10120000052300F00DFF034B00221A70BD4602B00B
:1012100080BDC04601000020D0000020E461000035
:10122000FFFF00001C41000080B588B004AF78606B
:101230001A4B1B78002B2DD1184B01221A707B689A
:1012400001339B00FB60164B1B78002B10D1154916
:10125000FA68154B009300230193052302930123A1
:101260000393081C111C41223C2300F0D9FE0EE020
:101270000E48F96889235A000B4B00930023019311
:1012800005230293012303930F2300F0C9FE034BB0
:1012900000221A70BD4604B080BDC0460100002087
:1012A000D0000020884E0000FFFF00001C4100001D
:1012B00080B586B004AF7860184B1B78002B2AD11C
:1012C000174B1B78002B26D1144B01221A70154B9B
:1012D0001B78002B10D014497A68144B009300231C
:1012E00001930523029300230393081C111C8222FF
:1012F000282300F095FE0BE00B490D4A0B4B0093A1
:1013000000230193081C111C8222282300F05EFE9A
:10131000024B00221A70BD4602B080BD01000020C1
:10132000D000002074000020884E0000FFFF000065
:101330002C62000080B586B002AF021CFB1D1A7043
:101340001A4B1B78002B2ED1194B1B78002B2AD15E
:10135000164B01221A70FB1D1B78012B10D0022B9B
:1013600002D0002B06D010E0124BFB60FC23DB0008
:10137000BB600AE0104BFB60F8231B02BB6004E07B
:101380000E4BFB600E4BBB60C0460E48F9688523D0
:101390005A00BB68009300230193D82300F016FE87
:1013A000024B00221A70BD4604B080BD010000202F
:1013B000D0000020346200003C6200004462000063
:1013C000E0FF0000884E0000B0B586B002AF786044
:1013D00039607B68244A934200D9234BDB09FB60C8
:1013E000C046224B1B78002BFBD1204B01221A70E8
:1013F0001F4B1B685A1CFB689A4205D31C4B1B6889
:101400005A1EFB689A421CD93B68002B19D03B68D6
:10141000181D174B1B68FA68934200D2131CE02278
:10142000D11A3B681D1D124B1A68FB68934200D904
:10143000131CE022D41A0F4B00932A1C231C00F02B
:1014400017FD0B4BFA681A603B68591DFB68E022D8
:10145000D31A084A081C191C00F090FC034B002208
:101460001A70BD4604B0B0BDA861000001000020A4
:1014700078000020E0FF000080B582B000AF786007
:101480000A4A0B4B1B6879684B435360074B002299
:101490009A60064B05221A60C046044B1A688023E6
:1014A0005B021340F9D0BD4602B080BD10E000E001
:1014B0000800002080B500AF0B4B00221A700A4BC9
:1014C00001225A70084B04229A70074B00225A607E
:1014D000054BF9229A60044B01221A73024B181C27
:1014E000FEF7DCFEBD4680BDD400002080B500AF15
:1014F000024B5B68181CBD4680BDC046D40000206E
:1015000080B582B000AF0E4B9B687B6012E00D4B44
:1015100001221A7000233B6006E00B4B181CFFF7FA
:10152000ABFF3B6801333B603B68272BF5D97B68F9
:10153000013B7B607B68002BE9D1BD4602B080BDDA
:10154000D4000020B50000208813000080B500AF53
:10155000A023DA0580235B005921D150A023DA05AE
:1015600080235B001621D150A023DA0580235B0085
:101570008821D150A023DA0580235B00D358002BAB
:10158000E6D0BD4680BDC04680B500AFA023DA05D9
:1015900080235B000021D150BD4680BD80B584B062
:1015A00000AF264B00221A600B23FB1800221A7092
:1015B000234B1B69072213407B607B68002B15D1EE
:1015C0001F4B204A1A62204BFB6005E0FB685A1E45
:1015D000FA60002B00DC04E0194BDB6804221340A6
:1015E000F4D00B23FB1801221A7017E07B68072B3D
:1015F00014D1134B154A1A62154BFB6005E0FB68CA
:101600005A1EFA60002B00DC04E00D4BDB6804225C
:101610001340F4D00B23FB1801221A700B23FB1884
:101620001B785BB2002B06D0FFF790FF044B022221
:101630001A61FFF7A9FFBD4604B080BD0C00002071
:101640000002005017420000E02E0000395608004A
:101650006656000080B500AF194B194A9268802188
:1016600089020A439A60164B154A526915490A4085
:10167000802149040A435A61A023DB05A022D20538
:10168000526B11490A40C02109010A435A63A02341
:10169000DB05A022D205D268802189020A43DA60E4
:1016A000A023DB05A022D205D26808490A40DA60EF
:1016B000074B084A5A62064B0322DA60BD4680BDDA
:1016C00000020050FFFFFFFCF3F3FFFFFFFFFDFFF1
:1016D00000001540B001003080B584B000AF7860E4
:1016E0000023FB6008E0094BFA6879688A181278D1
:1016F0001A60FB680133FB60FB687A68D3181B78BB
:10170000002BF0D1BD4604B080BDC046000015409E
:1017100080B586B000AF786000237B617B68002BCA
:101720002AD016E07B68181C0A2100F0D7FF0B1C9A
:10173000D9B20823FA187B69D3180A1C1A707B687F
:10174000181C0A2100F044FF031C7B607B690133F5
:101750007B617B68002BE5D10AE00A4B7A69013A8C
:10176000082179188A5C30321A607B69013B7B6101
:101770007B69002BF1DC02E0024B30221A60BD468F
:1017800006B080BD0000154080B582B000AF786023
:101790000A4A0B4B1B6879684B435360074B002286
:1017A0009A60064B05221A60C046044B1A688023D3
:1017B0005B021340F9D0BD4602B080BD10E000E0EE
:1017C0000800002080B582B000AF7860081C111CB2
:1017D000FB1C021C1A70BB1C0A1C1A70264B1B68CF
:1017E000F8229343FA1C1278202A03D0FA1C1278AC
:1017F000D20000E00022934220D0C0461E4B1B685E
:1018000001221340FAD11D4B1A68BB1C1B789A4267
:1018100003D01A4BBA1C12781A60174B164A12687A
:10182000F8218A43F91C0978202903D0F91C09788A
:10183000C90000E000210A431A600FE00F4B1A684C
:10184000BB1C1B789A4209D0C0460B4B1B68012277
:101850001340FAD1094BBA1C12781A60C046064BE5
:101860001A6880231B051340F9D1034B7A681A626A
:10187000BD4602B080BDC04600000340204200507B
:1018800080B582B000AF7860C046064B1A688023EE
:101890001B051340F9D1034B7A681A62BD4602B0AA
:1018A00080BDC0460000034080B582B000AF021C7E
:1018B000FB1D1A70C0460C4B1B6801221340FAD165
:1018C000094B094A1268F8218A43F91D0978202931
:1018D00003D0F91D0978C90000E000210A431A600D
:1018E000BD4602B080BDC0460000034080B500AFD9
:1018F000074B00221A60074B181CFFF745FF044BEB
:1019000001221A60034B181CFFF73EFFBD4680BD45
:10191000244200501027000080B500AFFE4BFE4A65
:10192000126803218A4301210A431A60FA4BFA4ADA
:1019300012680C218A4304210A431A60A023DB05A4
:10194000A022D205526BF5490A40F02109020A4350
:101950005A63F34BF24A9268802149010A439A6024
:10196000EF4BEF4A526910210A435A61ED4BEE4AA0
:101970001A60EC4B09229A60EA4BEA4AD26B80214A
:1019800009060A43DA63E74BE64A5268FF218A43B5
:1019900001210A435A60E54B01221A60FFF7A6FFB6
:1019A000012008210022FFF70DFFE14B181CFFF773
:1019B000EBFECB2008210022FFF704FF392008218D
:1019C0000122FFF7FFFE2C2008210122FFF7FAFE7B
:1019D000002008210122FFF7F5FE34200821012212
:1019E000FFF7F0FE022008210122FFF7EBFECF20D7
:1019F00008210022FFF7E6FE002008210122FFF760
:101A0000E1FEC12008210122FFF7DCFE3020082181
:101A10000122FFF7D7FEE82008210022FFF7D2FEBF
:101A2000852008210122FFF7CDFE00200821012298
:101A3000FFF7C8FE782008210122FFF7C3FEEA2045
:101A400008210022FFF7BEFE002008210122FFF737
:101A5000B9FE002008210122FFF7B4FEED20082185
:101A60000022FFF7AFFE642008210122FFF7AAFE43
:101A7000032008210122FFF7A5FE122008210122E0
:101A8000FFF7A0FE812008210122FFF79BFEF7202F
:101A900008210022FFF796FE202008210122FFF7EF
:101AA00091FEC02008210022FFF78CFE2320082190
:101AB0000122FFF787FEC12008210022FFF782FEE6
:101AC000102008210122FFF77DFEC52008210022F9
:101AD000FFF778FE3E2008210122FFF773FE282041
:101AE00008210122FFF76EFEC72008210022FFF720
:101AF00069FE862008210122FFF764FE36200821B6
:101B00000022FFF75FFEE82008210122FFF75AFEBE
:101B10003A2008210022FFF755FE55200821012216
:101B2000FFF750FEB12008210022FFF74BFE0020F6
:101B300008210122FFF746FE182008210122FFF7A5
:101B400041FEB62008210022FFF73CFE08200821B4
:101B50000122FFF737FE822008210122FFF732FE23
:101B6000272008210122FFF72DFEF2200821002264
:101B7000FFF728FE002008210122FFF723FE2A207C
:101B800008210022FFF71EFE002008210122FFF796
:101B900019FE002008210122FFF714FE0020082171
:101BA0000122FFF70FFEEF2008210122FFF70AFEB6
:101BB0002B2008210022FFF705FE0020082101222A
:101BC000FFF700FE002008210122FFF7FBFD0120A6
:101BD00008210122FFF7F6FD3F2008210122FFF72F
:101BE000F1FD262008210022FFF7ECFD012008214D
:101BF0000122FFF7E7FDE02008210022FFF7E2FDC8
:101C00000F2008210122FFF7DDFD312008210122EC
:101C1000FFF7D8FD2B2008210122FFF7D3FD0C2070
:101C200008210122FFF7CEFD0E2008210122FFF737
:101C3000C9FD082008210122FFF7C4FD4E2008211C
:101C40000122FFF7BFFDF12008210122FFF7BAFDB5
:101C5000372008210122FFF7B5FD072008210122C6
:101C6000FFF7B0FD102008210122FFF7ABFD032094
:101C700008210122FFF7A6FD0E2008210122FFF70F
:101C8000A1FD092008210122FFF79CFD0020082169
:101C90000122FFF797FDE12008210022FFF792FDC6
:101CA000002008210122FFF78DFD0E2008210122CE
:101CB000FFF788FD142008210122FFF783FD032090
:101CC00008210122FFF77EFD112008210122FFF7E4
:101CD00079FD072008210122FFF774FD312008213A
:101CE0000122FFF76FFDC12008210122FFF76AFDE5
:101CF000482008210122FFF765FD08200821012264
:101D0000FFF760FD0F2008210122FFF75BFD0C208B
:101D1000082101220EE0C046404000500F0FFFFF97
:101D20000002005000000340440020002042005008
:101D300088130000FFF746FD312008210122FFF73C
:101D400041FD362008210122FFF73CFD0F2008212C
:101D50000122FFF737FD112008210022FFF732FD95
:101D6000054B181CFFF710FD292008210022FFF762
:101D700029FDBD4680BDC0461027000080B584B057
:101D800000AFF860B9607A60F868B968FA68BB6853
:101D900000F018F82C2008210022FFF713FD7B68C3
:101DA0001B0A181C08210122FFF70CFD7B68FF228B
:101DB0001340181C08210122FFF704FDBD4604B0A2
:101DC00080BDC04680B584B000AFF860B9607A606D
:101DD0003B602A2008210022FFF7F4FCFB68181C56
:101DE00010210122FFF7EEFC7B68181C1021012254
:101DF000FFF7E8FC2B2008210022FFF7E3FCBB687B
:101E0000181C10210122FFF7DDFC3B68181C102173
:101E10000122FFF7D7FCBD4604B080BD80B582B07B
:101E200000AF4023FF33002000211A1CEF23FFF7EF
:101E3000C9FF2C2008210022FFF7C4FC2020FFF757
:101E400033FD094B01221A6000237B6005E000206E
:101E5000FFF716FD7B6801337B607B68034A934282
:101E6000F5D9BD4602B080BD20420050FF9500006C
:101E700080B586B000AFF860B9607A603B60F86802
:101E8000B9687A683B68FFF79DFF2C200821002283
:101E9000FFF798FC1020FFF707FD0E4B01221A6098
:101EA00000237B6106E03B6A181CFFF7E9FC7B69B5
:101EB00001337B617A68FB68D31A01333968BA68E9
:101EC0008A1A01325A437B699A42ECD8BD4606B061
:101ED00080BDC0462042005090B589B000AFF86088
:101EE0007A603B600B23FB180A1C1A70FB681A68A7
:101EF0007B68D418FB685A683B68D31879683A68DD
:101F0000081C111C221CFFF75DFF2C200821002259
:101F1000FFF758FC1020FFF7C7FC2B4B01221A607B
:101F20000023BB6148E0FB68DA680B23FB181B78D1
:101F3000203B191CFB685B685943BB69C918FB68E7
:101F40001B7A013B99400B1CD3183B61FB681B7A41
:101F5000022B08D0042B0AD0012B00D00AE03B69E9
:101F60001B78FB6107E03B691B88FB6103E03B6971
:101F70001B68FB61C04600237B6114E0FB681B7A91
:101F8000DB001A1C7B69D31A1A1CFB69D34001229F
:101F9000134001D03B6B00E07B6B181CFFF770FC1B
:101FA0007B6901337B61FB681B685A1C7B699A4221
:101FB000E4D8BB690133BB61FB685A68BB699A42CC
:101FC000B1D8BD4609B090BD2042005090B589B04F
:101FD00002AFF860B9607A603B6000237B6116E075
:101FE0007B69BA68D3181978FB681B6801337A6972
:101FF0005A437B68D218F8683C68BB6A0093FB6A56
:102000000193231CFFF768FF7B6901337B617B69C8
:10201000BA68D3181B78002BE2D1BD4607B090BD3B
:10202000F0B591B002AF78623962FA61BB616B467C
:102030001E1C402318229446BC4463441B78013381
:102040005A1E3A631A1C3A6100227A61386979692A
:10205000021C520F38617961C900796079681143B7
:1020600079603A69D2003A601A1CBA600022FA60BC
:10207000B868F968021C520FB860F960CD001543CA
:10208000BA68D4000733DB08DB006A46D31A9D46E2
:1020900002AB0033FB62402318229446BC446344E5
:1020A0001B78FA6A0021D154442318229446BC4478
:1020B00063441B78002B0FD040231822BA18D21883
:1020C000442318218C46BC44634412781B78D31AED
:1020D000DBB2013BDBB205E0402318229446BC444E
:1020E00063441B78132218218C46BC44624413704D
:1020F0001F2318229446BC44634400221A7044E013
:102100001F2318229446BC44634400229A5613238A
:1021100018218C46BC4463441B78013B9A420ADA7E
:102120001F2318229446BC4463441B785BB2FA6AAE
:102130002021D1541AE01F2318229446BC44634442
:102140001B785BB21F2218218C46BC4462440021DC
:102150005156132218208446BC446244127891429E
:1021600001D12E2100E03021FA6AD1541F23182218
:102170009446BC4463441B78DBB20133DAB21F23BC
:1021800018218C46BC4463441A701F2318229446BD
:10219000BC44634400229A56402318218C46BC4418
:1021A00063441B789A42ABDB402318229446BC441C
:1021B00063441B78013BDAB21F2318218C46BC44D0
:1021C00063441A7045E01F2318229446BC446344BC
:1021D00000229A56132318218C46BC4463441B7872
:1021E0009A420ED11F2318229446BC4463441B78A4
:1021F000DBB2013BDAB21F2318218C46BC44634496
:102200001A701F2318229446BC44634400241C57B0
:102210003B6A181C0A2100F061FA0B1CDBB2303358
:10222000DAB2FB6A1A553B6A181C0A2100F0D0F991
:10223000031C3B621F2318229446BC4463441B7852
:10224000DBB2013BDAB21F2318218C46BC44634445
:102250001A701F2318229446BC4463441B787F2BBA
:1022600002D83B6A002BAED13B6A002B38D0FB6A08
:1022700065221A70FB6A72225A70FB6A72229A7087
:102280001F2318229446BC44634403221A7018E0AA
:102290001F2318229446BC4463441B785BB2FA6A3D
:1022A0002021D1541F2318229446BC4463441B7838
:1022B000DBB20133DAB21F2318218C46BC446344DD
:1022C0001A701F2318229446BC44634400229A5675
:1022D000402318218C46BC4463441B789A42D7DBC8
:1022E000F96A786AFA69BC693B6D00937B6D01936A
:1022F000231CFFF76BFEB546BD460FB0F0BDC046D0
:1023000090B585B000AFB860F9603A607B60B8689E
:10231000F9683A6A7B6A00F017FA031E02D03B6A3A
:102320007C6A0CE0B868F9683A687B6800F0F8F9F4
:10233000031E02D03B687C6801E0BB68FC68181C87
:10234000211CBD4605B090BDF0B589B002AF7860E4
:102350007B68996ADA6A7B68DC699B69081C111CD6
:102360001A1C231C01F0FEF8031C0C1C3B617C6151
:102370007B681C6B5D6B7B689A68DB68101C191CA2
:102380003A697B6900F054FE021C0B1C201C291CBE
:1023900000F00CFA031C0C1C7A68136354637B680E
:1023A000196B5A6B7B689D6CDE6C7B685C6D1B6D7A
:1023B00000930194081C111C2A1C331CFFF7A0FF7A
:1023C000031C0C1C7A68136354637B689969DA698F
:1023D0007B68DC6B9B6B081C111C1A1C231C01F016
:1023E000C1F8031C0C1CBB60FC607B685C681B684C
:1023F000181C211C3A697B6900F01AFE031C0C1C96
:10240000191C221C7B685C6B1B6B081C111C1A1CA2
:10241000231C00F0CBF9031C0C1C1D1C261C7B6824
:102420005C691B69181C211CBA68FB6800F000FE7F
:10243000031C0C1C281C311C1A1C231C00F0B6F9B0
:10244000031C0C1C7A68136254627B68196A5A6A0E
:102450007B689D6CDE6C7B685C6D1B6D00930194EA
:10246000081C111C2A1C331CFFF74AFF031C0C1C00
:102470007A68136254627B68DC699B697A6893634B
:10248000D4637B685C6A1B6A7A6813645464BD46D3
:1024900007B0F0BD90B583B000AF224B1B78002B86
:1024A0003CD0214B1B78002B38D1204B1B68181CCB
:1024B00001F008FC031C0C1C1D4A9362D462FEF759
:1024C00065FC031C181C01F0FDFB031C0C1C184AC6
:1024D0009361D461164B181CFFF736FF144BDB6D6C
:1024E000181CFEF799F8031C7B60114B5C6A1B6A91
:1024F000181C211C00F03CF9031C3B600C4BDA6DEE
:102500003B68101C191CFEF74FF87A683B68D31A19
:102510005A1E9341DBB21A1C064B1A70BD4603B01B
:1025200090BDC046000000201000002014000020D4
:1025300000010020B500002090B583B000AF7860A6
:102540001B4A1C4B1C4C13605460194A0023002486
:102550009360D460164A0023002413615461144A26
:10256000002300249364D464114A0023134C1365A0
:1025700054650F4B7A68DA65114B04221A70104BC0
:10258000FF225A700E4B03229A700D4B0D4A5A606F
:102590000B4B0D4A9A600A4B00221A73084B0B4AE8
:1025A0001A61074B181CFDF779FEBD4603B090BDBC
:1025B000000100209A9999999999B93F00206F409C
:1025C000E8000020E1040000C30900009524000099
:1025D000002243088B4274D303098B425FD3030A62
:1025E0008B4244D3030B8B4228D3030C8B420DD375
:1025F000FF22090212BA030C8B4202D31212090203
:1026000065D0030B8B4219D300E0090AC30B8B4240
:1026100001D3CB03C01A5241830B8B4201D38B03EE
:10262000C01A5241430B8B4201D34B03C01A524193
:10263000030B8B4201D30B03C01A5241C30A8B42D6
:1026400001D3CB02C01A5241830A8B4201D38B02C1
:10265000C01A5241430A8B4201D34B02C01A524165
:10266000030A8B4201D30B02C01A5241CDD2C309D7
:102670008B4201D3CB01C01A524183098B4201D353
:102680008B01C01A524143098B4201D34B01C01A3E
:10269000524103098B4201D30B01C01A5241C308B6
:1026A0008B4201D3CB00C01A524183088B4201D325
:1026B0008B00C01A524143088B4201D34B00C01A11
:1026C0005241411A00D20146524110467047FFE77D
:1026D00001B5002000F00CF802BDC0460029F7D07B
:1026E00003B5FFF775FF0EBC4243891A1847C04671
:1026F0007047C0468446101C62468C46191C6346CF
:1027000000E0C0461FB500F02DFC002801D40021D8
:10271000C8421FBD10B500F071FB4042013010BD32
:1027200010B500F01FFC002801DB002010BD0120C7
:1027300010BDC04610B500F015FC002801DD0020DA
:1027400010BD012010BDC04610B500F09BFB002855
:1027500001DC002010BD012010BDC04610B500F006
:1027600091FB002801DA002010BD012010BDC046F9
:1027700038B500220C4B041C0D1CFFF7EFFF00289E
:1027800004D1201C291C01F067FA38BD064B002239
:10279000201C291C00F0E6FE01F05EFA80231B06D7
:1027A0009C466044F1E7C0460000E041F0B5454674
:1027B00057464E4694464C000A03C90FE0B488467B
:1027C0000E1C1903470FC500480A6146490F014313
:1027D0006046520A1743C0005A00640D520DDB0FC9
:1027E0008446984500D1A7E0A01A002800DC01E14A
:1027F000002A3DD163460B4300D0D4E06B0700D1E3
:1028000088E00F232B40042B00D183E02A1DAA422D
:10281000AD4180236D427F191B043B404646151C89
:10282000002B00D17CE0CC4B01349C4200D1FDE078
:102830003A1CCA4BED081A40500764055202054382
:10284000120B640D002112030B0D1B056405120B06
:102850001A436308C24CF60714401C436400640822
:102860003443281C211C1CBC90469946A246F0BD4E
:10287000B94B9C42C2D080231B041943382800DD89
:10288000ECE01F2800DD21E120220E1C6346121A15
:102890009640C340334366469640321C561EB241B2
:1028A00013430A1CC240EB1A9D42B6411D1CBA1AC2
:1028B0007642971B3B0200D497E07A02560A002E1C
:1028C00000D1B6E0301C01F02FFA031C083B1F2B8F
:1028D00000DDB7E09E40371C28262A1C361AF2403D
:1028E000161C9D403E439C4200DDB2E01C1B621C56
:1028F0001F2A00DDD8E01F23291C1C1B331CA54008
:10290000A340D1406C1EA541D64019430D43371C4E
:10291000002473E780231B043B40464600D082E737
:102920008D4BED0878070543FA089C4232D012031C
:102930006405120B640D85E7A31A002B00DC94E0FC
:10294000002A3CD0844A944200D157E780221204E6
:102950001143382B00DC05E163461943481E8141D1
:102960000022C8B24019A8429B41051CD2195B4203
:10297000D7183B0239D5784B01349C4200D14CE149
:102980000120764A6B083A4028401843D507054392
:10299000570833E72B1C134348D080231B031A43EB
:1029A0001203120B4EE70138002878D16346EE1A65
:1029B000B5429B417A1A5B42D71A351C7AE7021C52
:1029C0000A4300D11AE7013B002B00D0F2E0401986
:1029D000A8429B41CA195B42D718051CC9E7131CC2
:1029E000334300D118E1171C351C46466B0700D055
:1029F00007E795E700287AD1621C5205520D012A9B
:102A000000DCFBE06246AA1A9542B6419146781A6C
:102A10007242861A320200D493E06246551BAC45DE
:102A20008041CF1B40423E1A984648E700220025CD
:102A300008E7281C01F078F92030031C083B1F2B05
:102A400000DC47E7283885402E1C00259C4200DC2E
:102A50004CE7424AE41A1640371CCFE66346194356
:102A60004B1E99410022CBB21DE7002B00D0F2E0B3
:102A7000601C43055B0D012B00DCA4E0364B984243
:102A800000D121E163465C19AC429B41CF195B4206
:102A9000FA186408D50725435708041CAEE62E4BE8
:102AA0009C4200D0EAE6A9E6211C331C1F39CB402A
:102AB000191C202A00D182E03F231C1BA64035436D
:102AC0006E1EB54100270D4300248EE7031C0E1C2B
:102AD000203BDE40202874D040231B1A99400B1C59
:102AE00062461343591E8B4100223343DBE6002C20
:102AF00050D0194CA24200D1A8E0802424044042C6
:102B00002743382800DDD9E01F2800DD39E12024E3
:102B10003E1C241AA640B0462E1CA146C640444680
:102B200026434C46A5406C1EA541C7403543604630
:102B3000451BCF1BAC45894149427F1A141C98465E
:102B4000B8E64B464D46334300D0B8E60026002792
:102B500000240025E4E6C046FF070000FFFF7FFFDA
:102B6000FFFF0F801F2B5BDC2022081CD21A904035
:102B7000814660469246D8404A46104381465246B6
:102B800060469040021C501E8241484610430A1C79
:102B9000DA40E7E63C1C2C4358D0C043002851D112
:102BA0006046451BAC458041CF1B40423F1A141C78
:102BB00098467FE68F4A944200D0CAE61EE6002679
:102BC0007DE700238CE73B1C2B43002C00D0BDE0AD
:102BD000002B00D1F5E063460B4300D10EE66346BF
:102BE0005B19AB428041CA19404217183A0200D41F
:102BF000FCE0814A1D1C17400134FFE53A1C2A43C2
:102C0000002C51D1002A00D085E062460A4303D04F
:102C10000F1C65469846F1E50026002700257FE653
:102C2000181C0A1C2038C240202B00D1A7E04020ED
:102C3000C01A8140081C63461843411E8841104356
:102C400000228FE66B4CA24200D05AE70F1C65466B
:102C5000141C9846D2E5002C3AD1381C284371D078
:102C6000DB43002B18D0634882426BD0382B00DD49
:102C70009DE01F2B00DDA7E020203C1CC01A8440F3
:102C8000A1462C1C8246DC40484604435046854001
:102C9000681E8541DF402543654465459B417F189B
:102CA0005B42FF18141C64E6002A19D162460A43ED
:102CB00077D00F1C654698464E4C9FE53D436F1EEE
:102CC000BD410027EDB232E7041C0027002527E6AE
:102CD0004848824236D0802000045B420743C5E763
:102CE00062460A4349D08024ED087807FA08240395
:102CF0002843224209D0CE08264206D162464F0719
:102D0000381CD20810439846321CD200470F174394
:102D1000C500384C72E562460A4300D16EE5624652
:102D2000AE1AB5429241781A5242821A100200D469
:102D300055E66246551BAC458041CA1B4042171AF6
:102D400098465BE50F1C6546141C57E5002B34D0F4
:102D500063460B4311D08024ED087807FA0824035A
:102D600028432242D1D0CB082342CED162464F071E
:102D7000381CD20810431A1CC7E71E4C3EE5002041
:102D800059E7041C3E1C203CE640341C20282BD074
:102D90004026301A87403D436F1EBD410027254322
:102DA000C5E680270026FF03124C0025B8E53D4309
:102DB0006F1EBD410027EDB26EE70F1C65460D4C3E
:102DC0001CE50F1C654619E51C1C381C203CE04026
:102DD000041C202B0CD04020C31A9F403D436F1E83
:102DE000BD410027254357E70027D4E71D1CFCE51C
:102DF0000027F3E7FF070000FFFF7FFFF0B55F4606
:102E00004D4644465646F0B41F035C00DB0F99461E
:102E10001B4B0E034D00C90F8446360B6D0D8B46C0
:102E200090463F0B640D9D420CD0154B9C4210D038
:102E30000123A54214D0181C3CBC90469946A246DA
:102E4000AB46F0BD311C01230143F4D10C4B9C4235
:102E5000EED13A430123002AEDD10123A542EAD164
:102E6000BE42E8D1C445E6D1CB4506D0002DE2D123
:102E70003043031C581E8341DDE70023DBE7C046D7
:102E8000FF070000F0B5574645464E46E0B40F0335
:102E90004E00C90F8A4632491D035C0084463F0B31
:102EA000760D90462D0B640DDB0F8E420FD08C42B9
:102EB00039D0002E10D13843414241418946002C7F
:102EC00027D12A4325D1002000290ED108E0391C42
:102ED00001432ED1B44226D0002C0BD09A450DD000
:102EE0005346594201231943081C1CBC904699467D
:102EF000A246F0BD2A43F3D09A45F1D1A642EFDCB9
:102F00001ADA504641424841012341421943081C04
:102F1000EBE74A46002AE1D058425841012241429B
:102F20001143081CE1E7291C114302D1002EC2D035
:102F3000D4E702204042D8E7AF42D1D809D00020E0
:102F4000AF42D2D250464142484101234042184349
:102F5000CBE7C445C4D80020C445F3D3C5E7C04679
:102F6000FF070000F0B55F464D4644465646804692
:102F7000F0B4061C0803000B84462C484C001F03C9
:102F80005D00C90F640D8B4691463F0B6D0DDB0F45
:102F9000844212D0854225D0002C14D161460E43C4
:102FA00070424641002D35D0002E21D05842584164
:102FB000012143420B43181C0EE0614602203143BD
:102FC0000AD1A5420ED0002D12D13A4310D15B4652
:102FD000594201231943081C3CBC90469946A2461D
:102FE000AB46F0BD391C02201143F5D1002CD5D0E1
:102FF0009B45ECD1AC42EADC05DBBC45E7D80FD001
:103000000020BC45E8D25846414248414142012097
:103010000843E1E73A43C7D10020002EDCD1D6E7D0
:10302000C845D4D80020C845EDD3D5E7FF07000038
:10303000F0B55F4656464D464446F0B4051C061CA6
:10304000080387B099464F00030BCC0F92469B466E
:103050007F0D019467D06C4B9F4236D080205B4639
:1030600040031843C0006B0F1843684B83469C46CF
:1030700000239846EE00674400934B4649461D03E3
:10308000C90F5B0052462D0B5B0D894600D16EE0E7
:103090005D498B4264D080205C4940038C4600210E
:1030A0000543ED00500F0543D20063444846FF1826
:1030B0007B1C9A46009B604002900B430F2B00D96B
:1030C000ACE053489B00C3589F465B461D4300D06D
:1030D00082E00823009300239B4602330026984693
:1030E000CBE7029B01934346022B59D101240025D3
:1030F0000026019B1C40444B00212D030A0D1205A4
:103100002D0B1543434A1B0515401D436D00E40775
:103110006D082543301C291C07B03CBC90469946DD
:10312000A246AB46F0BD2B434ED05B46002B00D1F0
:1031300085E1584600F0F8FD021C2823291C9B1A43
:10314000161C5846D940083EB0400B1CB5400343FE
:103150009B462E1C0023304F0093BF1A98468CE7E5
:10316000514629432ED10025002202219EE75146D7
:10317000294323D0002D00D154E1281C00F0D4FDB8
:10318000031C28215046C91A1A1CC8405146083A47
:10319000914095400A1C05431F480021C31A85E74A
:1031A000032B00D1C2E1012B00D06DE14446019B0D
:1031B00000251C40E4B2002300269DE700250022E4
:1031C000012173E7032171E70423009300239B4649
:1031D00001330026984650E70C230093093B98469C
:1031E0004BE7802500242D030026074B84E74B4640
:1031F000AB46161C0193884675E7029BAB46161C2E
:10320000019388466FE7C046FF07000001FCFFFFFF
:103210004C620000FFFF0F800DFCFFFF330C3604F3
:10322000360C9C46331C140C1204120C5343984663
:10323000634653439946634663430193331C4146B7
:103240006343090C4B445B18994505D98020400223
:103250008146019949440191190C039141460904A1
:10326000090C1B045B1804932B0C9846331C2D048B
:10327000290C4B43604600934346654658435E43E2
:10328000009B4D431B0C9946AE194E448446B542F3
:1032900003D980235B029946CC44350C2B1C039840
:1032A000634484460593009B36041B041B0CF318EF
:1032B0009C446046039058460504060C280C84463E
:1032C0005043351C81466046654344434846000CE4
:1032D0008346724314195C44A24203D980225202ED
:1032E00093465D44220CAD184A461204120C240485
:1032F0004046A41862464A437143464360460096DE
:10330000464670438046100C84468844E04441455C
:1033100005D9802149028C460099614400910198A9
:1033200003998446614499429B415B4299460598C2
:10333000434684461204120C1B049B1863449C46AB
:10334000AB4683429B4140460A19CC44A242894184
:10335000E344CC45B6415C46000C80464942764287
:103360005B426418334398448C428941AB459B418E
:1033700049425B4219430D1C009B4544EE187602FE
:10338000E50D2E43B346049B56021E43731E9E4119
:103390005B46D20D324366021643DB010AD5012398
:1033A000334076081E435B46DB071E435B465B08E3
:1033B0009B465746634BFB18002B5ADD720709D01A
:1033C0000F223240042A05D0321DB242B641764265
:1033D000B344161C5A46D20106D55A465A4B1A40D7
:1033E00080239346DB00FB18584A934234DD0124C6
:1033F000029B00251C400026554B7DE680205B4645
:103400000003034208D0054206D105432D032D0BCE
:103410004C46161C4E4B6FE65D4605432D032D0BA7
:103420004B4B69E6504600F07FFC031C2033272BF2
:1034300000DCA6E65546083885400022ACE6281C8C
:1034400000F072FC021C2032272A00DC75E60838E6
:1034500085400026AB467DE65A46F60852071643DD
:103460005A4601245502029A5B052D0B5B0D144050
:1034700042E6384DED1B382D0ADD0124029B002564
:103480001C400026002337E6019B5746029391E734
:103490001F2D25DC304B321C9C466744BE405B46EA
:1034A000BB40371CEA407E1EB74113433B431E1C02
:1034B0005B46EB401D1C730709D00F233340042BE0
:1034C00005D0331DB342B6417642AD191E1C2B0206
:1034D00020D50124029B00251C40002601230BE679
:1034E0005A461E4BDB1BDA40131C202D1CD01C4AF5
:1034F00094465A466744BA40171C3E43721E964192
:103500001E4307230025334007D00F2300253340F7
:10351000042BD6D16B076D022D0B0124F6081E4338
:10352000029B1C400023E7E50027E6E780255B4679
:1035300001242D031D43019B2D0323401C1C2D0B37
:10354000034BD9E5FF030000FFFFFFFEFE0700006D
:10355000FF07000002FCFFFF1E040000E2FBFFFF6C
:103560003E040000F0B54D4644465F465646F0B472
:103570000E1C111C3203520A470F1743C5001A03D1
:103580005800DB0F9946520A4B0F83B01A43CB0009
:103590000193CF4B7400F60F640DB046400D984276
:1035A00000D1E8E00123494659400B1C9E4200D15E
:1035B000B1E0261A002E00DC1CE1002842D1131CC9
:1035C00001990B4300D0E6E06B0700D18EE00F239A
:1035D0002B40042B00D189E02A1DAA42AD41802353
:1035E000012641466D427F191B043B400E40151CCD
:1035F000002B00D183E0B64B01349C4200D116E190
:103600003A1CB44BED081A405007640552020543BA
:10361000120B640D002112030B0D1B056405120B28
:103620001A436308AC4CF60714401C43640064085A
:103630003443281C211C03B03CBC90469946A2464A
:10364000AB46F0BDA24B9C42BED080231B041A4364
:10365000382E00DD03E11F2E00DD3FE12020831B1B
:103660009946131C49468B409C46019B6046F3409B
:1036700003430198F2408840011C481E81410B43DE
:10368000EB1A9D4280411D1CBA1A4042171A3B0298
:1036900000D4A8E07A02560A002E00D1CAE0301CFD
:1036A00000F042FB031C083B1F2B00DDCBE028226F
:1036B000291C121AD1409E400A1C9D4032439C4254
:1036C00000DDC8E01C1B671C1F2F00DDEDE01F2381
:1036D000291C1C1B131CA540A340F9406C1EA541CE
:1036E000FA4019430D43171C00246DE7802301267F
:1036F00042461B043B401640002B00D07BE7744B36
:10370000ED0878070543FA089C423BD01203640594
:10371000120B640D7EE7231A9A46002B00DCA5E00D
:10372000002844D06A48844200D14DE7802000043C
:1037300002435346382B00DC1CE1019B1A43511E07
:103740008A41D1B200224919A94280410D1CD219E7
:10375000404217183B0246D55D4B01349C4200D1D4
:1037600069E101205B4A6B083A4028401843D507BD
:103770000543570828E7131C01990B4300D111E7B3
:103780004B4613E72B1C134351D080231B031A43D2
:103790001203120B3EE7013E002E00D080E0691AB2
:1037A0008D429B41BA1A5B42D71A0D1C6FE7101C61
:1037B000019B184300D107E701235B429C46E2448A
:1037C0005346002B00D002E1019BD2195919A9429E
:1037D0009B415B42D7180D1CBCE76346034300D1F5
:1037E00028E1071C65466B0700D0F0E6012643463A
:1037F0001E4084E7002E00D081E0601C4005400D93
:10380000012800DC07E10199681A84466545B64144
:10381000B81A7642861B300200D4A1E08C464D1BBC
:10382000AC458941D21B4942561A984634E70022DA
:103830000025EFE6281C00F077FA2030031C083B37
:103840001F2B00DC33E7021C283A95402A1C002578
:103850009C4200DC36E71F4FE41A1740B4E6019B98
:103860001A43511E8A41D3B2002209E7002B00D02F
:1038700001E1601C43055B0D012B00DCB0E0144B43
:10388000984200D11EE1019BD2195919A9429B41CE
:103890005B42D2184908D5070D435708041C93E62C
:1038A0000B4B9C4200D0D3E68EE6211C131C1F3923
:1038B000CB40191C202F00D18EE03F231C1BA240BF
:1038C00015436A1E954100270D4300248BE7C0462F
:1038D000FF070000FFFF7FFFFFFF0F80331C101C5E
:1038E000203BD840202E79D040239B1B9A40131CAC
:1038F000019A1343591E8B4100220343C0E6002C5A
:1039000053D0C74CA04200D1B0E080247142894618
:10391000240427434946382900DDCDE01F2900DD76
:1039200059E120243E1C611A8E408A46B046494621
:103930002E1CCE405146B4468D406446464649460C
:1039400026436C1EA541CF4035430199D71B8C46B9
:103950004D1BAC4592415242BF1A041C984696E654
:1039600063466546334300D096E6002600270024D0
:103970000025C4E61F2B61DC2020C31A9B46131CC4
:1039800059468B4051469946019BCB409C464B463D
:10399000604603439C465B46019999406346481E36
:1039A000814119435346DA40CDE63C1C2C435DD09F
:1039B000F1438946002955D10199D21B8C464D1BF4
:1039C000AC4589414942571A041C98465FE6944821
:1039D000844200D0ADE6F7E5002271E7002387E7D7
:1039E0003B1C2B43002C00D0DAE0002B00D113E16C
:1039F000131C01990B4300D1E6E54919A9429B41EB
:103A0000D2195B42D7183B0200D421E1854B0D1C33
:103A10001F40041CD8E5381C2843002C40D1002846
:103A200000D083E0101C0199084303D0171C0D1C23
:103A30009846C9E500260027002560E65046131C7D
:103A40002038C340181C5346202B00D1C1E040232E
:103A500051465B1A9A40019911434A1E9141002236
:103A6000014370E66E4CA04200D053E7171C019D45
:103A7000041C9846A8E5002C28D13C1C2C4300D1FE
:103A80008AE0DB439A46002B00D082E0019BD219EA
:103A90009C4665449D42894149425718041C59E699
:103AA00000285BD1101C0199084300D1A4E0171C29
:103AB0000D1C98465A4C87E53D436F1EBD410027BB
:103AC000EDB242E7041C0027002518E6544CA04242
:103AD00062D0534680245B429A46240427435346CF
:103AE000382B00DD8EE01F2B00DD9DE02024E31A43
:103AF0009B463B1C59468B40514699462B1CCB405C
:103B00009C464B46644623439C465B469D40634629
:103B10006C1EA541CF401D43019BBF189C466544C8
:103B20009D4292415242BF18041C13E6101C019999
:103B3000084300D148E5681A844685428041BE1A90
:103B40004042301A060200D447E68C464D1BAC4575
:103B50008941D21B4942571A984635E5101C0199F4
:103B6000084334D080247807ED08FF082403284355
:103B7000274208D0D608264205D1C90852070A4371
:103B8000101C371C9846FF00420F1743C500244CF9
:103B90001AE5234CA042A2D1171C019D041C13E579
:103BA000002B35D0131C01990B4310D080247807CB
:103BB000ED08FF08240328432742E4D0D30823421A
:103BC000E1D1C90852070A43101C1F1CDBE7144C43
:103BD000FAE400223FE74C463E1C203CE6404946C2
:103BE000341C202932D04026761AB7403D436F1E40
:103BF000BD4100272543A8E680270026FF03084C87
:103C000000257CE53D436F1EBD410027EDB283E7F3
:103C1000171C019D024CD7E4171C019DD4E4C0463B
:103C2000FF070000FFFF7FFF54463B1C203CE340A2
:103C30001C1C5346202B0DD0402351465B1A9F403D
:103C40003D436F1EBD410027254365E70027CDE7B3
:103C50000D1CC8E50027F3E70B0330B5134C1A0B16
:103C60004B00051C5B0DC90F0020A34210DD10485E
:103C700083420EDC80200F4C40030243E41A1F2CC9
:103C80000ADD0D48C31ADA40131C48424340581855
:103C900030BD0A4BC818FBE7281CE040084CA4467E
:103CA00063449A40131C0343EFE7C046FE03000041
:103CB0001D0400003304000013040000FFFFFF7F19
:103CC000EDFBFFFF10B5041E10D000F02DF8144AD4
:103CD000121A0A281ADC0B23211C1B1AD940153092
:103CE0000B03520584401B0B520D01E00022002300
:103CF00000211B03201C1C0B0B0D1B052343094C2F
:103D00001205234013435B00590810BD031C0B3BF5
:103D10009C40520523031B0B520D0024E8E7C046CC
:103D20001E040000FFFF0F801C2101231B0498428A
:103D300001D3000C10391B0A984201D3000A08393C
:103D40001B09984201D30009043902A2105C4018F3
:103D50007047C04604030202010101010000000097
:103D60000000000000000000000000000000101033
:103D7000101010100010000028282800000000007B
:103D8000000024247C24487C4848000038545038E3
:103D9000145454381000205458302854140800008B
:103DA000102828103448483400001010100000007B
:103DB00000000000081020202020202010082010E3
:103DC0000808080808081020103810280000000013
:103DD0000000000010107C10100000000000000027
:103DE000000000101010000000000038000000006B
:103DF0000000000000000010000008081010101063
:103E0000202000003844445444444438000010301A
:103E10005010101010100000384444040810207C8A
:103E20000000384404180404443800000818282806
:103E3000487C080800007C404078040444380000B6
:103E4000384440784444443800007C040810102072
:103E500020200000384444384444443800003844AA
:103E600044443C04443800000000100000000010EE
:103E700000000000001000000010101000000C30C6
:103E800040300C0000000000007C007C00000000BE
:103E90000000601804186000000038440408101086
:103EA0000010000038444C545C404038000010289A
:103EB0002828287C444400007844447844444478CA
:103EC00000003844404040404438000070484444BA
:103ED0004444487000007C40407C4040407C0000EE
:103EE0007C404078404040400000384440405C44C2
:103EF000443800004444447C4444444400003810A6
:103F00001010101010380000040404040404443895
:103F10000000444850605048484400004040404041
:103F20004040407C0000446C6C54444444440000D5
:103F300044646454544C4C44000038444444444465
:103F400044380000784444447840404000003844FD
:103F50004444444454380400784444447848484431
:103F60000000384440300804443800007C10101031
:103F700010101010000044444444444444380000ED
:103F80004444442828281010000044445454546CDD
:103F90002828000044282810102828440000444401
:103FA00028281010101000007C0408101020407CFD
:103FB00000001810101010101010101820201010F1
:103FC00010100808000030101010101010101030E1
:103FD000102828440000000000000000000000003D
:103FE000000000FE201000000000000000000000A3
:103FF00038443C444C3400004040586444446458C5
:104000000000000038444040443800000404344CB0
:1040100044444C340000000038447C4044380000E4
:104020000C107C101010101000000000344C4444A0
:104030004C34047840405864444444440000100028
:1040400070101010101000001000701010101010E0
:1040500010E040404850605048440000701010107C
:1040600010101010000000007854545454540000F4
:104070000000586444444444000000003844444470
:104080004438000000005864444464584040000034
:10409000344C44444C3404040000586440404040D4
:1040A0000000000038443008443800002020782008
:1040B0002020201800000000444444444C340000F8
:1040C0000000444428282810000000005454546C78
:1040D0002828000000004428101028440000000098
:1040E000444428281010106000007C081020407CF8
:1040F00000001810101020201010101810101010B0
:10410000101010101010301010100808101010307F
:10411000000000744C0000000000000007000000D8
:104120000A00000001000000643D000000000000E3
:10413000000000000000000000000000000000007F
:10414000000000000000000000000000000000006F
:104150000000000C000C000C000C000C000C000C0B
:10416000000C000C000C000C0000000C000C000007
:10417000000000000000001B001B001B001B001BB8
:10418000000000000000000000000000000000002F
:104190000000000000000000000080198019801954
:1041A0008019C07FC07F80190033C07FC07F00337B
:1041B0000033003300330000000000000000001E48
:1041C000003F807580650074003C001E000780057C
:1041D000806580658075003F001E000400040000BB
:1041E0000000007000D840D8C0D880D90073000605
:1041F000000C801BC036C066C046C00680030000AD
:10420000000000000000001E003F003300330033B8
:10421000001E000CC03CC066806380618063C03EAD
:10422000801C0000000000000000000C000C000CCE
:10423000000C000C00000000000000000000000066
:1042400000000000000000000000000080000001ED
:104250000003000600060004000C000C000C000C1B
:10426000000C000C000400060006000300018000A2
:10427000002000100018000C000C000400060006CE
:1042800000060006000600060004000C000C0018E2
:10429000001000200000000C002D003F001E003325
:1042A000000000000000000000000000000000000E
:1042B0000000000000000000000000000000000CF2
:1042C000000C000C000CC0FFC0FF000C000C000C28
:1042D000000C0000000000000000000000000000D2
:1042E00000000000000000000000000000000000CE
:1042F000000000000000000C000C00040004000896
:1043000000000000000000000000000000000000AD
:104310000000001E001E0000000000000000000061
:10432000000000000000000000000000000000008D
:104330000000000000000000000000000000000C71
:10434000000C000000000000000000030003000358
:104350000006000600060006000C000C000C000C15
:104360000018001800180000000000000000001EE7
:10437000003F0033806180618061806D806D80616D
:10438000806180610033003F001E000000000000DB
:1043900000000006000E001E003600260006000683
:1043A00000060006000600060006000600060000E3
:1043B000000000000000001E003F807380618061EB
:1043C000800100030006000C001800300060807FB0
:1043D000807F0000000000000000001C003E006321
:1043E00000630003000E000E000380018001806165
:1043F0008073003F001E0000000000000000000667
:10440000000E000E001E001E00160036003600666C
:10441000807F807F0006000600060000000000008C
:104420000000007F007F006000600060006E007F81
:1044300080638001800180618073003F001E000066
:10444000000000000000001E003F8033806100601B
:10445000006E007F80738061806180618033003FE7
:10446000001E0000000000000000807F807F8001AF
:104470000003000300060006000C000C000C0008FE
:104480000018001800180000000000000000001EC6
:10449000003F8063806180610021001E003F8061D9
:1044A000806180618061003F001E0000000000000C
:1044B0000000001E003F0073806180618061807396
:1044C000803F801D800180610073003F001E00005E
:1044D0000000000000000000000000000000000CD0
:1044E000000C000000000000000000000000000CB4
:1044F000000C0000000000000000000000000000B0
:1045000000000000000C000C000000000000000093
:104510000000000C000C0004000400080000000073
:104520000000000080008003000E003800600038AA
:10453000000E80038000000000000000000000006A
:1045400000000000000000000000807F807F00006D
:104550000000807F807F000000000000000000005D
:10456000000000000000000000000000004000709B
:10457000001C000780010007001C007000400000C4
:1045800000000000000000000000001F803FC0711C
:10459000C060C000C00180030007000E000C000CCA
:1045A0000000000C000C0000000000000000001ED5
:1045B000003F803180718063806F806D806D806F7F
:1045C000806700600032003E001C00000000000018
:1045D0000000000E000E001B001B001B001B8031A2
:1045E0008031803F803F8031C060C060C06000008B
:1045F000000000000000007C007E00630063006398
:104600000063007E007E0063806180618063007FC4
:10461000007E0000000000000000001E003F80310E
:104620008061006000600060006000600060806188
:104630008031003F001E0000000000000000007CF0
:10464000007F006380638061806180618061806140
:10465000806100630063007E007C000000000000B9
:104660000000807F807F0060006000600060007F4D
:10467000007F0060006000600060807F807F00003D
:10468000000000000000807F807F0060006000600C
:104690000060007F007F00600060006000600060DC
:1046A00000600000000000000000001E003F80319C
:1046B0008061006000600060806380638061806171
:1046C0008031803F001E000000000000000080617B
:1046D00080618061806180618061807F807F806196
:1046E0008061806180618061806100000000000065
:1046F0000000003F003F000C000C000C000C000C00
:10470000000C000C000C000C000C003F003F0000EF
:104710000000000000008001800180018001800114
:104720008001800180018001806180618073003F91
:10473000001E0000000000000000C06080610063F7
:1047400000660066006C0078007C0066006600630E
:1047500080618061C0600000000000000000006017
:104760000060006000600060006000600060006049
:10477000006000600060807F807F0000000000001B
:104780000000C071C071C07BC07AC06AC06AC06ED0
:10479000C064C060C060C060C060C060C060000035
:1047A000000000000000807180718079807980793C
:1047B000806D806D806D80658067806780678063B5
:1047C00080630000000000000000001E003F003376
:1047D00080618061806180618061806180618061D1
:1047E0000033003F001E0000000000000000007EBB
:1047F000007F80638061806180618063007F007ED4
:1048000000600060006000600060000000000000C8
:104810000000001E003F0033806180618061806184
:1048200080618061806580670033803F401E0000AA
:10483000000000000000007E007F806380618061D6
:104840008063007F007E006600630063806180619A
:10485000C0600000000000000000000E001F80315A
:10486000803100300038001E0007800380618061C5
:104870008031003F001E0000000000000000C0FF6B
:10488000C0FF000C000C000C000C000C000C000C15
:10489000000C000C000C000C000C000000000000DC
:1048A00000008061806180618061806180618061E1
:1048B00080618061806180618073003F001E000024
:1048C000000000000000C060C060C0608031803126
:1048D0008031001B001B001B001B000E000E000E91
:1048E00000040000000000000000C0C0C0C0C0C044
:1048F000C0C0C0C0C0CC804C804C805E8052805212
:104900008073806180610000000000000000C0C072
:10491000806080610033003B001E000C000C001E14
:10492000001F003B80718061C0C0000000000000DB
:104930000000C0C08061806100330033001E001E93
:10494000000C000C000C000C000C000C000C000013
:10495000000000000000803F803F80010003000352
:104960000006000C000C0018001800300060807F6A
:10497000807F000000000000000F000F000C000C02
:10498000000C000C000C000C000C000C000C000CC7
:10499000000C000C000C000C000F000F00000018B1
:1049A00000180018000C000C000C000C000600069B
:1049B00000060006000300030003000000000000E2
:1049C000001E001E00060006000600060006000687
:1049D00000060006000600060006000600060006A7
:1049E000001E001E0000000C000C001E0012003310
:1049F00000338061806100000000000000000000C2
:104A000000000000000000000000000000000000A6
:104A10000000000000000000000000000000000096
:104A20000000000000000000E0FF0000000000386F
:104A30000018000C00000000000000000000000052
:104A40000000000000000000000000000000000066
:104A500000000000000000000000001F803F806197
:104A60008001801F803F80618063807FC0380000AC
:104A70000000000000000060006000600060006E48
:104A8000007F807380618061806180618073007FBE
:104A9000006E0000000000000000000000000000A8
:104AA0000000001E003F8073806100600060806134
:104AB0008073003F001E0000000000000000800125
:104AC000800180018001801D803F80738061806152
:104AD000806180618073803F801D000000000000C5
:104AE00000000000000000000000001E003F0073F6
:104AF0008061807F807F00608071003F001E000029
:104B0000000000000000C007C00F000C000C807FF8
:104B1000807F000C000C000C000C000C000C000C42
:104B2000000C000000000000000000000000000079
:104B3000801D803F807380618061806180618073AF
:104B4000803F801D80018063007F003E0000006088
:104B5000006000600060006F807F80718061806114
:104B600080618061806180618061000000000000E0
:104B700000000006000600000000003E003E0006A7
:104B800000060006000600060006000600060000FB
:104B9000000000000006000600000000003E003E8D
:104BA00000060006000600060006000600060006D5
:104BB00000060046007E003C0000006000600060CF
:104BC0000060806100630066006C007C007600631A
:104BD00000638061C0600000000000000000003E33
:104BE000003E00060006000600060006000600065D
:104BF0000006000600060006000600000000000097
:104C00000000000000000000000080DDC0FFC0CEFA
:104C1000C0CCC0CCC0CCC0CCC0CCC0CCC0CC0000C0
:104C20000000000000000000000000000000006F15
:104C3000807F80718061806180618061806180613E
:104C40008061000000000000000000000000000083
:104C50000000001E003F8073806180618061806180
:104C60008073003F001E00000000000000000000F4
:104C700000000000006E007F8073806180618061B1
:104C800080618073007F006E0060006000600060E3
:104C90000000000000000000801D803F80738061E4
:104CA0008061806180618073803F801D8001800110
:104CB000800180010000000000000000000000678B
:104CC000803F0039003000300030003000300030CC
:104CD00000300000000000000000000000000000A4
:104CE0000000001E803F80610060007F803F8001E7
:104CF0008061007F001E0000000000000000000036
:104D0000000800180018007F007F00180018001825
:104D1000001800180018801F800F0000000000001D
:104D200000000000000000000000806180618061E0
:104D300080618061806180618063807F803D000050
:104D40000000000000000000000000000000C06043
:104D5000803180318031001B001B001B000E000ED3
:104D6000000600000000000000000000000000003D
:104D7000000080DD80DD80DD0055005500550077A6
:104D80000077002200220000000000000000000068
:104D9000000000000000806100330033001E000CA2
:104DA000000C001E00330033806100000000000092
:104DB000000000000000000080618061803100334D
:104DC0000033001B001B001B000E000E000E001C19
:104DD000007C007000000000000000000000C07FA8
:104DE000C07F800100030006000C00180030C07F67
:104DF000C07F00000000000080038007000600065E
:104E0000000600060006000E001C001C000E000636
:104E10000006000600060006800780030006000664
:104E20000006000600060006000600060006000652
:104E30000006000600060006000600060006000642
:104E40000038003C000C000C000C000C000C000EA4
:104E500000070007000E000C000C000C000C000CFA
:104E6000003C0038000000000000000000000000CE
:104E700000008038807F0047000000000000000034
:104E800000000000000000000B0000001200000005
:104E9000020000002C4100000000000000000000A3
:104EA0000000000000000000000000000000000002
:104EB00000000000000000000000000000000000F2
:104EC000000000000000000000000000E003E0031C
:104ED000E003E003E003E003E003E003C003C003FA
:104EE000C001C001C001C001C001000000000000FD
:104EF000E003E003E0030000000000000000000009
:104F00003C1E3C1E3C1E3C1E3C1E3C1E3C1E00002B
:104F10000000000000000000000000000000000091
:104F20000000000000000000000000000000000081
:104F300000000000CE01CE03DE039E039C039C070D
:104F4000FF3FFF7F3807380F780F780F780EFFFF8D
:104F5000FFFFF01EF01CE01CE03CE03DE0390000EB
:104F60000000000000000000FC03FE0FEE1FE01E2A
:104F7000E01EE01EE01EE01FE00FE007F003FC0172
:104F8000FE01FE01FE01FE01FE01FE01FE3DFC3FB1
:104F9000F00FE001E001000000000000033E07F711
:104FA0008FE78EE79EE3BCE3B8E7F8E7F0F7E03F72
:104FB000C001FF03FF07F307F30FF31EF33CF338C1
:104FC000F3787FF03FE000000000000000000000E8
:104FD000E007F80F780F781F781F781F780FF00F11
:104FE000E00F801FC37FC3FBE7F3F7F1F7F0FFF09B
:104FF0007FF03EF87F7CFF3FEF1F000000000000C5
:1050000000000000E003E003E003E003E003C0036E
:10501000C0010000000000000000000000000000CF
:105020000000000000000000000000000000000080
:1050300000000000000000003F007C00F001E001E3
:10504000C003C00780078007800F000F000F000F0C
:10505000000F000F000F800F80078007C007C003FC
:10506000E001F0017C003F000F000000007E001F07
:10507000C007C003E001F001F000F000F800780084
:1050800078007800780078007800F800F000F000F0
:10509000F001E001C003C007001F007E007800009F
:1050A000E003C003C001CE39FF3F7F3F2003700300
:1050B000F807780F3C1F38060000000000000000D1
:1050C00000000000000000000000000000000000E0
:1050D00000000000000000000000000000000000D0
:1050E000C001C001C001C001C001C001C001FFFF7B
:1050F000FFFFC001C001C001C001C001C00100002C
:10510000000000000000000000000000000000009F
:10511000000000000000000000000000000000008F
:1051200000000000000000000000E003E003E003D6
:10513000E003E001E001E001C001800300000000A5
:10514000000000000000000000000000000000005F
:105150000000FE3FFE3F00000000000000000000D5
:10516000000000000000000000000000000000003F
:10517000000000000000000000000000000000002F
:10518000000000000000000000000000000000001F
:105190000000E003E003E003E00300000000000083
:1051A000000000000F000F001E001E003C003C002D
:1051B00078007800F000F000E001E001C003C003D7
:1051C00080078007000F000F001E001E003C003CFF
:1051D0000078007800F00000F007F80F7C1F3E3EDA
:1051E0001E3C1F7C1F7C0F780F780F780F780F788C
:1051F0000F780F781F7C1F7C1E3C3E3E7C1FF80FF3
:10520000F00700000000000000000000F000F007C0
:10521000F03FF03FF001F001F001F001F001F0018A
:10522000F001F001F001F001F001F001F001F001F6
:10523000F001FF3FFF3F0000000000000000000001
:10524000E00FF83F7C3C3C003E003E003E003C004E
:105250003C007C00F800F001E003C0078007000F6D
:10526000001E003E003CFE3FFE3F0000000000002C
:1052700000000000F00FF81F7C1C3E003E003E00C6
:105280003C003C00F800F00FF80F7C003E001E00D0
:105290001E001E001E003E007C1CF81FE01F0000C8
:1052A00000000000000000007800F800F800F8019D
:1052B000F803F807F807780F781E781E783C78789E
:1052C0007878FFFFFFFF780078007800780078009A
:1052D000780000000000000000000000FC1FFC1F20
:1052E000FC1F001E001E001E001E001EE01FF81FF7
:1052F000FC007C003E003E001E003E003E003C00E4
:105300007C1CF81FE01F00000000000000000000EF
:10531000FC01FE078E0F001F001E003E003C003CFB
:10532000F83DFC3F3E7F1F7E0F3C0F3C0F3C0F3C87
:105330000F3E1F1E3E1FFC0FF00300000000000088
:1053400000000000FF3FFF3FFF3F0F001E001E0058
:105350003C0038007800F000F000E001E001C003FC
:10536000C0038007800F800F000F001F001F000088
:105370000000000000000000F807FC0F3E1F1E1E8A
:105380001E3E1E3E1E1E3C1FF80FF007F80FFC1EAF
:105390003E3E1F3C1F7C0F7C0F7C1F3C3E3FFC1F92
:1053A000F00700000000000000000000F007F80F08
:1053B0007C1E3E3C1E3C1F7C1F7C1F7C1F7C1F3CB8
:1053C0003F3EFF1FEF071F001E001E003E003C0077
:1053D000F838F03FE01F000000000000000000006F
:1053E000000000000000000000000000E003E003F7
:1053F000E003E003000000000000000000000000E7
:105400000000E003E003E003E00300000000000010
:10541000000000000000000000000000000000008C
:10542000E003E003E003E0030000000000000000F0
:10543000000000000000E003E003E003E003E001FF
:10544000E001E001C0038003000000000000000054
:105450000000000003000F003F00FC00F003C00F3D
:10546000003F00FE003FC00FF003FC003F000F00B4
:105470000300000000000000000000000000000029
:10548000000000000000000000000000000000001C
:10549000FFFFFFFF000000000000FFFFFFFF000014
:1054A00000000000000000000000000000000000FC
:1054B00000000000000000000000000000E000F814
:1054C000007E801FE007F8017E001F007E00F801CB
:1054D000E007801F007E00F800E0000000000000F0
:1054E00000000000F01FFC3F3E381F381F381E0030
:1054F0001E003C007800F000E001C003C003C007BC
:10550000C007000000000000C007C007C00700007F
:105510000000000000000000F803FE0F1E1F0F3EF9
:105520007F3CFF78EF79C773C7F38FF38FF38FF367
:105530009FF39FF3FF73FF7BF779003C1C1FFC0F69
:10554000F803000000000000000000000000000060
:105550000000E003E003F007F007F007780F780F92
:105560007C0E3C1E3C1E3E3CFE3FFF3F1F780F78EA
:105570000FF007F007F0000000000000000000003E
:10558000000000000000F83FFC3F3E3C1E3C1E3C7B
:105590001E3C3E3C7C3CF03FF83F7E3C1F3C1F3CA9
:1055A0000F3C0F3C1F3CFE3FF83F00000000000096
:1055B00000000000000000000000FF01FF07871F3F
:1055C000003E003C007C007800780078007800788D
:1055D000007C007C003E003F831FFF07FF010000AE
:1055E0000000000000000000000000000000F07F4C
:1055F000FC7F7E781F781F780F780F780F780F78F0
:105600000F780F780F780F781F781E787E78F87FE4
:10561000E07F00000000000000000000000000002B
:105620000000FF3FFF3F003E003E003E003E003EC8
:10563000003EFE3FFE3F003E003E003E003E003E7C
:10564000003EFF3FFF3F00000000000000000000A0
:10565000000000000000FF1FFF1F001E001E001EB4
:10566000001E001E001EFF1FFF1F001E001E001E4A
:10567000001E001E001E001E001E00000000000094
:1056800000000000000000000000FE03FF0F871F65
:10569000003E007C007C007800F800F87FF87FF87E
:1056A0000F780F7C0F7C0F3E8F1FFF0FFE03000053
:1056B00000000000000000000000000000001F7C4F
:1056C0001F7C1F7C1F7C1F7C1F7C1F7C1F7CFF7F1F
:1056D000FF7F1F7C1F7C1F7C1F7C1F7C1F7C1F7C0F
:1056E0001F7C00000000000000000000000000001F
:1056F0000000FF3FFF3FE003E003E003E003E003BF
:10570000E003E003E003E003E003E003E003E00381
:10571000E003FF3FFF3F000000000000000000002A
:10572000000000000000FC1FFC1F7C007C007C00CF
:105730007C007C007C007C007C007C007C007C0089
:1057400078007800F838F03FC03F0000000000000B
:10575000000000000000000000001F3C1E3C3C3C1C
:10576000783CF03CE03DE03FC03F803FC03FE03F41
:10577000F03DF03C783C7C3C3E3C1F3C0F3C000044
:105780000000000000000000000000000000003EDB
:10579000003E003E003E003E003E003E003E003E19
:1057A000003E003E003E003E003E003E003EFF3F09
:1057B000FF3F0000000000000000000000000000AB
:1057C00000001FF81FFC1FFC3FFE3FFE3FFE7FFF57
:1057D00077FF77FFF7F7E7F7E7F3E7F3C7F307F0AC
:1057E00007F007F007F000000000000000000000D4
:1057F0000000000000000F7C0F7C0F7E0F7F0F7FEA
:105800008F7F8F7FCF7FEF7BEF79FF79FF78FF78F6
:105810007F783F783F781F781F78000000000000F5
:1058200000000000000000000000F007FC1F3E3EEA
:105830001F7C0F780F780FF80FF80FF80FF80FF89C
:105840000FF80F780F781F7C3E3EFC1FF00700001A
:105850000000000000000000000000000000FC3F0D
:10586000FF3F1F3E0F3E0F3E0F3E0F3E1F3E3F3E8F
:10587000FC3FF03F003E003E003E003E003E003E4A
:10588000003E0000000000000000000000000000DA
:105890000000F007FC1F3E3E1F7C0F780F780FF8CA
:1058A0000FF80FF80FF80FF80FF80F780F781F7C2C
:1058B0003E3EFC1FF8077C003F000F000300000085
:1058C000000000000000F03FFC3F7E3C3E3C1E3CE0
:1058D0001E3C3E3C3C3CFC3CF03FE03FF03DF83C95
:1058E0007C3C3E3C1E3C1F3C0F3C00000000000086
:1058F00000000000000000000000FC07FE1F0E3E3C
:10590000003C003C003C003EC01FF80FFE037F003F
:105910001F000F000F001F203E3CFC3FF01F000047
:105920000000000000000000000000000000FFFF79
:10593000FFFFE003E003E003E003E003E003E00334
:10594000E003E003E003E003E003E003E003E0033F
:10595000E003000000000000000000000000000064
:1059600000000F7C0F7C0F7C0F7C0F7C0F7C0F7C6A
:105970000F7C0F7C0F7C0F7C0F7C0F7C1E3C1E3C31
:105980003E3EFC1FF0070000000000000000000089
:1059900000000000000007F007F007F80F780F7C08
:1059A0001E3C1E3C1E3E3C1E3C1F781F780FF80F0D
:1059B000F007F007F007E003E0030000000000003C
:1059C0000000000000000000000003E003F003F00E
:1059D00007F0E7F3E7F3E7F3E773F77BF77FFF7F82
:1059E0007F7F7F7F7E7F7E3F3E3E3E3E3E3E00008D
:1059F000000000000000000000000000000007F8A8
:105A00000F7C1E3E3E3E3C1FF80FF007E007E00310
:105A1000E003F007F80F7C0F7C1E3E3C1F780F78E8
:105A20000FF0000000000000000000000000000077
:105A3000000007F807780F7C1E3C1E3E3C1F780FC5
:105A4000F80FF007E003E003E003E003E003E00306
:105A5000E003E003E003000000000000000000009D
:105A6000000000000000FF7FFF7F0F001F003E00CE
:105A70007C00F800F000E001E003C007800F000F99
:105A8000001E003E007CFF7FFF7F00000000000042
:105A900000000000FF07800780078007800780075D
:105AA00080078007800780078007800780078007BE
:105AB00080078007800780078007800780078007AE
:105AC0008007FF07FF07000000780078003C003CDB
:105AD000001E001E000F000F80078007C003C003D8
