:1000000018040020C10000002501000025010000A7
:1000100000000000000000000000000000000000E0
:1000200000000000000000000000000025010000AA
:100030000000000000000000250100002501000074
:100040002501000025010000250100002501000018
:10005000B903000025010000250100002501000072
:1000600025010000250100002501000025010000F8
:1000700025010000250100002501000025010000E8
:1000800025010000250100002501000025010000D8
:1000900025010000250100002501000025010000C8
:1000A00025010000250100002501000025010000B8
:1000B00025010000250100002501000025010000A8
:1000C00080B582B000AF124B7B60124B3B6007E003
:1000D0003B681A1D3A607A68111D796012681A60CF
:1000E0003A680D4B9A42F3D30C4B3B6004E03B68FB
:1000F0001A1D3A6000221A603A68094B9A42F6D3F8
:1001000000F068FC00F0E2F9BD4602B080BDC046D8
:100110005C0B0000000000200C0000200C00002000
:100120001400002080B500AFFEE7C04680B582B065
:1001300000AF021CFB1D1A70064BFA1D1278111C31
:100140001F220A400121081C9040021C1A60BD4673
:1001500002B080BD00E100E080B584B000AF7860FF
:10016000094BFB6005E0FB685A1EFA60002B00DCBF
:1001700006E0064BDB687A681A407B689A42F2D147
:10018000BD4604B080BDC04690D0030000020050C0
:1001900080B582B000AF78600A4B0B4A126879686C
:1001A0004A435A60074B00229A60064B05221A60A8
:1001B000C046044B1A6880235B021340F9D0BD4649
:1001C00002B080BD10E000E00400002080B500AF68
:1001D000A023DA0580235B005921D150A023DA0542
:1001E00080235B001621D150A023DA0580235B0019
:1001F0008821D150A023DA0580235B00D358002B3F
:10020000E6D0BD4680BDC04680B500AFA023DA056C
:1002100080235B000021D150BD4680BD80B584B0F5
:1002200000AFF860B9607A60FB689A697B68190E64
:10023000BB68081C9840031C1A43FB689A61FB6862
:10024000DA697B681B02190ABB68081C9840031C0A
:100250001A43FB68DA61BD4604B080BD80B500AFCB
:10026000FFF7B4FF4A4B4A4A126804210A431A6056
:100270001020FFF771FF464B07221A61444B444A96
:10028000126A802149020A431A62414B404A1268AD
:1002900005210A431A603E4B3E4A1A621520FFF7B9
:1002A0005BFF3B4B1A221A61394B802252039A6042
:1002B000374B802292055A61A023DB05802252032E
:1002C000DA60A023DB050022DA60334B334A1A6080
:1002D000334B324A1A60334B32221A60324B324A65
:1002E000126803218A4301210A431A602E4B2E4AC9
:1002F00012680C218A4304210A431A602A4B2A4AB5
:10030000126830218A4310210A431A60264B264A7C
:100310001268C0218A4340210A431A60224B224AB4
:100320001168224A0A40802149000A431A601E4B84
:100330001D4A11681E4A0A408021C9000A431A60FA
:100340001C4B1C4A126830218A431A60194B194A07
:100350001268C0218A431A60164A80235B02101C6F
:1003600002211A1CFFF75AFF124A80235B02101C5D
:1003700003211A1CFFF752FF0420FFF7D7FEA0232A
:10038000DB05802252009A63FFF73EFFBD4680BD29
:1003900000020050174200000800002080F0FA021E
:1003A0000000002004000020C0400050FFFCFFFFC0
:1003B000FFF3FFFF0040005080B500AF6420FFF75F
:1003C000E7FE194B1B68DBB2DB18DAB2174B1B6870
:1003D000DBB21343DAB2164B1B789B00DBB213433C
:1003E000DAB2134B1A70134B04221A62114B082213
:1003F0001A620F4B1B781A1C0F2313400E4AD35C52
:100400005BB25A1C02D0012B07D00BE00B4B1B68D0
:1004100001225242101C984704E0084B1B6801203F
:100420009847C046BD4680BD0C420050084200506F
:100430000C000020004000503C0B00001000002089
:1004400080B582B000AF78600B4B7A681A600B4BB6
:100450001B68DBB2DB18DAB2094B1B68DBB2134353
:10046000DAB2084B1B789B00DBB21343DAB2054BC0
:100470001A70BD4602B080BD100000200C42005032
:10048000084200500C00002080B584B000AF021C70
:10049000FB1D1A700C4B1B69FB60FB1D1B785BB2CC
:1004A000FA68D318FB60FB68002B0ADBFB68FA2BA9
:1004B00007DC054BFA681A61034B1B69181C00F036
:1004C0007BF8BD4604B080BD0000044080B500AF9D
:1004D000FFF7C4FE1B4B181CFFF7B2FF00F038F803
:1004E000194B181C00F058F8184B184A926808214C
:1004F0000A439A60154B154A1268FF218A4301216D
:100500000A431A60114B114A526807218A43042199
:100510000A435A600D4B7D221A610C4BFA22DA60B5
:100520000A4B0A4AD26F01210A43DA67074B074A8E
:10053000926801210A439A60044B1B69181C00F061
:100540003BF8FEE78904000010270000000004408B
:1005500080B500AF00F0DAF80B20002100F0E8F9D8
:100560000A4B181C00F01EF90020012100F0E0F9F0
:10057000074B181C00F016F90D20012100F0D8F9E6
:10058000044B181C00F00EF9BD4680BD4C0B00005A
:10059000500B0000580B000080B584B002AF7860AB
:1005A0007B6800220092181C09210022052300F01C
:1005B00019F9BD4602B080BD80B586B002AF786043
:1005C0007B689B00FB60FB6801220092181C0B21DA
:1005D0000122052300F006F9BD4604B080BDC046E7
:1005E00080B582B000AF78600A4B0B4A1268796818
:1005F0004A435A60074B00229A60064B05221A6054
:10060000C046044B1A6880235B021340F9D0BD46F4
:1006100002B080BD10E000E00400002080B582B090
:1006200000AF0A1CFB1D011C1970BB1D1A70314B59
:10063000FA1D12781A60304B01221A602F4BBA1D36
:100640001278D209D2B2111C01220A401A602C4B36
:10065000BA1D12789209D2B2111C01220A401A6006
:10066000284BBA1D12785209D2B2111C01220A403D
:100670001A60254BBA1D12781209D2B2111C012240
:100680000A401A601C4B00221A60FA23DB00181C77
:10069000FFF7A6FF184B01221A60184BBA1D1278FB
:1006A000D208D2B2111C01220A401A60144BBA1DA2
:1006B00012789208D2B2111C01220A401A60114B22
:1006C000BA1D12785208D2B2111C01220A401A60D7
:1006D0000D4BBA1D117801220A401A60FA23DB0083
:1006E000181CFFF77DFF044B00221A60BD4602B0C4
:1006F00080BDC04674420050704200506C420050B1
:1007000068420050644200506042005080B500AF23
:100710001D4B00221A601D4B00221A601C4B002248
:100720001A601C4B00221A601B4B00221A601B4BE4
:1007300000221A601A4B181CFFF752FF00202821D4
:10074000FFF76CFFFA23DB00181CFFF749FF0020BE
:100750000C21FFF763FFFA23DB00181CFFF740FFB3
:1007600000200121FFF75AFFFA23DB00181CFFF7D6
:1007700037FF00200621FFF751FFFA23DB00181C8A
:10078000FFF72EFFBD4680BD704200506042005012
:1007900064420050684200506C4200507442005065
:1007A000204E000080B584B000AF78600023FB606D
:1007B0000FE0FA23DB00181CFFF712FFFB687A68D2
:1007C000D3181B780120191CFFF728FFFB680133A1
:1007D000FB60FB687A68D3181B78002BE9D1BD4613
:1007E00004B080BD80B584B000AF7860081C111CD7
:1007F0001A1CFB1C1870BB1C19707B1C1A703B1C4C
:100800000F33FA1C12781A707B68002B12D13B1C34
:100810000F331A78BB1C1B78101C191C00F088F8C9
:10082000FA23DB00181CFFF7DBFE01203021FFF765
:10083000F5FE79E051E0FB1C1A783B1C0F331B7866
:10084000D21A3B1C18331B789A421DD13B1C18331B
:100850001B78002B18D03B1C0F331A78BB1C1B785D
:10086000101C191C00F064F8FA23DB00181CFFF7B9
:10087000B7FE01202E21FFF7D1FE3B1C0F331A7863
:100880003B1C0F33013A1A703B1C0F331A78BB1C08
:100890001B78101C191C00F04BF8FA23DB00181C05
:1008A000FFF79EFE7B68181C0A2100F033F90B1C31
:1008B000DBB23033DBB20120191CFFF7AFFE7B68DF
:1008C000181C0A2100F0E2F8031C7B603B1C0F336C
:1008D0001A783B1C0F33013A1A707B68002BAAD19F
:1008E00018E03B1C0F331A78BB1C1B78101C191C1A
:1008F00000F01EF8FA23DB00181CFFF771FE012040
:100900002021FFF78BFE3B1C0F331A783B1C0F3363
:10091000013A1A70FB1C1A783B1C0F331B78D21A51
:100920007B1C1B789A42DCDBBD4604B080BDC04610
:1009300080B584B000AF0A1CFB1D011C1970BB1DE3
:100940001A703B1C0F3300221A70BB1D1B789B01D1
:10095000D9B23B1C0F33FA1D12788A181A70FA2389
:10096000DB00181CFFF73CFE3B1C0F331B7880227A
:1009700052421343DBB20020191CFFF74FFEBD4665
:1009800004B080BD80B500AFA023DA0580235B00F2
:100990005921D150A023DA0580235B001621D150C4
:1009A000A023DA0580235B008821D150A023DA053B
:1009B00080235B00D358002BE6D0BD4680BDC046E7
:1009C00080B500AFA023DA0580235B000021D15061
:1009D000BD4680BD80B584B000AF264B00221A60B2
:1009E0003B1C0B3300221A70234B1A690723134058
:1009F0007B607B68002B15D11F4B204A1A62204B6D
:100A0000FB6005E0FB685A1EFA60002B00DC04E086
:100A1000194BDA6804231340F4D03B1C0B3301223A
:100A20001A7017E07B68072B14D1134B154A1A6212
:100A3000154BFB6005E0FB685A1EFA60002B00DCDA
:100A400004E00D4BDA6804231340F4D03B1C0B3355
:100A500001221A703B1C0B331B785BB2002B06D0B3
:100A6000FFF790FF044B02221A61FFF7A9FFBD4672
:100A700004B080BD080000200002005017420000B2
:100A8000E02E00003956080066560000002934D0D8
:100A90000123002210B488422CD301242407A14250
:100AA00004D2814202D209011B01F8E7E400A1420D
:100AB00004D2814202D249005B00F8E7884201D3A8
:100AC000401A1A434C08A04202D3001B5C08224380
:100AD0008C08A04202D3001B9C082243CC08A042F1
:100AE00002D3001BDC082243002803D01B0901D0DD
:100AF0000909E3E7101C10BC7047002801D0002052
:100B0000C04307B4024802A14018029003BDC0468A
:100B1000190000000029F0D003B5FFF7B9FF0EBCA3
:100B20004243891A1847C0467047C046001BB700A9
:100B300010270000000000000080510100FF0100AC
:100B4000010000FFFF0000010001FF0072706D0056
:0C0B5000647574793A0000002500000074
:0C0B5C0080F0FA023200000080F0FA0283
:00000001FF
