:10000000D8040020C10000002501000025010000E7
:1000100000000000000000000000000000000000E0
:1000200000000000000000000000000025010000AA
:100030000000000000000000250100002501000074
:100040002501000025010000250100002501000018
:10005000150B000025010000D50400001D0500005F
:100060002501000025010000A50900002501000070
:1000700025010000250100002501000025010000E8
:1000800025010000250100002501000025010000D8
:1000900025010000250100002501000025010000C8
:1000A00025010000250100002501000025010000B8
:1000B00025010000250100002501000025010000A8
:1000C00080B582B000AF124B7B60124B3B6007E003
:1000D0003B681A1D3A607A68111D796012681A60CF
:1000E0003A680D4B9A42F3D30C4B3B6004E03B68FB
:1000F0001A1D3A6000221A603A68094B9A42F6D3F8
:1001000001F01EF900F016FEBD4602B080BDC046EB
:100110000C340000000000200C0000200C00002027
:10012000D400002080B500AFFEE7C04680B582B0A5
:1001300000AF021CFB1D1A70064BFA1D1278111C31
:100140001F220A40012191400A1C1A60BD4602B0DC
:1001500080BDC04600E100E080B584B000AF7860AB
:100160007B681B78032B01D8B34B00E0B34BBB601B
:100170000F23FB187A6812781A700F23FB181B786C
:10018000042B06D90F23FB180F22BA181278043A51
:100190001A707B681B78002B03D07B681B78012BBF
:1001A0001AD1A74B1B78002B16D1A64BA54A9268F3
:1001B000802149030A439A60A24BA24A5269A2498C
:1001C0000A405A619F4B9F4A5269802189050A4320
:1001D0005A619B4B01221A707B681B78022B03D05B
:1001E0007B681B78032B1AD1984B1B78002B16D1F8
:1001F000944B944A9268802189030A439A60914BF8
:10020000904A5269920092085A618E4B8D4A526907
:10021000802109060A435A618C4B01221A707B68BF
:100220001B78042B03D07B681B78052B19D1884BD6
:100230001B78002B15D1834B824A92688021C90319
:100240000A439A607F4B7F4AD26930218A43DA6140
:100250007C4B7C4AD26920210A43DA617C4B012223
:100260001A707B681B78062B03D07B681B78072BE2
:1002700019D1784B1B78002B15D1724B714A9268BB
:10028000802109040A439A606E4B6E4AD269C021EC
:100290008A43DA616B4B6B4AD26980210A43DA6187
:1002A0006C4B01221A707B681B78032B0AD86A4BAF
:1002B0001B78002B10D10620FFF738FF664B012278
:1002C0001A7009E0654B1B78002B05D10720FFF75A
:1002D0002DFF624B01221A70BB689A680F23FB182E
:1002E0001B78DB00082199400B1C1A43BB689A60FD
:1002F000BB681B680F22BA1812785208D2B2D2001B
:10030000FF2191400A1CD24313407A685278111C95
:100310000F22BA1812785208D2B2D20091400A1CA9
:100320001A43BB681A60BB685B680F22BA18127860
:100330009200072191400A1CD24313407A689278B8
:10034000111C0F22BA181278920091400A1C1A430D
:10035000BB685A60BB681033191C0F23FB181A784E
:10036000131C5B009B189B00CB181A1C7B685B68F6
:100370001360BB680C33191C0F23FB181A78131C6D
:100380005B009B189B00CB181A1C7B689B68136052
:10039000BB68DA6F0F23FB181B78012199400B1CF7
:1003A0001A43BB68DA677B681B7B012B02D0022BE8
:1003B0000ED01AE0A023DB05A022D205916B7A684B
:1003C0001278083201209040021C0A439A630CE024
:1003D000A023DB05A022D205116C7A681278101CCC
:1003E000012282400A431A64C0467B681B69002BC5
:1003F00012D0BB681A6C0F23FB181B78012199409F
:100400000B1C1A43BB681A647B681B781A1C7B6838
:100410001969134B9200D150BB689A680F23FB18DF
:100420001B78DB00012199400B1C1A43BB689A60C2
:10043000BD4604B080BDC04600000440000014402A
:100440000E00002000020050FFFFFFCF0F00002031
:1004500010000020110000200C0000200D000020E2
:100460006800002080B584B000AF786039600F2349
:10047000FB187A6812781A707B681B78032B01D8F6
:10048000124B00E0124BBB600F23FB181B78042BB0
:1004900006D90F23FB180F22BA181278043A1A70E3
:1004A0007B683A685A60BB681033191C0F23FB182D
:1004B0001A78131C5B009B189B00CB181A1C7B68D6
:1004C0005B681360BD4604B080BDC04600000440B8
:1004D0000000144080B582B000AF00237B6013E0C1
:1004E0000C4B01217A6891400A1C5A640A4B7A68C5
:1004F0009200D358002B04D0074B7A689200D3584F
:1005000098477B6801337B607B68032BE8DDBD4641
:1005100002B080BD000004406800002080B582B0B9
:1005200000AF04237B6014E00D4B7A68043A01218C
:1005300091400A1C5A640B4B7A689200D358002BE6
:1005400004D0084B7A689200D35898477B680133EF
:100550007B607B68072BE7DDBD4602B080BDC046EF
:10056000000014406800002080B582B000AF021C7B
:10057000FB1D1A70064BFA1D1278111C1F220A402F
:10058000012191400A1C1A60BD4602B080BDC046E0
:1005900000E100E0B0B582B000AF021C3960FB1D85
:1005A0001A70FB1D1B787F2B2FD92D4CFB1D1B7840
:1005B0001A1C0F231340083B9908294AFB1D1B787E
:1005C000181C0F230340083B9B0806339B00D318DD
:1005D0005B68FA1D1278101C03220240D200101C26
:1005E000FF228240D2431A403B689B01FF20034018
:1005F000F81D0078051C03202840C00083401A43E2
:100600008B1D9B00E3185A6026E0164CFB1D1B78DF
:100610005BB29B081349FA1D127852B29208C0329D
:1006200092005258F91D0978081C03210140C900A5
:10063000081CFF218140C94311403A689201FF2004
:100640000240F81D0078051C03202840C0008240AD
:100650000A43C0339B001A51BD4602B0B0BDC0462C
:1006600000ED00E000E100E080B584B000AF78600C
:10067000094BFB6005E0FB685A1EFA60002B00DCAA
:1006800006E0064BDB687A681A407B689A42F2D132
:10069000BD4604B080BDC04690D0030000020050AB
:1006A00080B582B000AF78600A4A0B4B1B6879684E
:1006B0004B435360074B00229A60064B05221A6099
:1006C000C046044B1A6880235B021340F9D0BD4634
:1006D00002B080BD10E000E00400002080B500AF53
:1006E000A023DA0580235B005921D150A023DA052D
:1006F00080235B001621D150A023DA0580235B0004
:100700008821D150A023DA0580235B00D358002B29
:10071000E6D0BD4680BDC04680B500AFA023DA0557
:1007200080235B000021D150BD4680BD80B584B0E0
:1007300000AFF860B9607A60FB689A697B68190E4F
:10074000BB6899400B1C1A43FB689A61FB68DA6925
:100750007B681B02190ABB6899400B1C1A43FB6893
:10076000DA61BD4604B080BD80B500AFFFF7B6FFCB
:10077000504B504A126801210A431A604D4B4E4AB1
:100780001A620520FFF770FF4A4B1A221A61494B83
:100790004A4A9A60474B4A4A5A614A4B4A4A1A6047
:1007A0004A4B494A1A604A4B32221A60494B494A1D
:1007B000126803218A4301210A431A60454B454AC6
:1007C00012680C218A4304210A431A60414B414AB2
:1007D000126830218A4310210A431A603D4B3D4A7A
:1007E0001268C0218A4340210A431A60394B394AB2
:1007F000126839490A40802149000A431A60354B82
:10080000344A126835490A408021C9000A431A60F7
:10081000334B334A126803218A4301210A431A6089
:100820002F4B2F4A12680C218A4304210A431A6075
:100830002C4B2C4A126830218A431A60294B294AD2
:100840001268C0218A431A60264A80235B02101C6A
:1008500002211A1CFFF76AFF224A80235B02101C48
:1008600003211A1CFFF762FF0A200021FFF792FE06
:1008700001235B42181C0121FFF78CFE042002219A
:10088000FFF788FE06200321FFF784FE0420FFF710
:100890006BFE0A20FFF768FEA023DB0580225200D2
:1008A0001A64A023DB05F02212025A63FFF734FF1B
:1008B000BD4680BD0002005017420000101000002D
:1008C000100002000800002080F0FA020000002062
:1008D00004000020C0400050FFFCFFFFFFF3FFFFBB
:1008E000404000500040005080B582B000AF0D4B3A
:1008F00000221A700C4B00221A600C4B00221A6066
:1009000000237B6007E00A4B7A6892000021D150F7
:100910007B6801337B607B680C2BF4DDBD4602B045
:1009200080BDC04628000020240000202C000020AC
:100930003000002080B582B000AF7860154B1A6897
:100940007B68D218134B1A60134B1A68134B920032
:100950007968D150104B1B680C2B03D00E4B1B68D1
:100960005A1C00E000220C4B1A600B4B1A680B4B10
:100970009200D258074B1B689A1A064B1A60064B16
:100980001B68002B02D1064B01221A70BD4602B033
:1009900080BDC0462C000020240000203000002034
:1009A0002800002080B582B000AF394B9B6801223F
:1009B000134021D0374B1B68374A93420BD8374B33
:1009C0001B78DBB2002B06D1324B1B68802252040D
:1009D0009A18304B1A60314B00221A702C4B0122AE
:1009E0009A602C4B1A6880239B049A4204D9FFF723
:1009F0007BFF284B00221A60254B9B690122134084
:100A000043D0234B1B691B021B0A7B60244B1A68D3
:100A10007B689A420DD91F4B1B68002B09D11D4BD7
:100A20001B68802252049A181A4B1A601B4B012231
:100A30001A70184B1A681B4B1A60164B00221A606A
:100A4000184B1A687B68D218164B1A60144B1A6838
:100A5000144B1B689A1A134B1A60114B7A681A6070
:100A6000104B1A6880235B049A4206D90D4B1B6811
:100A7000FF2212069A180B4B1A600A4B1B68181CAF
:100A8000FFF758FF024B01229A61BD4602B080BDBC
:100A9000000011401C000020FEFFFF7E64000020CB
:100AA000180000202000002080B582B000AF144B59
:100AB0001B78DBB2002B0CD0124B1B68002B08D02C
:100AC000104B1B681048191C01F05CF8031C7B607C
:100AD00001E000237B607B68181C00F0C7F90B4B1A
:100AE0001B78002B09D00A4B1B683B60074B002288
:100AF0001A703B68181C00F0DBF9BD4602B080BDDF
:100B0000280000202C000020005ED0B29C000020B5
:100B1000A000002080B500AFC820FFF7C1FD194B31
:100B20001B68DBB2DB18DAB2174B1B68DBB213436E
:100B3000DAB2164B1B789B00DBB21343DAB2134BCD
:100B40001A70134B04221A62114B08221A620F4BBF
:100B50001B781A1C0F2313400E4AD35C5BB25A1C3D
:100B600002D0012B07D00BE00B4B1B680122524235
:100B7000101C984704E0084B1B6801209847C046AA
:100B8000BD4680BD0C4200500842005014000020B9
:100B900000400050CC330000CC00002080B582B073
:100BA00000AF78600B4B7A681A600B4B1B68DBB2A6
:100BB000DB18DAB2094B1B68DBB21343DAB2084B1D
:100BC0001B789B00DBB21343DAB2054B1A70BD46AB
:100BD00002B080BDCC0000200C4200500842005002
:100BE0001400002080B584B000AF021CFB1D1A70F9
:100BF0000E4B1B68FB60FB1D1B785BB2FA68D318B9
:100C0000FB60FB68002B0EDBFB68F92B0BDCFB6841
:100C1000074A101C191CFFF725FCFA68034B1A60E1
:100C2000044B01221A70BD4604B080BDA000002014
:100C3000A40000209C00002080B500AF0A4B802259
:100C4000D2041A60084B00225A60074B074A1A6008
:100C5000054B2A225A61044B01229A61024B012260
:100C60009A60BD4680BDC04600001140000001688A
:100C700080B500AF0C4B02221A700B4B09225A7040
:100C8000094B04229A70084BF422FF325A60064B3B
:100C9000064A9A60044B01221A73034B181CFFF793
:100CA0005BFABD4680BDC046B8000020E7030000E7
:100CB00080B500AF0B4B00221A700A4B01225A700C
:100CC000084B04229A70074B00225A60054BF92208
:100CD0009A60044B01221A73024B181CFFF73CFA6E
:100CE000BD4680BDA400002080B500AF0D4B03229F
:100CF0001A700C4BFF225A700A4B03229A70094B50
:100D0000094A5A60074B094A9A60064B00221A7337
:100D1000044B074A1A61034B181CFFF71DFABD4626
:100D200080BDC04688000020E1040000C309000027
:100D3000A90A000080B582B002AFFFF715FD00F0F0
:100D400037F8002000F040F8124B00221A60FFF73D
:100D5000CBFD114B181CFFF721FFFFF7A9FF0F4B2D
:100D600000221A600E4B01221A70FFF7BDFFFFF739
:100D70007FFFFFF761FF00F007FC0A490A4A0B4BAF
:100D8000009300230193081C111C0A220A2300F07F
:100D9000CFFEFEE71C000020E50B0000A0000020B5
:100DA0009C000020BC330000DC330000FFFF00008B
:100DB00080B500AF00F07AF9024B00221A70BD46F0
:100DC00080BDC046D100002080B582B000AF021CBB
:100DD000FB1D1A701F4BFA1D12781A70FB1D1B7831
:100DE000002B02D0012B19D031E00B20002100F0A4
:100DF00059FA194B181C00F07BF90020012100F072
:100E000051FA164B181C00F073F90A20012100F06A
:100E100049FA134B181C00F06BF918E00020002170
:100E200000F040FA0F4B181C00F062F9002001217D
:100E300000F038FA094B181C00F05AF91420002170
:100E400000F030FA084B181C00F052F9C046BD46BD
:100E500002B080BDD0000020E4330000E833000081
:100E6000F0330000F43300000434000080B584B097
:100E700002AF78600C4B1B78002B12D10B4B1B7808
:100E8000002B0ED1084B01221A707A6800230093C0
:100E9000101C09210022082300F046F9024B002211
:100EA0001A70BD4602B080BDD1000020D0000020E5
:100EB00080B586B002AF78600E4B1B78002B16D140
:100EC0000D4B1B78002B12D17B6801339B00FB601C
:100ED000084B01221A70FA6801230093101C0921A3
:100EE0000122052300F020F9024B00221A70BD46B2
:100EF00004B080BDD1000020D000002080B582B0B9
:100F000000AF78600A4A0B4B1B6879684B4353600B
:100F1000074B00229A60064B05221A60C046044B1C
:100F20001A6880235B021340F9D0BD4602B080BD31
:100F300010E000E00400002080B500AF094B002263
:100F40001A606420FFF7DAFF064B01221A60642062
:100F5000FFF7D4FF034B00221A606420FFF7CEFF97
:100F6000BD4680BD7042005080B500AF094B0022E5
:100F70001A60094B00221A60084B00221A60084BC5
:100F800000221A60074B00221A60074B00221A60E9
:100F9000BD4680BD74420050704200506C4200500B
:100FA00068420050644200506042005080B582B0F8
:100FB00000AF021CFB1D1A70BB1D0A1C1A70FFF744
:100FC000D3FF2A4BBA1D1278D209D2B2111C0122CA
:100FD0000A401A60264BBA1D12789209D2B2111C2F
:100FE00001220A401A60234BBA1D12785209D2B26C
:100FF000111C01220A401A601F4BBA1D12781209F7
:10100000D2B2111C01220A401A601C4BFA1D127840
:101010001A60FFF791FF154BBA1D1278D208D2B2B1
:10102000111C01220A401A60114BBA1D1278920855
:10103000D2B2111C01220A401A600E4BBA1D12785E
:101040005208D2B2111C01220A401A600A4BBA1D82
:10105000127801210A401A60084BFA1D12781A60B2
:10106000FFF76AFFBD4602B080BDC0466C4200502B
:101070006842005064420050604200507442005088
:1010800080B500AF00200121FFF790FFFA23DB00BD
:10109000181CFFF733FF00200221FFF787FFFA2318
:1010A000DB00181CFFF72AFFBD4680BD80B500AFEE
:1010B000FFF75AFF0C4B181CFFF720FF0B4B0122C8
:1010C0001A60FFF739FF00202821FFF76FFF00208B
:1010D0000C21FFF76BFF00200621FFF767FFFFF7EA
:1010E000CFFFBD4680BDC046204E00006442005088
:1010F00080B584B000AF78600023FB600AE0FB6835
:101100007A68D3181B780120191CFFF74FFFFB6882
:101110000133FB60FB687A68D3181B78002BEED193
:10112000BD4604B080BDC04690B585B000AF7860C4
:101130000C1C101C191CFB1C221C1A70BB1C021C52
:101140001A707B1C0A1C1A700F23FB18FA1C1278E9
:101150001A700F23FB181A78BB1C1B78101C191C63
:1011600000F0A0F800200421FFF720FF7B68002B8F
:101170000BD101203021FFF719FF0F23FB181A783C
:101180000F23FB18013A1A706FE05AE0FB1C1A7823
:101190000F23FB181B78D21A2023FB181B789A42C6
:1011A0000FD12023FB181B78002B0AD001202E2101
:1011B000FFF7FCFE0F23FB181A780F23FB18013AE8
:1011C0001A707B68002B14D07B68181C0A2100F071
:1011D0005FFD0B1CDBB23033DBB20120191CFFF7C3
:1011E000E5FE7B68181C0A2100F0CCFC031C7B6028
:1011F00003E001203021FFF7D9FEFB1C1A780F23F2
:10120000FB181B78D21A7B1C1B789A4212DD0F2325
:10121000FB18FA1C12781A700F23FB181A78BB1CE3
:101220001B78101C191C00F03DF801202021FFF74D
:10123000BDFE1AE00F23FB181A780F23FB18013AA2
:101240001A707B68002BA1D12023FB181B78002B80
:101250000BD00F23FB181A782023FB181B78D31808
:101260005A1CFB1C1B789A4290DC0AE001202021CA
:10127000FFF79CFE0F23FB181A780F23FB18013A87
:101280001A70FB1C1A780F23FB181B78D21A7B1CD0
:101290001B789A42EADD00200621FFF787FEBD4653
:1012A00005B090BD80B584B000AF021CFB1D1A7064
:1012B000BB1D0A1C1A700F23FB1800221A70BB1DDD
:1012C0001B789B01D9B20F23FB18FA1D12788A18DC
:1012D0001A700F23FB181B78802252421343DBB293
:1012E0000020191CFFF762FEBD4604B080BDC04659
:1012F00080B500AFA023DA0580235B005921D150CF
:10130000A023DA0580235B001621D150A023DA0543
:1013100080235B008821D150A023DA0580235B0065
:10132000D358002BE6D0BD4680BDC04680B500AF87
:10133000A023DA0580235B000021D150BD4680BD8B
:1013400080B584B000AF264B00221A600B23FB1837
:1013500000221A70234B1B69072213407B607B68B5
:10136000002B15D11F4B204A1A62204BFB6005E071
:10137000FB685A1EFA60002B00DC04E0194BDB68A6
:1013800004221340F4D00B23FB1801221A7017E03B
:101390007B68072B14D1134B154A1A62154BFB605F
:1013A00005E0FB685A1EFA60002B00DC04E00D4BE0
:1013B000DB6804221340F4D00B23FB1801221A70BF
:1013C0000B23FB181B785BB2002B06D0FFF790FFB6
:1013D000044B02221A61FFF7A9FFBD4604B080BD8D
:1013E000080000200002005017420000E02E00001C
:1013F000395608006656000080B582B000AF7860AC
:101400000A4A0B4B1B6879684B435360074B002219
:101410009A60064B05221A60C046044B1A68802366
:101420005B021340F9D0BD4602B080BD10E000E081
:101430000400002080B582B000AF7860081C111C49
:10144000FB1C021C1A70BB1C0A1C1A70264B1B6862
:10145000F8229343FA1C1278202A03D0FA1C12783F
:10146000D20000E00022934220D0C0461E4B1B68F1
:1014700001221340FAD11D4B1A68BB1C1B789A42FB
:1014800003D01A4BBA1C12781A60174B164A12680E
:10149000F8218A43F91C0978202903D0F91C09781E
:1014A000C90000E000210A431A600FE00F4B1A68E0
:1014B000BB1C1B789A4209D0C0460B4B1B6801220B
:1014C0001340FAD1094BBA1C12781A60C046064B79
:1014D0001A6880231B051340F9D1034B7A681A62FE
:1014E000BD4602B080BDC04600000340204200500F
:1014F00080B582B000AF7860C046064B1A68802382
:101500001B051340F9D1034B7A681A62BD4602B03D
:1015100080BDC0460000034080B582B000AF021C11
:10152000FB1D1A70C0460C4B1B6801221340FAD1F8
:10153000094B094A1268F8218A43F91D09782029C4
:1015400003D0F91D0978C90000E000210A431A60A0
:10155000BD4602B080BDC0460000034080B500AF6C
:10156000084B00221A60FA239B00181CFFF744FF67
:10157000044B01221A60FA239B00181CFFF73CFF62
:10158000BD4680BD2442005080B500AFFB4BFC4AF5
:101590001A60FA4B09229A60F84BF84AD26B802104
:1015A00009060A43DA63F54BF44A5268FF218A437D
:1015B00001210A435A60F34B01221A60FFF7CEFF64
:1015C000012008210022FFF735FFEF4B181CFFF721
:1015D00013FFCB2008210022FFF72CFF3920082120
:1015E0000122FFF727FF2C2008210122FFF722FF0D
:1015F000002008210122FFF71DFF342008210122CD
:10160000FFF718FF022008210122FFF713FFCF2068
:1016100008210022FFF70EFF002008210122FFF71A
:1016200009FFC12008210122FFF704FF3020082113
:101630000122FFF7FFFEE82008210022FFF7FAFE53
:10164000852008210122FFF7F5FE00200821012254
:10165000FFF7F0FE782008210122FFF7EBFEEA20D9
:1016600008210022FFF7E6FE002008210122FFF7F3
:10167000E1FE002008210122FFF7DCFEED20082119
:101680000022FFF7D7FE642008210122FFF7D2FED7
:10169000032008210122FFF7CDFE1220082101229C
:1016A000FFF7C8FE812008210122FFF7C3FEF720C3
:1016B00008210022FFF7BEFE202008210122FFF7AB
:1016C000B9FEC02008210022FFF7B4FE2320082124
:1016D0000122FFF7AFFEC12008210022FFF7AAFE7A
:1016E000102008210122FFF7A5FEC52008210022B5
:1016F000FFF7A0FE3E2008210122FFF79BFE2820D5
:1017000008210122FFF796FEC72008210022FFF7DB
:1017100091FE862008210122FFF78CFE3620082149
:101720000022FFF787FEE82008210122FFF782FE52
:101730003A2008210022FFF77DFE552008210122D2
:10174000FFF778FEB12008210022FFF773FE00208A
:1017500008210122FFF76EFE182008210122FFF761
:1017600069FEB62008210022FFF764FE0820082148
:101770000122FFF75FFE822008210122FFF75AFEB7
:10178000272008210122FFF755FEF2200821002220
:10179000FFF750FE002008210122FFF74BFE2A2010
:1017A00008210022FFF746FE002008210122FFF752
:1017B00041FE002008210122FFF73CFE0020082105
:1017C0000122FFF737FEEF2008210122FFF732FE4A
:1017D0002B2008210022FFF72DFE002008210122E6
:1017E000FFF728FE002008210122FFF723FE012039
:1017F00008210122FFF71EFE3F2008210122FFF7EA
:1018000019FE262008210022FFF714FE01200821DE
:101810000122FFF70FFEE02008210022FFF70AFE59
:101820000F2008210122FFF705FE312008210122A7
:10183000FFF700FE2B2008210122FFF7FBFD0C2003
:1018400008210122FFF7F6FD0E2008210122FFF7F3
:10185000F1FD082008210122FFF7ECFD4E200821B0
:101860000122FFF7E7FDF12008210122FFF7E2FD49
:10187000372008210122FFF7DDFD07200821012282
:10188000FFF7D8FD102008210122FFF7D3FD032028
:1018900008210122FFF7CEFD0E2008210122FFF7CB
:1018A000C9FD092008210122FFF7C4FD00200821FD
:1018B0000122FFF7BFFDE12008210022FFF7BAFD5A
:1018C000002008210122FFF7B5FD0E20082101228A
:1018D000FFF7B0FD142008210122FFF7ABFD032024
:1018E00008210122FFF7A6FD112008210122FFF7A0
:1018F000A1FD072008210122FFF79CFD31200821CE
:101900000122FFF797FDC12008210122FFF792FD78
:10191000482008210122FFF78DFD0820082101221F
:10192000FFF788FD0F2008210122FFF783FD0C201F
:1019300008210122FFF77EFD312008210122FFF757
:1019400079FD362008210122FFF774FD0F200821C0
:101950000122FFF76FFD112008210022FFF76AFD29
:10196000094B181CFFF748FD292008210022FFF72A
:1019700061FD00F039F8BD4608E0C04600000340B4
:1019800044002000204200508813000080BDC04663
:1019900080B584B000AFF860B9607A603B602A20FF
:1019A00008210022FFF746FDFB68181C10210122C8
:1019B000FFF740FD7B68181C10210122FFF73AFD5C
:1019C0002B2008210022FFF735FDBB68181C1021D1
:1019D0000122FFF72FFD3B68181C10210122FFF7A1
:1019E00029FDBD4604B080BD80B582B000AF402364
:1019F000FF33002000211A1CEF23FFF7C9FF2C2022
:101A000008210022FFF716FD2020FFF785FD094B76
:101A100001221A6000237B6005E00020FFF768FDCB
:101A20007B6801337B607B68034A9342F5D9BD46EE
:101A300002B080BD20420050FF95000090B589B0F3
:101A400000AFF8607A603B600B23FB180A1C1A7029
:101A5000FB681A687B68D418FB685A683B68D3181F
:101A600079683A68081C111C221CFFF791FF2C2092
:101A700008210022FFF7DEFC1020FFF74DFD2B4B65
:101A800001221A600023BB6148E0FB68DA680B237F
:101A9000FB181B78203B191CFB685B685943BB692A
:101AA000C918FB681B7A013B99400B1CD3183B619A
:101AB000FB681B7A022B08D0042B0AD0012B00D024
:101AC0000AE03B691B78FB6107E03B691B88FB610F
:101AD00003E03B691B68FB61C04600237B6114E0A7
:101AE000FB681B7ADB001A1C7B69D31A1A1CFB6982
:101AF000D3400122134001D03B6B00E07B6B181CEC
:101B0000FFF7F6FC7B6901337B61FB681B685A1C9D
:101B10007B699A42E4D8BB690133BB61FB685A68B0
:101B2000BB699A42B1D8BD4609B090BD2042005071
:101B300090B589B002AFF860B9607A603B6000236D
:101B40007B6116E07B69BA68D3181978FB681B685B
:101B500001337A695A437B68D218F8683C68BB6ADB
:101B60000093FB6A0193231CFFF768FF7B69013335
:101B70007B617B69BA68D3181B78002BE2D1BD4624
:101B800007B090BD002243088B4274D303098B42F7
:101B90005FD3030A8B4244D3030B8B4228D3030C3D
:101BA0008B420DD3FF22090212BA030C8B4202D3DF
:101BB0001212090265D0030B8B4219D300E0090A07
:101BC000C30B8B4201D3CB03C01A5241830B8B4210
:101BD00001D38B03C01A5241430B8B4201D34B03F9
:101BE000C01A5241030B8B4201D30B03C01A52415E
:101BF000C30A8B4201D3CB02C01A5241830A8B42E3
:101C000001D38B02C01A5241430A8B4201D34B02CB
:101C1000C01A5241030A8B4201D30B02C01A52412F
:101C2000CDD2C3098B4201D3CB01C01A52418309E3
:101C30008B4201D38B01C01A524143098B4201D31D
:101C40004B01C01A524103098B4201D30B01C01A48
:101C50005241C3088B4201D3CB00C01A52418308C2
:101C60008B4201D38B00C01A524143088B4201D3EF
:101C70004B00C01A5241411A00D20146524110464F
:101C80007047FFE701B5002000F00CF802BDC04628
:101C90000029F7D003B5FFF775FF0EBC4243891A40
:101CA0001847C0467047C046000000000000000012
:101CB000000010101010101000100000282828003C
:101CC00000000000000024247C24487C48480000D8
:101CD0003854503814545438100020545830285474
:101CE0001408000010282810344848340000101050
:101CF00010000000000000000810202020202020FC
:101D000010082010080808080808102010381028AB
:101D1000000000000000000010107C101000000007
:101D2000000000000000001010100000000000384B
:101D30000000000000000000000000100000080883
:101D400010101010202000003844445444444438FB
:101D500000001030501010101010000038444404DF
:101D60000810207C000038440418040444380000A3
:101D700008182828487C080800007C4040780404A3
:101D800044380000384440784444443800007C041F
:101D900008101020202000003844443844444438BF
:101DA0000000384444443C04443800000000100063
:101DB00000000010000000000010000000101010D3
:101DC00000000C3040300C0000000000007C007C63
:101DD0000000000000006018041860000000384493
:101DE000040810100010000038444C545C40403887
:101DF000000010282828287C4444000078444478B7
:101E00004444447800003844404040404438000096
:101E1000704844444444487000007C40407C40404A
:101E2000407C00007C404078404040400000384406
:101E300040405C44443800004444447C44444444AE
:101E400000003810101010101038000004040404B2
:101E5000040444380000444850605048484400009E
:101E6000404040404040407C0000446C6C5444443E
:101E70004444000044646454544C4C4400003844CE
:101E8000444444444438000078444444784040404A
:101E900000003844444444445438040078444444E2
:101EA0007848484400003844403008044438000072
:101EB0007C1010101010101000004444444444449E
:101EC00044380000444444282828101000004444AA
:101ED0005454546C28280000442828101028284402
:101EE0000000444428281010101000007C04081042
:101EF0001020407C00001810101010101010101846
:101F000020201010101008080000301010101010C1
:101F100010101030102828440000000000000000BD
:101F200000000000000000FE201000000000000083
:101F30000000000038443C444C34000040405864E9
:101F400044446458000000003844404044380000D5
:101F50000404344C44444C340000000038447C40B9
:101F6000443800000C107C1010101010000000000D
:101F7000344C44444C340478404058644444444411
:101F800000001000701010101010000010007010F1
:101F90001010101010E040404850605048440000BD
:101FA00070101010101010100000000078545454DD
:101FB00054540000000058644444444400000000AD
:101FC0003844444444380000000058644444645891
:101FD00040400000344C44444C3404040000586435
:101FE00040404040000000003844300844380000C1
:101FF0002020782020202018000000004444444481
:102000004C34000000004444282828100000000040
:102010005454546C28280000000044281010284410
:1020200000000000444428281010106000007C08C4
:102030001020407C000018101010202010101018E4
:102040001010101010101010101030101010080880
:1020500010101030000000744C0000000000000060
:10206000070000000A00000001000000A81C00009A
:102070000000000000000000000000000000000060
:102080000000000000000000000000000000000050
:102090000000000000000000000000000000000040
:1020A00000000000E003E003E003E003E003E003DE
:1020B000E003E003C003C003C001C001C001C001D0
:1020C000C001000000000000E003E003E0030000A6
:1020D00000000000000000003C1E3C1E3C1E3C1E98
:1020E0003C1E3C1E3C1E00000000000000000000E2
:1020F00000000000000000000000000000000000E0
:10210000000000000000000000000000CE01CE032F
:10211000DE039E039C039C07FF3FFF7F3807380FB9
:10212000780F780F780EFFFFFFFFF01EF01CE01C09
:10213000E03CE03DE039000000000000000000004D
:10214000FC03FE0FEE1FE01EE01EE01EE01EE01F7F
:10215000E00FE007F003FC01FE01FE01FE01FE01BD
:10216000FE01FE01FE3DFC3FF00FE001E00100003A
:1021700000000000033E07F78FE78EE79EE3BCE315
:10218000B8E7F8E7F0F7E03FC001FF03FF07F30708
:10219000F30FF31EF33CF338F3787FF03FE00000D9
:1021A0000000000000000000E007F80F780F781F23
:1021B000781F781F780FF00FE00F801FC37FC3FBDD
:1021C000E7F3F7F1F7F0FFF07FF03EF87F7CFF3F99
:1021D000EF1F00000000000000000000E003E0032B
:1021E000E003E003E003C003C001000000000000C2
:1021F00000000000000000000000000000000000DF
:1022000000000000000000000000000000000000CE
:102210003F007C00F001E001C003C0078007800799
:10222000800F000F000F000F000F000F000F800F36
:1022300080078007C007C003E001F0017C003F0079
:102240000F000000007E001FC007C003E001F00186
:10225000F000F000F800780078007800780078004E
:102260007800F800F000F000F001E001C003C007C2
:10227000001F007E00780000E003C003C001CE39DB
:10228000FF3F7F3F20037003F807780F3C1F38069D
:10229000000000000000000000000000000000003E
:1022A000000000000000000000000000000000002E
:1022B0000000000000000000C001C001C001C0011A
:1022C000C001C001C001FFFFFFFFC001C001C0018C
:1022D000C001C001C00100000000000000000000BB
:1022E00000000000000000000000000000000000EE
:1022F00000000000000000000000000000000000DE
:102300000000E003E003E003E003E001E001E0019E
:10231000C001800300000000000000000000000079
:1023200000000000000000000000FE3FFE3F000033
:10233000000000000000000000000000000000009D
:10234000000000000000000000000000000000008D
:10235000000000000000000000000000000000007D
:1023600000000000000000000000E003E003E003C4
:10237000E003000000000000000000000F000F005C
:102380001E001E003C003C0078007800F000F000C9
:10239000E001E001C003C00380078007000F000FC9
:1023A000001E001E003C003C0078007800F0000099
:1023B000F007F80F7C1F3E3E1E3C1F7C1F7C0F78F1
:1023C0000F780F780F780F780F780F781F7C1F7CAD
:1023D0001E3C3E3E7C1FF80FF0070000000000008E
:1023E00000000000F000F007F03FF03FF001F001C6
:1023F000F001F001F001F001F001F001F001F00155
:10240000F001F001F001F001F001FF3FFF3F00009B
:102410000000000000000000E00FF83F7C3C3C00A2
:102420003E003E003E003C003C007C00F800F00115
:10243000E003C0078007000F001E003E003CFE3F87
:10244000FE3F00000000000000000000F00FF81F39
:102450007C1C3E003E003E003C003C00F800F00FBB
:10246000F80F7C003E001E001E001E001E003E00F5
:102470007C1CF81FE01F00000000000000000000AE
:102480007800F800F800F801F803F807F807780F6B
:10249000781E781E783C78787878FFFFFFFF780008
:1024A00078007800780078007800000000000000D4
:1024B00000000000FC1FFC1FFC1F001E001E001E71
:1024C000001E001EE01FF81FFC007C003E003E00C6
:1024D0001E003E003E003C007C1CF81FE01F000078
:1024E0000000000000000000FC01FE078E0F001F2E
:1024F000001E003E003C003CF83DFC3F3E7F1F7E3E
:102500000F3C0F3C0F3C0F3C0F3E1F1E3E1FFC0FAD
:10251000F00300000000000000000000FF3FFF3F4C
:10252000FF3F0F001E001E003C0038007800F00046
:10253000F000E001E001C003C0038007800F800FBE
:10254000000F001F001F000000000000000000003E
:10255000F807FC0F3E1F1E1E1E3E1E3E1E1E3C1F89
:10256000F80FF007F80FFC1E3E3E1F3C1F7C0F7C4F
:102570000F7C1F3C3E3FFC1FF007000000000000E6
:1025800000000000F007F80F7C1E3E3C1E3C1F7C44
:102590001F7C1F7C1F7C1F3C3F3EFF1FEF071F005F
:1025A0001E001E003E003C00F838F03FE01F000017
:1025B000000000000000000000000000000000001B
:1025C00000000000E003E003E003E003000000007F
:1025D00000000000000000000000E003E003E00352
:1025E000E003000000000000000000000000000008
:1025F0000000000000000000E003E003E003E0034F
:102600000000000000000000000000000000E003E7
:10261000E003E003E003E001E001E001C003800328
:1026200000000000000000000000000003000F0098
:102630003F00FC00F003C00F003F00FE003FC00F52
:10264000F003FC003F000F0003000000000000004A
:10265000000000000000000000000000000000007A
:102660000000000000000000FFFFFFFF000000006E
:102670000000FFFFFFFF000000000000000000005E
:10268000000000000000000000000000000000004A
:102690000000000000E000F8007E801FE007F80165
:1026A0007E001F007E00F801E007801F007E00F81A
:1026B00000E000000000000000000000F01FFC3FF0
:1026C0003E381F381F381E001E003C007800F00006
:1026D000E001C003C003C007C00700000000000005
:1026E000C007C007C0070000000000000000000095
:1026F000F803FE0F1E1F0F3E7F3CFF78EF79C77374
:10270000C7F38FF38FF38FF39FF39FF3FF73FF7B79
:10271000F779003C1C1FFC0FF803000000000000CC
:1027200000000000000000000000E003E003F007EC
:10273000F007F007780F780F7C0E3C1E3C1E3E3CE5
:10274000FE3FFF3F1F780F780FF007F007F0000003
:102750000000000000000000000000000000F83F42
:10276000FC3F3E3C1E3C1E3C1E3C3E3C7C3CF03F45
:10277000F83F7E3C1F3C1F3C0F3C0F3C1F3CFE3F84
:10278000F83F000000000000000000000000000012
:102790000000FF01FF07871F003E003C007C00781F
:1027A0000078007800780078007C007C003E003FD4
:1027B000831FFF07FF010000000000000000000071
:1027C000000000000000F07FFC7F7E781F781F78FB
:1027D0000F780F780F780F780F780F780F780F78C1
:1027E0001F781E787E78F87FE07F000000000000F0
:1027F00000000000000000000000FF3FFF3F003E1F
:10280000003E003E003E003E003EFE3FFE3F003EDA
:10281000003E003E003E003E003EFF3FFF3F000006
:102820000000000000000000000000000000FF1F8A
:10283000FF1F001E001E001E001E001E001EFF1FA8
:10284000FF1F001E001E001E001E001E001E001E98
:10285000001E00000000000000000000000000005A
:102860000000FE03FF0F871F003E007C007C007805
:1028700000F800F87FF87FF80F780F7C0F7C0F3E90
:102880008F1FFF0FFE03000000000000000000008B
:102890000000000000001F7C1F7C1F7C1F7C1F7C31
:1028A0001F7C1F7C1F7CFF7FFF7F1F7C1F7C1F7C8A
:1028B0001F7C1F7C1F7C1F7C1F7C00000000000011
:1028C00000000000000000000000FF3FFF3FE003A9
:1028D000E003E003E003E003E003E003E003E003E0
:1028E000E003E003E003E003E003FF3FFF3F0000FD
:1028F0000000000000000000000000000000FC1FBD
:10290000FC1F7C007C007C007C007C007C007C0048
:102910007C007C007C007C0078007800F838F03F78
:10292000C03F0000000000000000000000000000A8
:1029300000001F3C1E3C3C3C783CF03CE03DE03F4E
:10294000C03F803FC03FE03FF03DF03C783C7C3CE6
:102950003E3C1F3C0F3C0000000000000000000057
:10296000000000000000003E003E003E003E003E31
:10297000003E003E003E003E003E003E003E003E67
:10298000003E003E003EFF3FFF3F00000000000011
:10299000000000000000000000001FF81FFC1FFCEA
:1029A0003FFE3FFE3FFE7FFF77FF77FFF7F7E7F73A
:1029B000E7F3E7F3C7F307F007F007F007F00000CD
:1029C00000000000000000000000000000000F7C7C
:1029D0000F7C0F7E0F7F0F7F8F7F8F7FCF7FEF7BEF
:1029E000EF79FF79FF78FF787F783F783F781F781D
:1029F0001F78000000000000000000000000000040
:102A00000000F007FC1F3E3E1F7C0F780F780FF888
:102A10000FF80FF80FF80FF80FF80F780F781F7CEA
:102A20003E3EFC1FF0070000000000000000000018
:102A3000000000000000FC3FFF3F1F3E0F3E0F3E26
:102A40000F3E0F3E1F3E3F3EFC3FF03F003E003E2C
:102A5000003E003E003E003E003E00000000000040
:102A600000000000000000000000F007FC1F3E3ED8
:102A70001F7C0F780F780FF80FF80FF80FF80FF88A
:102A80000FF80F780F781F7C3E3EFC1FF8077C0084
:102A90003F000F0003000000000000000000F03FB6
:102AA000FC3F7E3C3E3C1E3C1E3C3E3C3C3CFC3CD9
:102AB000F03FE03FF03DF83C7C3C3E3C1E3C1F3C80
:102AC0000F3C0000000000000000000000000000BB
:102AD0000000FC07FE1F0E3E003C003C003C003E98
:102AE000C01FF80FFE037F001F000F000F001F2004
:102AF0003E3CFC3FF01F0000000000000000000012
:102B0000000000000000FFFFFFFFE003E003E00320
:102B1000E003E003E003E003E003E003E003E0039D
:102B2000E003E003E003E003E00300000000000036
:102B3000000000000000000000000F7C0F7C0F7CF4
:102B40000F7C0F7C0F7C0F7C0F7C0F7C0F7C0F7C2D
:102B50000F7C0F7C1E3C1E3C3E3EFC1FF00700001D
:102B6000000000000000000000000000000007F06E
:102B700007F007F80F780F7C1E3C1E3C1E3E3C1EE3
:102B80003C1F781F780FF80FF007F007F007E003FD
:102B9000E003000000000000000000000000000052
:102BA000000003E003F003F007F0E7F3E7F3E7F3D7
:102BB000E773F77BF77FFF7F7F7F7F7F7E7F7E3F9F
:102BC0003E3E3E3E3E3E0000000000000000000091
:102BD00000000000000007F80F7C1E3E3E3E3C1F38
:102BE000F80FF007E007E003E003F007F80F7C0FB1
:102BF0007C1E3E3C1F780F780FF0000000000000A4
:102C00000000000000000000000007F807780F7CBB
:102C10001E3C1E3E3C1F780FF80FF007E003E00358
:102C2000E003E003E003E003E003E003E00300006F
:102C30000000000000000000000000000000FF7F16
:102C4000FF7F0F001F003E007C00F800F000E00155
:102C5000E003C007800F000F001E003E007CFF7FD6
:102C6000FF7F00000000000000000000FF07800759
:102C7000800780078007800780078007800780071C
:102C8000800780078007800780078007800780070C
:102C900080078007800780078007FF07FF07000085
:102CA00000780078003C003C001E001E000F000F62
:102CB00080078007C003C003E001E001F000F000DE
:102CC000780078003C003C001E001E000F000F0042
:102CD00007000000F07FF000F000F000F000F000CE
:102CE000F000F000F000F000F000F000F000F00064
:102CF000F000F000F000F000F000F000F000F00054
:102D0000F000F07FF07F0000C000C001C001E003D0
:102D1000E003F007F0077807780F380F3C1E3C1EE1
:102D20001E3C1E3C0F380F780778000000000000A2
:102D30000000000000000000000000000000000093
:102D40000000000000000000000000000000000083
:102D50000000000000000000000000000000000073
:102D6000000000000000FFFFFFFF00000000000067
:102D7000F000000000000000000000000000000063
:102D80000000000000000000000000000000000043
:102D90000000000000000000000000000000000033
:102DA0000000000000000000000000000000000023
:102DB000F80FFC3F7C3C3E003E003E00FE07FE1F3D
:102DC0003E3E3E7C3E783E7C7E7CFF3FCF1F000037
:102DD0000000000000000000003C003C003C003C03
:102DE000003C003CF83DFE3F3E3F1F3E0F3C0F3C89
:102DF0000F3C0F3C0F3C0F3C1F3C1E3C3E3FFC3F3A
:102E0000F03B000000000000000000000000000097
:102E10000000000000000000FE03FF0F871F003EBF
:102E2000003E003C007C007C007C003C003E003EFC
:102E3000871FFF0FFE0300000000000000000000DD
:102E40001F001F001F001F001F001F00FF07FF1FA4
:102E50003F3E1F3C1F7C1F7C1F7C1F781F781F7C00
:102E60001F7C3F3C7F3EFF1FDF0F00000000000083
:102E70000000000000000000000000000000000052
:102E8000F803FC0F3E1F1E3E1F3C1F7CFF7FFF7F91
:102E9000007C007C003C003E071FFF0FFE0300008B
:102EA0000000000000000000FF01E103C003C007B4
:102EB000C007C007FF7FFF7FC007C007C007C0076C
:102EC000C007C007C007C007C007C007C007C007CA
:102ED000C00700000000000000000000000000002B
:102EE0000000000000000000EF07FF1F7F3E1F3CB6
:102EF0001F7C1F7C1F781F781F781F7C1F7C3F3C26
:102F00007F3EFF1FDF0F1E001E001E007C38F83FB3
:102F1000003C003C003C003C003C003CFC3DFE3FD3
:102F20009E3F1F3F1F3E1F3C1F3C1F3C1F3C1F3C42
:102F30001F3C1F3C1F3C1F3C1F3C000000000000CA
:102F400000000000F001F00100000000000000009F
:102F5000E07FE07FE001E001E001E001E001E0016D
:102F6000E001E001E001E001E001E001E00100003A
:102F70000000000000000000F800F8000000000061
:102F800000000000F83FF83FF800F800F800F800F3
:102F9000F800F800F800F800F800F800F800F80071
:102FA000F800F800F800F000F071E07F003C003C11
:102FB000003C003C003C003C1F3C3E3C7C3CF83C60
:102FC000F03DE03DC03FC03FE03FF03DF83C7C3C81
:102FD0003E3C1F3C1F3C00000000000000000000C1
:102FE000F07FF001F001F001F001F001F001F001DB
:102FF000F001F001F001F001F001F001F001F00149
:10300000F001F001F001F001F0010000000000000B
:1030100000000000000000000000000000000000B0
:103020009EF7FFFFFFFFFFFFE7FBE7F9C7F1C7F1DF
:10303000C7F1C7F1C7F1C7F1C7F1C7F1C7F1000088
:103040000000000000000000000000000000000080
:1030500000000000FC3DFE3F9E3F1F3F1F3E1F3C07
:103060001F3C1F3C1F3C1F3C1F3C1F3C1F3C1F3C88
:103070001F3C0000000000000000000000000000F5
:103080000000000000000000F007FC1F3E3E1F3C57
:103090001F7C0F780F780F780F780F781F7C1F3CFC
:1030A0003E3EFC1FF0070000000000000000000092
:1030B000000000000000000000000000F83DFE3F9E
:1030C0003E3F1F3E0F3C0F3C0F3C0F3C0F3C0F3C64
:1030D0001F3C1E3E3E3FFC3FF83F003C003C003C96
:1030E000003C003C00000000000000000000000068
:1030F000EE07FE1F7E3E1E3C1E7C1E781E781E784C
:103100001E781E781E7C3E7C7E3EFE1FDE0F1E005B
:103110001E001E001E001E00000000000000000037
:10312000000000007F1FFF1FE71FC71F871F001F32
:10313000001F001F001F001F001F001F001F001F97
:10314000001F000000000000000000000000000060
:103150000000000000000000FC07FE1F0E1E003EE5
:10316000003E003FE01FFC07FE003E001E001E0068
:103170003E3CFC3FF01F000000000000000000008B
:10318000000000000000800780078007FF7FFF7FAE
:1031900080078007800780078007800780078007F7
:1031A00080078007C007FF03FF0100000000000048
:1031B000000000000000000000000000000000000F
:1031C0001E3C1E3C1E3C1E3C1E3C1E3C1E3C1E3C2F
:1031D0001E3C1E3C3E3C7E3CFE3EFE1FDE0F0000C1
:1031E00000000000000000000000000000000000DF
:1031F0000000000007F00F780F781E3C1E3C1E3EBA
:103200003C1E3C1E780F780FF00FF007F007E0032C
:10321000E0030000000000000000000000000000CB
:10322000000000000000000003F0E3F1E3F3E7F327
:10323000F7F3F7F3F77F777F7F7F7F7F7F7F3E3ED8
:103240003E3E3E3E3E3E000000000000000000000A
:103250000000000000000000000000000F7C1E3E87
:103260003C3E3C1FF80FF007F007E003F007F807BB
:10327000F80F7C1E3E3E1F3C1F780000000000003F
:10328000000000000000000000000000000000003E
:1032900007F80F780F7C1E3C1E3C3C1E3C1E3C1F5A
:1032A000780FF80FF007F007E003E003C003C00356
:1032B000C0038007800F007F0000000000000000B6
:1032C00000000000FF3FFF3F1F003E007C00F800B1
:1032D000F001E003C007800F001F001E003CFF7FCD
:1032E000FF7F00000000000000000000FE01E0037E
:1032F000C003C003C003C003E001E001E001C0015E
:10330000C003803F803FC003C001E001E001E00155
:10331000C003C003C003C003E003FE017E00000041
:10332000C001C001C001C001C001C001C001C00195
:10333000C001C001C001C001C001C001C001C00185
:10334000C001C001C001C001C001C001C001C00175
:10335000C0010000C03FE003E001E001E001E00146
:10336000C001C003C003C001E001FE00FE00E00197
:10337000C001C003C003C001E001E001E001E001C1
:10338000E003C03F003F000000000000000000001C
:103390000000000000000000000000000000073FE7
:1033A000C77FE773FFF17EF000000000000000001F
:1033B00000000000000000000000000010000000FD
:1033C0001A000000020000007020000000FF010051
:1033D000010000FFFF0000010001FF0048656C6C68
:1033E0006F00000072706D00647574793A0000001F
:1033F0002500000043616C6962726174696E672E1A
:0C3400002E2E000072706D3A00000000DB
:0C340C0080F0FA023200000080F0FA02AA
:00000001FF
