:10000000D8040020C10000002501000025010000E7
:1000100000000000000000000000000000000000E0
:1000200000000000000000000000000025010000AA
:100030000000000000000000250100002501000074
:100040002501000025010000250100002501000018
:10005000B90A0000250100008D040000D50400004D
:1000600025010000250100004909000025010000CC
:1000700025010000250100002501000025010000E8
:1000800025010000250100002501000025010000D8
:1000900025010000250100002501000025010000C8
:1000A00025010000250100002501000025010000B8
:1000B00025010000250100002501000025010000A8
:1000C00080B582B000AF124B7B60124B3B6007E003
:1000D0003B681A1D3A607A68111D796012681A60CF
:1000E0003A680D4B9A42F3D30C4B3B6004E03B68FB
:1000F0001A1D3A6000221A603A68094B9A42F6D3F8
:1001000001F0DCF800F0E8FDBD4602B080BDC0465D
:10011000D0140000000000200C0000200C00002083
:10012000D400002080B500AFFEE7C04680B582B0A5
:1001300000AF021CFB1D1A70064BFA1D1278111C31
:100140001F220A40012191400A1C1A60BD4602B0DC
:1001500080BDC04600E100E080B584B000AF7860AB
:100160007B681B78032B01D8A24B00E0A24BBB603D
:100170000F23FB187A6812781A700F23FB181B786C
:10018000042B06D90F23FB180F22BA181278043A51
:100190001A707B681B78002B03D07B681B78012BBF
:1001A00014D1964B1B78002B10D1954B944A926832
:1001B000802149030A439A60914B914A52698021F8
:1001C00089050A435A618D4B01221A707B681B789E
:1001D000022B03D07B681B78032B14D1894B1B782F
:1001E000002B10D1864B864A9268802189030A43EE
:1001F0009A60834B824A5269802109060A435A61F8
:10020000804B01221A707B681B78042B03D07B681B
:100210001B78052B13D17C4B1B78002B0FD1784B0F
:10022000774A92688021C9030A439A60744B744AE2
:10023000D26920210A43DA61734B01221A707B686C
:100240001B78062B03D07B681B78072B13D16F4BD1
:100250001B78002B0FD16A4B694A926880210904F0
:100260000A439A60664B664AD26980210A43DA6182
:10027000664B01221A707B681B78032B0AD8644BEB
:100280001B78002B10D10620FFF750FF604B012296
:100290001A7009E05F4B1B78002B05D10720FFF790
:1002A00045FF5C4B01221A70BB689A680F23FB184C
:1002B0001B78DB00082199400B1C1A43BB689A602D
:1002C000BB681B680F22BA1812785208D2B2D2004B
:1002D000FF2191400A1CD24313407A685278111CC6
:1002E0000F22BA1812785208D2B2D20091400A1CDA
:1002F0001A43BB681A60BB685B680F22BA18127891
:100300009200072191400A1CD24313407A689278E8
:10031000111C0F22BA181278920091400A1C1A433D
:10032000BB685A60BB681033191C0F23FB181A787E
:10033000131C5B009B189B00CB181A1C7B685B6826
:100340001360BB680C33191C0F23FB181A78131C9D
:100350005B009B189B00CB181A1C7B689B68136082
:100360007B681B7B012B02D0022B0FD01CE0BB68EB
:10037000DA6F7B681B7B0833012199400B1C191C29
:1003800001238B401A43BB68DA670DE0194B194A09
:10039000D16F7A68127B101C01228240101C01224E
:1003A00082400A43DA67C0467B681B69002B12D083
:1003B000BB681A6C0F23FB181B78012199400B1C9A
:1003C0001A43BB681A647B681B781A1C7B6819691E
:1003D000114B9200D150BB689A680F23FB181B7811
:1003E000DB00012199400B1C1A43BB689A60BD4693
:1003F00004B080BD00000440000014400E00002046
:10040000000200500F00002010000020110000200A
:100410000C0000200D0000206800002080B584B092
:1004200000AF786039600F23FB187A6812781A7071
:100430007B681B78032B01D8124B00E0124BBB608A
:100440000F23FB181B78042B06D90F23FB180F2250
:10045000BA181278043A1A707B683A685A60BB6816
:100460001033191C0F23FB181A78131C5B009B1800
:100470009B00CB181A1C7B685B681360BD4604B0F8
:1004800080BDC046000004400000144080B582B02A
:1004900000AF00237B6013E00C4B01217A68914090
:1004A0000A1C5A640A4B7A689200D358002B04D075
:1004B000074B7A689200D35898477B6801337B607A
:1004C0007B68032BE8DDBD4602B080BD0000044020
:1004D0006800002080B582B000AF04237B6014E088
:1004E0000D4B7A68043A012191400A1C5A640B4B67
:1004F0007A689200D358002B04D0084B7A68920097
:10050000D35898477B6801337B607B68072BE7DD16
:10051000BD4602B080BDC046000014406800002007
:1005200080B582B000AF021CFB1D1A70064BFA1D8D
:100530001278111C1F220A40012191400A1C1A60E6
:10054000BD4602B080BDC04600E100E0B0B582B05B
:1005500000AF021C3960FB1D1A70FB1D1B787F2B3E
:100560002FD92D4CFB1D1B781A1C0F231340083B61
:100570009908294AFB1D1B78181C0F230340083BD0
:100580009B0806339B00D3185B68FA1D1278101C79
:1005900003220240D200101CFF228240D2431A40A4
:1005A0003B689B01FF200340F81D0078051C0320D9
:1005B0002840C00083401A438B1D9B00E3185A60FB
:1005C00026E0164CFB1D1B785BB29B081349FA1DF5
:1005D000127852B29208C03292005258F91D09782E
:1005E000081C03210140C900081CFF218140C943A8
:1005F00011403A689201FF200240F81D0078051C66
:1006000003202840C00082400A43C0339B001A5197
:10061000BD4602B0B0BDC04600ED00E000E100E024
:1006200080B584B000AF7860094BFB6005E0FB68E3
:100630005A1EFA60002B00DC06E0064BDB687A6885
:100640001A407B689A42F2D1BD4604B080BDC046D4
:1006500090D003000002005080B582B000AF7860F7
:100660000A4A0B4B1B6879684B435360074B0022C7
:100670009A60064B05221A60C046044B1A68802314
:100680005B021340F9D0BD4602B080BD10E000E02F
:100690000400002080B500AFA023DA0580235B00B2
:1006A0005921D150A023DA0580235B001621D150B7
:1006B000A023DA0580235B008821D150A023DA052E
:1006C00080235B00D358002BE6D0BD4680BDC046DA
:1006D00080B500AFA023DA0580235B000021D15054
:1006E000BD4680BD80B584B000AFF860B9607A6067
:1006F000FB689A697B68190EBB6899400B1C1A430A
:10070000FB689A61FB68DA697B681B02190ABB689F
:1007100099400B1C1A43FB68DA61BD4604B080BDEA
:1007200080B500AFFFF7B6FF4E4B4E4A126804216A
:100730000A431A601020FFF773FF4A4B07221A6121
:10074000484B484A126A802149020A431A62454BC3
:10075000444A126805210A431A60424B424A1A620F
:100760001520FFF75DFF3F4B1A221A613D4B102207
:100770009A603C4B802292025A613C4B3C4A1A6080
:100780003C4B3B4A1A603C4B32221A603B4B3B4A83
:10079000126803218A4301210A431A60374B374A02
:1007A00012680C218A4304210A431A60334B334AEE
:1007B000126830218A4310210A431A602F4B2F4AB6
:1007C0001268C0218A4340210A431A602B4B2B4AEE
:1007D00012682B490A40802149000A431A60274BBE
:1007E000264A126827490A408021C9000A431A6034
:1007F000254B254A126830218A431A60224B224A2F
:100800001268C0218A431A601F4A80235B02101CB1
:1008100002211A1CFFF766FF1B4A80235B02101C93
:1008200003211A1CFFF75EFF0A200021FFF78EFE4E
:1008300001235B42181C0121FFF788FE04200221DE
:10084000FFF784FE06200321FFF780FE0420FFF758
:1008500067FEA023DB05802252001A64FFF738FFF1
:10086000BD4680BD00020050174200000800002075
:1008700080F0FA020000002004000020C040005078
:10088000FFFCFFFFFFF3FFFF0040005080B582B088
:1008900000AF0D4B00221A700C4B00221A600C4B5B
:1008A00000221A6000237B6007E00A4B7A689200FE
:1008B0000021D1507B6801337B607B680C2BF4DD19
:1008C000BD4602B080BDC0462800002024000020A4
:1008D0002C0000203000002080B582B000AF78608E
:1008E000154B1A687B68D218134B1A60134B1A68A1
:1008F000134B92007968D150104B1B680C2B03D01E
:100900000E4B1B685A1C00E000220C4B1A600B4B6C
:100910001A680B4B9200D258074B1B689A1A064B69
:100920001A60064B1B68002B02D1064B01221A707D
:10093000BD4602B080BDC0462C000020240000202F
:10094000300000202800002080B582B000AF394B75
:100950009B680122134021D0374B1B68374A9342D2
:100960000BD8374B1B78DBB2002B06D1324B1B6800
:10097000802252049A18304B1A60314B00221A70B0
:100980002C4B01229A602C4B1A6880239B049A42BC
:1009900004D9FFF77BFF284B00221A60254B9B6987
:1009A0000122134043D0234B1B691B021B0A7B60AF
:1009B000244B1A687B689A420DD91F4B1B68002B89
:1009C00009D11D4B1B68802252049A181A4B1A60D9
:1009D0001B4B01221A70184B1A681B4B1A60164BDE
:1009E00000221A60184B1A687B68D218164B1A60DE
:1009F000144B1A68144B1B689A1A134B1A60114B4C
:100A00007A681A60104B1A6880235B049A4206D9F0
:100A10000D4B1B68FF2212069A180B4B1A600A4BEB
:100A20001B68181CFFF758FF024B01229A61BD4654
:100A300002B080BD000011401C000020FEFFFF7EC0
:100A400064000020180000202000002080B582B043
:100A500000AF144B1B78DBB2002B0CD0124B1B6881
:100A6000002B08D0104B1B681048191C00F082FCAA
:100A7000031C7B6001E000237B607B68181C00F096
:100A8000B3F90B4B1B78002B09D00A4B1B683B605A
:100A9000074B00221A703B68181C00F0C7F9BD46CE
:100AA00002B080BD280000202C000020005ED0B2E3
:100AB0009C000020A000002080B500AFC820FFF7F8
:100AC000CBFD194B1B68DBB2DB18DAB2174B1B6886
:100AD000DBB21343DAB2164B1B789B00DBB2134335
:100AE000DAB2134B1A70134B04221A62114B08220C
:100AF0001A620F4B1B781A1C0F2313400E4AD35C4B
:100B00005BB25A1C02D0012B07D00BE00B4B1B68C9
:100B100001225242101C984704E0084B1B68012038
:100B20009847C046BD4680BD0C4200500842005068
:100B3000140000200040005098140000CC00002059
:100B400080B582B000AF78600B4B7A681A600B4BAF
:100B50001B68DBB2DB18DAB2094B1B68DBB213434C
:100B6000DAB2084B1B789B00DBB21343DAB2054BB9
:100B70001A70BD4602B080BDCC0000200C4200506F
:100B8000084200501400002080B584B000AF021C61
:100B9000FB1D1A700E4B1B68FB60FB1D1B785BB2C4
:100BA000FA68D318FB60FB68002B0EDBFB68F92B9F
:100BB0000BDCFB68074A101C191CFFF72FFCFA68B6
:100BC000034B1A60044B01221A70BD4604B080BD6D
:100BD000A0000020A40000209C00002080B500AFF1
:100BE0000A4B8022D2041A60084B00225A60074B3D
:100BF000074A1A60054B2A225A61044B01229A6166
:100C0000024B01229A60BD4680BDC04600001140E3
:100C10000000016880B500AF0C4B02221A700B4B2C
:100C200009225A70094B04229A70084BF422FF32B1
:100C30005A60064B064A9A60044B01221A73034B12
:100C4000181CFFF789FABD4680BDC046B8000020D9
:100C5000E703000080B500AF0B4B00221A700A4B6F
:100C600001225A70084B04229A70074B00225A60E6
:100C7000054BF9229A60044B01221A73024B181C8F
:100C8000FFF76AFABD4680BDA400002080B500AF22
:100C90000D4B03221A700C4BFF225A700A4B032291
:100CA0009A70094B094A5A60074B094A9A60064BE9
:100CB00000221A73044B074A1A61034B181CFFF7F2
:100CC0004BFABD4680BDC04688000020E10400000C
:100CD000C30900004D0A000080B500AFFFF720FDFA
:100CE00000F024F8012000F02DF80C4B00221A60CF
:100CF000FFF7CCFD0A4B181CFFF722FFFFF7AAFFF6
:100D0000084B00221A60084B01221A70FFF7BEFF41
:100D1000FFF780FFFFF762FFFEE7C0461C000020E0
:100D2000890B0000A00000209C00002080B500AFCF
:100D300000F07AF9024B00221A70BD4680BDC04611
:100D4000D100002080B582B000AF021CFB1D1A70DC
:100D50001F4BFA1D12781A70FB1D1B78002B02D056
:100D6000012B19D031E00B20002100F059FA194B6A
:100D7000181C00F07BF90020012100F051FA164BFD
:100D8000181C00F073F90A20012100F049FA134BF6
:100D9000181C00F06BF918E00020002100F040FA68
:100DA0000F4B181C00F062F90020012100F038FA06
:100DB000094B181C00F05AF91420002100F030FAF9
:100DC000084B181C00F052F9C046BD4602B080BD69
:100DD000D0000020A8140000AC140000B4140000DF
:100DE000B8140000C814000080B584B002AF786069
:100DF0000C4B1B78002B12D10B4B1B78002B0ED108
:100E0000084B01221A707A6800230093101C0921F4
:100E10000022082300F046F9024B00221A70BD465A
:100E200002B080BDD1000020D000002080B586B087
:100E300002AF78600E4B1B78002B16D10D4B1B7840
:100E4000002B12D17B6801339B00FB60084B012211
:100E50001A70FA6801230093101C0921012205234E
:100E600000F020F9024B00221A70BD4604B080BD8C
:100E7000D1000020D000002080B582B000AF7860A3
:100E80000A4A0B4B1B6879684B435360074B00229F
:100E90009A60064B05221A60C046044B1A688023EC
:100EA0005B021340F9D0BD4602B080BD10E000E007
:100EB0000400002080B500AF094B00221A606420B6
:100EC000FFF7DAFF064B01221A606420FFF7D4FF18
:100ED000034B00221A606420FFF7CEFFBD4680BDA1
:100EE0007042005080B500AF094B00221A60094BD8
:100EF00000221A60084B00221A60084B00221A6078
:100F0000074B00221A60074B00221A60BD4680BDC5
:100F100074420050704200506C42005068420050D1
:100F2000644200506042005080B582B000AF021CA5
:100F3000FB1D1A70BB1D0A1C1A70FFF7D3FF2A4B4A
:100F4000BA1D1278D209D2B2111C01220A401A60CD
:100F5000264BBA1D12789209D2B2111C01220A4006
:100F60001A60234BBA1D12785209D2B2111C012209
:100F70000A401A601F4BBA1D12781209D2B2111C16
:100F800001220A401A601C4BFA1D12781A60FFF702
:100F900091FF154BBA1D1278D208D2B2111C012252
:100FA0000A401A60114BBA1D12789208D2B2111C75
:100FB00001220A401A600E4BBA1D12785208D2B2B2
:100FC000111C01220A401A600A4BBA1D1278012135
:100FD0000A401A60084BFA1D12781A60FFF76AFF80
:100FE000BD4602B080BDC0466C4200506842005011
:100FF00064420050604200507442005080B500AF1F
:1010000000200121FFF790FFFA23DB00181CFFF7F7
:1010100033FF00200221FFF787FFFA23DB00181CB3
:10102000FFF72AFFBD4680BD80B500AFFFF75AFF2E
:101030000C4B181CFFF720FF0B4B01221A60FFF727
:1010400039FF00202821FFF76FFF00200C21FFF758
:101050006BFF00200621FFF767FFFFF7CFFFBD46BC
:1010600080BDC046204E00006442005080B584B070
:1010700000AF78600023FB600AE0FB687A68D31851
:101080001B780120191CFFF74FFFFB680133FB6041
:10109000FB687A68D3181B78002BEED1BD4604B0EC
:1010A00080BDC04690B585B000AF78600C1C101CA8
:1010B000191CFB1C221C1A70BB1C021C1A707B1C06
:1010C0000A1C1A700F23FB18FA1C12781A700F23CF
:1010D000FB181A78BB1C1B78101C191C00F0A0F818
:1010E00000200421FFF720FF7B68002B0BD101209B
:1010F0003021FFF719FF0F23FB181A780F23FB1875
:10110000013A1A706FE05AE0FB1C1A780F23FB18A3
:101110001B78D21A2023FB181B789A420FD1202368
:10112000FB181B78002B0AD001202E21FFF7FCFEB4
:101130000F23FB181A780F23FB18013A1A707B68EB
:10114000002B14D07B68181C0A2100F099F90B1CA5
:10115000DBB23033DBB20120191CFFF7E5FE7B6800
:10116000181C0A2100F006F9031C7B6003E0012033
:101170003021FFF7D9FEFB1C1A780F23FB181B78D0
:10118000D21A7B1C1B789A4212DD0F23FB18FA1C23
:1011900012781A700F23FB181A78BB1C1B78101CCE
:1011A000191C00F03DF801202021FFF7BDFE1AE0D8
:1011B0000F23FB181A780F23FB18013A1A707B686B
:1011C000002BA1D12023FB181B78002B0BD00F2361
:1011D000FB181A782023FB181B78D3185A1CFB1C09
:1011E0001B789A4290DC0AE001202021FFF79CFE48
:1011F0000F23FB181A780F23FB18013A1A70FB1CF7
:101200001A780F23FB181B78D21A7B1C1B789A4282
:10121000EADD00200621FFF787FEBD4605B090BD40
:1012200080B584B000AF021CFB1D1A70BB1D0A1CE8
:101230001A700F23FB1800221A70BB1D1B789B012C
:10124000D9B20F23FB18FA1D12788A181A700F23CF
:10125000FB181B78802252421343DBB20020191C7A
:10126000FFF762FEBD4604B080BDC04680B500AF4A
:10127000A023DA0580235B005921D150A023DA0591
:1012800080235B001621D150A023DA0580235B0068
:101290008821D150A023DA0580235B00D358002B8E
:1012A000E6D0BD4680BDC04680B500AFA023DA05BC
:1012B00080235B000021D150BD4680BD80B584B045
:1012C00000AF264B00221A600B23FB1800221A7075
:1012D000234B1B69072213407B607B68002B15D1D1
:1012E0001F4B204A1A62204BFB6005E0FB685A1E28
:1012F000FA60002B00DC04E0194BDB680422134089
:10130000F4D00B23FB1801221A7017E07B68072B1F
:1013100014D1134B154A1A62154BFB6005E0FB68AC
:101320005A1EFA60002B00DC04E00D4BDB6804223F
:101330001340F4D00B23FB1801221A700B23FB1867
:101340001B785BB2002B06D0FFF790FF044B022204
:101350001A61FFF7A9FFBD4604B080BD0800002058
:101360000002005017420000E02E0000395608002D
:1013700066560000002243088B4274D303098B4257
:101380005FD3030A8B4244D3030B8B4228D3030C55
:101390008B420DD3FF22090212BA030C8B4202D3F7
:1013A0001212090265D0030B8B4219D300E0090A1F
:1013B000C30B8B4201D3CB03C01A5241830B8B4228
:1013C00001D38B03C01A5241430B8B4201D34B0311
:1013D000C01A5241030B8B4201D30B03C01A524176
:1013E000C30A8B4201D3CB02C01A5241830A8B42FB
:1013F00001D38B02C01A5241430A8B4201D34B02E4
:10140000C01A5241030A8B4201D30B02C01A524147
:10141000CDD2C3098B4201D3CB01C01A52418309FB
:101420008B4201D38B01C01A524143098B4201D335
:101430004B01C01A524103098B4201D30B01C01A60
:101440005241C3088B4201D3CB00C01A52418308DA
:101450008B4201D38B00C01A524143088B4201D307
:101460004B00C01A5241411A00D201465241104667
:101470007047FFE701B5002000F00CF802BDC04640
:101480000029F7D003B5FFF775FF0EBC4243891A58
:101490001847C0467047C04600FF0100010000FF2A
:1014A000FF0000010001FF0072706D006475747927
:1014B0003A0000002500000043616C6962726174AB
:1014C000696E672E2E2E000072706D3A00000000CB
:0C14D00080F0FA023200000080F0FA0206
:00000001FF
