:1000000030040020C100000025010000250100008F
:1000100000000000000000000000000000000000E0
:1000200000000000000000000000000025010000AA
:100030000000000000000000250100002501000074
:100040002501000025010000250100002501000018
:10005000D104000025010000650400002501000016
:100060002501000025010000D50300002501000046
:1000700025010000250100002501000025010000E8
:1000800025010000250100002501000025010000D8
:1000900025010000250100002501000025010000C8
:1000A00025010000250100002501000025010000B8
:1000B00025010000250100002501000025010000A8
:1000C00080B582B000AF124B7B60124B3B6007E003
:1000D0003B681A1D3A607A68111D796012681A60CF
:1000E0003A680D4B9A42F3D30C4B3B6004E03B68FB
:1000F0001A1D3A6000221A603A68094B9A42F6D3F8
:1001000000F054FD00F074FABD4602B080BDC04658
:10011000340D0000000000200C0000200C00002026
:100120002C00002080B500AFFEE7C04680B582B04D
:1001300000AF021CFB1D1A70064BFA1D1278111C31
:100140001F220A400121081C9040021C1A60BD4673
:1001500002B080BD00E100E080B584B000AF7860FF
:10016000094BFB6005E0FB685A1EFA60002B00DCBF
:1001700006E0064BDB687A681A407B689A42F2D147
:10018000BD4604B080BDC04690D0030000020050C0
:1001900080B582B000AF78600A4B0B4A126879686C
:1001A0004A435A60074B00229A60064B05221A60A8
:1001B000C046044B1A6880235B021340F9D0BD4649
:1001C00002B080BD10E000E00400002080B500AF68
:1001D000A023DA0580235B005921D150A023DA0542
:1001E00080235B001621D150A023DA0580235B0019
:1001F0008821D150A023DA0580235B00D358002B3F
:10020000E6D0BD4680BDC04680B500AFA023DA056C
:1002100080235B000021D150BD4680BD80B584B0F5
:1002200000AFF860B9607A60FB689A697B68190E64
:10023000BB68081C9840031C1A43FB689A61FB6862
:10024000DA697B681B02190ABB68081C9840031C0A
:100250001A43FB68DA61BD4604B080BD80B500AFCB
:10026000FFF7B4FF4F4B4F4A126804210A431A604C
:100270001020FFF771FF4B4B07221A61494B494A87
:10028000126A802149020A431A62464B454A1268A3
:1002900005210A431A60434B434A1A621520FFF7AF
:1002A0005BFF404B1A221A613E4B404A9A603D4B1D
:1002B0003F4A5A61A023DB0580225203DA60A02363
:1002C000DB050022DA603B4B3B4A1A603B4B3A4A63
:1002D0001A603B4B32221A603A4B3A4A12680321A9
:1002E0008A4301210A431A60364B364A12680C21B0
:1002F0008A4304210A431A60324B324A1268302181
:100300008A4310210A431A602E4B2E4A1268C021DC
:100310008A4340210A431A602A4B2A4A11682A4A12
:100320000A40802149000A431A60264B254A116879
:10033000264A0A408021C9000A431A60244B244AF5
:10034000126830218A431A60214B214A1268C02169
:100350008A431A601E4A80235B02101C02211A1C69
:10036000FFF75CFF1A4A80235B02101C03211A1C52
:10037000FFF754FF0420FFF7D9FE0A20FFF7D6FE4F
:100380000620FFF7D3FEA023DB05802252009A63EC
:10039000A023DB05802252001A64FFF735FFBD461B
:1003A00080BDC0460002005017420000100030001F
:1003B000000002A00800002080F0FA0200000020E7
:1003C00004000020C0400050FFFCFFFFFFF3FFFFD0
:1003D0000040005080B582B000AF1C4B9A690123E9
:1003E00013401BD0194B01229A61194B1A68194B03
:1003F0001A60174B00221A60144B1B697B60164B66
:100400001B687A68D21A134B1B68D218114B1A60FA
:10041000114B7A681A60114B01221A700B4B9A68C3
:10042000012313400ED0094B01229A60084B1A6831
:100430000B4B9A4206D8064B1B68802149025A187A
:10044000034B1A60BD4602B080BDC046000011409B
:1004500014000020180000201000002024000020BC
:10046000FEFFFFFE80B582B000AF134B08225A6436
:10047000124B1B78002B0ED0114B1B681148191C16
:1004800000F0F0FB031C7B600C4B00221A707B68B1
:10049000181C00F055F90C4B1B78002B09D00B4BA6
:1004A0001B683B60084B00221A703B68181C00F068
:1004B00057F9BD4602B080BD000004402400002072
:1004C00018000020005ED0B21C0000202000002098
:1004D00080B500AF6420FFF75BFE194B1B68DBB2F1
:1004E000DB18DAB2174B1B68DBB21343DAB2164BD8
:1004F0001B789B00DBB21343DAB2134B1A70134B19
:1005000004221A62114B08221A620F4B1B781A1C24
:100510000F2313400E4AD35C5BB25A1C02D0012B4E
:1005200007D00BE00B4B1B6801225242101C98476E
:1005300004E0084B1B6801209847C046BD4680BDBB
:100540000C420050084200500C00002000400050B7
:10055000140D00002800002080B582B000AF786044
:100560000B4B7A681A600B4B1B68DBB2DB18DAB2F4
:10057000094B1B68DBB21343DAB2084B1B789B00B4
:10058000DBB21343DAB2054B1A70BD4602B080BD30
:10059000280000200C420050084200500C000020AF
:1005A00080B584B000AF021CFB1D1A700D4B1B6898
:1005B000FB60FB1D1B785BB2FA68D318FB60FB681D
:1005C000002B0BDBFB68FA2B08DC074BFA681A617F
:1005D000FA68044B1A60054B01221A70BD4604B03C
:1005E00080BDC04620000020000004401C00002008
:1005F00080B500AFFFF732FE354B181CFFF7ACFF9C
:1006000000F07AF8334B334A926808210A439A6023
:10061000304B304A1268FF218A4301210A431A6095
:100620002C4B2C4A526807218A4304210A435A6002
:10063000284B7D221A61284B7D221A60274B01220C
:100640001A70244BFA22DA60224B224AD26F01211F
:100650000A43DA671F4B1F4A926801210A439A60D6
:100660001C4B1C4A9268802109050A439A60194B69
:10067000184A1268FF2109020A431A60154B154AED
:100680005168174A0A40C02189010A435A60114B38
:10069000144A5A630F4B144A1A630E4B0D4A126CDC
:1006A00008210A431A640B4B0A4A926880214904C4
:1006B0000A439A600D4B8022D2041A600B4B0C4AFD
:1006C0005A600A4B0B4A1A60084B2A225A61FEE70D
:1006D000A105000000000440200000201C000020B4
:1006E000FF8FFFFFE2040000C4090000000011407A
:1006F000FFFFFF000000017880B500AF00F0DAF8DE
:100700000B20002100F000FA0A4B181C00F01EF923
:100710000020012100F0F8F9074B181C00F016F931
:100720000A20012100F0F0F9044B181C00F00EF92A
:10073000BD4680BD240D0000280D0000300D0000D6
:1007400080B584B002AF78607B6800220092181CEC
:1007500009210022052300F019F9BD4602B080BD31
:1007600080B586B002AF78607B689B00FB60FB6859
:1007700001220092181C09210122052300F006F92C
:10078000BD4604B080BDC04680B582B000AF786081
:100790000A4B0B4A126879684A435A60074B002299
:1007A0009A60064B05221A60C046044B1A688023E3
:1007B0005B021340F9D0BD4602B080BD10E000E0FE
:1007C0000400002080B582B000AF0A1CFB1D011C94
:1007D0001970BB1D1A70314BFA1D12781A60304B1C
:1007E00001221A602F4BBA1D1278D209D2B2111C05
:1007F00001220A401A602C4BBA1D12789209D2B21B
:10080000111C01220A401A60284BBA1D12785209A5
:10081000D2B2111C01220A401A60254BBA1D12786F
:100820001209D2B2111C01220A401A601C4B00228C
:100830001A60FA23DB00181CFFF7A6FF184B0122F1
:100840001A60184BBA1D1278D208D2B2111C0122BC
:100850000A401A60144BBA1D12789208D2B2111CC9
:1008600001220A401A60114BBA1D12785208D2B206
:10087000111C01220A401A600D4BBA1D1178012289
:100880000A401A60FA23DB00181CFFF77DFF044BB7
:1008900000221A60BD4602B080BDC04674420050BE
:1008A000704200506C420050684200506442005058
:1008B0006042005080B500AF1D4B00221A601D4BF6
:1008C00000221A601C4B00221A601C4B00221A6086
:1008D0001B4B00221A601B4B00221A601A4B181C7B
:1008E000FFF752FF00202821FFF76CFFFA23DB00FF
:1008F000181CFFF749FF00200C21FFF763FFFA23C4
:10090000DB00181CFFF740FF00200121FFF75AFF12
:10091000FA23DB00181CFFF737FF00200621FFF742
:1009200051FFFA23DB00181CFFF72EFFBD4680BDE8
:1009300070420050604200506442005068420050D3
:100940006C42005074420050204E000080B584B0CC
:1009500000AF78600023FB600FE0FA23DB00181C77
:10096000FFF712FFFB687A68D3181B780120191C67
:10097000FFF728FFFB680133FB60FB687A68D31838
:100980001B78002BE9D1BD4604B080BD80B584B092
:1009900000AF7860081C111C1A1CFB1C1870BB1CD3
:1009A00019707B1C1A703B1C0F33FA1C12781A70DA
:1009B0007B68002B12D13B1C0F331A78BB1C1B78B1
:1009C000101C191C00F0A0F8FA23DB00181CFFF71C
:1009D000DBFE01203021FFF7F5FE92E059E0FB1C21
:1009E0001A783B1C0F331B78D21A3B1C18331B7828
:1009F0009A421DD13B1C18331B78002B18D03B1C8E
:100A00000F331A78BB1C1B78101C191C00F07CF8E3
:100A1000FA23DB00181CFFF7B7FE01202E21FFF799
:100A2000D1FE3B1C0F331A783B1C0F33013A1A706E
:100A30003B1C0F331A78BB1C1B78101C191C00F0D0
:100A400063F8FA23DB00181CFFF79EFE7B68002B7F
:100A500014D07B68181C0A2100F048F90B1CDBB28B
:100A60003033DBB20120191CFFF7ACFE7B68181C89
:100A70000A2100F0F7F8031C7B6003E0012030211D
:100A8000FFF7A0FE3B1C0F331A783B1C0F33013AD3
:100A90001A707B68002BA2D13B1C18331B78002BEB
:100AA0000BD03B1C0F331A783B1C18331B78D31820
:100AB0005A1CFB1C1B789A4291DC18E03B1C0F333C
:100AC0001A78BB1C1B78101C191C00F01DF8FA23A7
:100AD000DB00181CFFF758FE01202021FFF772FEF3
:100AE0003B1C0F331A783B1C0F33013A1A70FB1C66
:100AF0001A783B1C0F331B78D21A7B1C1B789A4246
:100B0000DCDBBD4604B080BD80B584B000AF0A1CFC
:100B1000FB1D011C1970BB1D1A703B1C0F330022FA
:100B20001A70BB1D1B789B01D9B23B1C0F33FA1DF9
:100B300012788A181A70FA23DB00181CFFF724FEBB
:100B40003B1C0F331B78802252421343DBB2002040
:100B5000191CFFF737FEBD4604B080BD80B500AF5D
:100B6000A023DA0580235B005921D150A023DA05A8
:100B700080235B001621D150A023DA0580235B007F
:100B80008821D150A023DA0580235B00D358002BA5
:100B9000E6D0BD4680BDC04680B500AFA023DA05D3
:100BA00080235B000021D150BD4680BD80B584B05C
:100BB00000AF264B00221A603B1C0B3300221A7038
:100BC000234B1A69072313407B607B68002B15D1E8
:100BD0001F4B204A1A62204BFB6005E0FB685A1E3F
:100BE000FA60002B00DC04E0194BDA6804231340A0
:100BF000F4D03B1C0B3301221A7017E07B68072BE3
:100C000014D1134B154A1A62154BFB6005E0FB68C3
:100C10005A1EFA60002B00DC04E00D4BDA68042356
:100C20001340F4D03B1C0B3301221A703B1C0B33D6
:100C30001B785BB2002B06D0FFF790FF044B02221B
:100C40001A61FFF7A9FFBD4604B080BD080000206F
:100C50000002005017420000E02E00003956080044
:100C600066560000002934D00123002210B48842C7
:100C70002CD301242407A14204D2814202D20901CB
:100C80001B01F8E7E400A14204D2814202D24900EC
:100C90005B00F8E7884201D3401A1A434C08A0428F
:100CA00002D3001B5C0822438C08A04202D3001B25
:100CB0009C082243CC08A04202D3001BDC0822433C
:100CC000002803D01B0901D00909E3E7101C10BC60
:100CD0007047002801D00020C04307B4024802A199
:100CE0004018029003BDC046190000000029F0D052
:100CF00003B5FFF7B9FF0EBC4243891A1847C04637
:100D00007047C046001BB70010270000000000001D
:100D10000080510100FF0100010000FFFF00000101
:100D20000001FF0072706D00647574793A00000074
:040D3000250000009A
:0C0D340080F0FA023200000080F0FA02A9
:00000001FF
