:020000040800F2
:100000000008002089010008E5010008E50100085A
:10001000E5010008E5010008E50100080000000016
:10002000000000000000000000000000E5010008E2
:10003000E501000800000000E5010008E5010008F6
:10004000E5010008E5010008E5010008E5010008F8
:10005000E5010008E5010008E5010008E5010008E8
:10006000E5010008E5010008E5010008E5010008D8
:10007000E5010008E5010008E5010008E5010008C8
:10008000E5010008E5010008E5010008E5010008B8
:10009000E5010008E5010008E5010008E5010008A8
:1000A000E5010008E5010008E5010008E501000898
:1000B000E5010008E5010008E5010008E501000888
:1000C000E5010008E5010008E5010008E501000878
:1000D000E5010008E5010008E5010008E501000868
:1000E000E5010008E5010008E5010008E501000858
:1000F000E5010008E5010008E5010008E501000848
:10010000E5010008E5010008E5010008E501000837
:10011000E5010008E5010008E5010008E501000827
:10012000E5010008E5010008E5010008E501000817
:10013000E5010008E5010008E5010008E501000807
:10014000E5010008E5010008E5010008E5010008F7
:10015000E5010008E5010008E5010008E5010008E7
:10016000E5010008E5010008E5010008E5010008D7
:10017000E5010008E5010008E5010008E5010008C7
:10018000E5010008E501000880B582B000AF104B22
:100190007B60104B3B6007E03B681A1D3A607A6851
:1001A000111D796012681A603A680B4B9A42F3D3BA
:1001B0000A480B494FF000028842B8BF40F8042BB0
:1001C000FFF6FAAF00F012F80837BD4680BD00BF59
:1001D000BC040008000000200000002000000020F7
:1001E0000000002080B400AFFEE700BF80B584B0FF
:1001F00000AF012000F030F800BF00F03FF80346E8
:10020000002BFAD04020012100F060F84FF4C043E9
:10021000BB600023BB7301233B730023FB730323E9
:100220007B7307F108030A48194600F0A7F808484D
:100230004FF4005100F030F900237B6002E07B684E
:1002400001337B607A68034B9A42F8DDEFE700BF29
:10025000001802401FA1070080B483B000AF03461E
:10026000FB71054B00221A70034BFA791A700C3798
:10027000BD465DF8047B70470238024080B582B00D
:1002800000AF00233B600023FB710023BB713120D2
:1002900000F03AF80346BB713B6801333B603B68B2
:1002A000B3F5A06F02D0BB79002BF0D0312000F065
:1002B0002BF80346002B02D00123FB7101E0002341
:1002C000FB71FB7918460837BD4680BD80B483B00A
:1002D00000AF78600B46FB70FB78002B06D0094B13
:1002E000084A116B7A680A431A6306E0054B054A0F
:1002F000116B7A68D2430A401A630C37BD465DF829
:10030000047B70470038024080B487B000AF0346DA
:10031000FB710023FB6000237B610023FB74FB79EE
:100320005B09DBB2FB60FB68012B03D1124B1B683E
:100330007B6109E0FB68022B03D10F4B1B6F7B61D4
:1003400002E00D4B5B6F7B61FB7903F01F03FB60E9
:10035000FB687A6922FA03F303F00103002B02D051
:100360000123FB7401E00023FB74FB7C18461C375F
:10037000BD465DF8047B70470038024080B487B00A
:1003800000AF7860396000237B6100233B6100236C
:10039000FB6000237B6176E07B69012202FA03F3B4
:1003A0003B613B681A683B691340FB60FA683B6934
:1003B0009A4265D17B681A687B695B00032101FA68
:1003C00003F3DB431A407B681A607B681A683B685A
:1003D0001B7919467B695B0001FA03F31A437B68BA
:1003E0001A603B681B79012B03D03B681B79022BF9
:1003F0002ED17B689A687B695B00032101FA03F3C5
:10040000DB431A407B689A607B689A683B685B793B
:1004100019467B695B0001FA03F31A437B689A6013
:100420007B685A687B699BB2012101FA03F3DB43C5
:100430001A407B685A607B685A683B689B7919460A
:100440007B699BB201FA03F39BB21A437B685A6043
:100450007B68DA687B699BB25B00032101FA03F3D6
:10046000DB431A407B68DA607B68DA683B68DB79DB
:1004700019467B695B0001FA03F31A437B68DA6073
:100480007B6901337B617B690F2B85D91C37BD46A6
:100490005DF8047B704700BF80B483B000AF786024
:1004A0000B467B807B685A697B885A407B685A611F
:0C04B0000C37BD465DF8047B704700BFB0
:0400000508000000EF
:00000001FF
