:1000000068040020C1000000250100002501000057
:1000100000000000000000000000000000000000E0
:1000200000000000000000000000000025010000AA
:100030000000000000000000250100002501000074
:100040002501000025010000250100002501000018
:100050004905000025010000E90400002501000019
:1000600025010000250100005904000025010000C1
:1000700025010000250100002501000025010000E8
:1000800025010000250100002501000025010000D8
:1000900025010000250100002501000025010000C8
:1000A00025010000250100002501000025010000B8
:1000B00025010000250100002501000025010000A8
:1000C00080B582B000AF124B7B60124B3B6007E003
:1000D0003B681A1D3A607A68111D796012681A60CF
:1000E0003A680D4B9A42F3D30C4B3B6004E03B68FB
:1000F0001A1D3A6000221A603A68094B9A42F6D3F8
:1001000000F0ACFD00F0B0FABD4602B080BDC046C4
:10011000E40D0000000000200C0000200C00002076
:100120006800002080B500AFFEE7C04680B582B011
:1001300000AF021CFB1D1A70064BFA1D1278111C31
:100140001F220A400121081C9040021C1A60BD4673
:1001500002B080BD00E100E080B584B000AF7860FF
:10016000094BFB6005E0FB685A1EFA60002B00DCBF
:1001700006E0064BDB687A681A407B689A42F2D147
:10018000BD4604B080BDC04690D0030000020050C0
:1001900080B582B000AF78600A4B0B4A126879686C
:1001A0004A435A60074B00229A60064B05221A60A8
:1001B000C046044B1A6880235B021340F9D0BD4649
:1001C00002B080BD10E000E00400002080B500AF68
:1001D000A023DA0580235B005921D150A023DA0542
:1001E00080235B001621D150A023DA0580235B0019
:1001F0008821D150A023DA0580235B00D358002B3F
:10020000E6D0BD4680BDC04680B500AFA023DA056C
:1002100080235B000021D150BD4680BD80B584B0F5
:1002200000AFF860B9607A60FB689A697B68190E64
:10023000BB68081C9840031C1A43FB689A61FB6862
:10024000DA697B681B02190ABB68081C9840031C0A
:100250001A43FB68DA61BD4604B080BD80B500AFCB
:10026000FFF7B4FF4F4B4F4A126804210A431A604C
:100270001020FFF771FF4B4B07221A61494B494A87
:10028000126A802149020A431A62464B454A1268A3
:1002900005210A431A60434B434A1A621520FFF7AF
:1002A0005BFF404B1A221A613E4B404A9A603D4B1D
:1002B0003F4A5A61A023DB0580225203DA60A02363
:1002C000DB050022DA603B4B3B4A1A603B4B3A4A63
:1002D0001A603B4B32221A603A4B3A4A12680321A9
:1002E0008A4301210A431A60364B364A12680C21B0
:1002F0008A4304210A431A60324B324A1268302181
:100300008A4310210A431A602E4B2E4A1268C021DC
:100310008A4340210A431A602A4B2A4A11682A4A12
:100320000A40802149000A431A60264B254A116879
:10033000264A0A408021C9000A431A60244B244AF5
:10034000126830218A431A60214B214A1268C02169
:100350008A431A601E4A80235B02101C02211A1C69
:10036000FFF75CFF1A4A80235B02101C03211A1C52
:10037000FFF754FF0420FFF7D9FE0A20FFF7D6FE4F
:100380000620FFF7D3FEA023DB05A022D2009A634C
:10039000A023DB05802252001A64FFF735FFBD461B
:1003A00080BDC0460002005017420000100030001F
:1003B000000002A00800002080F0FA0200000020E7
:1003C00004000020C0400050FFFCFFFFFFF3FFFFD0
:1003D0000040005080B582B000AF7860194B1A68B9
:1003E0007B68D218174B1A60174B1A68174B92008C
:1003F0007968D150144B1B680B2B03D0124B1B6830
:100400005A1C00E00022104B1A60114B1B78002B85
:100410000DD00C4B1A680C4B19680C4B8900CB584B
:10042000D21A084B1A600B4B01221A7006E0064BD9
:100430001B68002B02D1064B01221A70BD4602B088
:1004400080BDC046540000204C0000201C0000204D
:10045000500000206000002080B582B000AF1D4B2E
:100460009A69012313401DD01A4B01229A611A4B3D
:100470001A681A4B1A60184B00221A60154B1B6938
:100480007B60174B1B687A68D21A144B1B68D21812
:10049000124B1A60124B7A681A60104B1B68181CBA
:1004A000FFF798FF0B4B9A68012313400ED0094BBE
:1004B00001229A60084B1A680A4B9A4206D8064BEA
:1004C0001B68802149045A18034B1A60BD4602B0CC
:1004D00080BDC0460000114014000020180000201C
:1004E00010000020FEFFFFFE80B582B000AF114B70
:1004F00008225A64104B1B78002B09D00F4B1B6845
:100500007B600D4B00221A707B68181C00F086F986
:100510000B4B1B78002B09D00A4B1B683B60084B28
:1005200000221A703B68181C00F088F9BD4602B022
:1005300080BDC0460000044060000020180000207C
:10054000580000205C00002080B500AF6420FFF759
:100550001FFE194B1B68DBB2DB18DAB2174B1B68A6
:10056000DBB21343DAB2164B1B789B00DBB21343AA
:10057000DAB2134B1A70134B04221A62114B082281
:100580001A620F4B1B781A1C0F2313400E4AD35CC0
:100590005BB25A1C02D0012B07D00BE00B4B1B683F
:1005A00001225242101C984704E0084B1B680120AE
:1005B0009847C046BD4680BD0C42005008420050DE
:1005C0000C00002000400050C40D0000640000201A
:1005D00080B582B000AF78600B4B7A681A600B4B25
:1005E0001B68DBB2DB18DAB2094B1B68DBB21343C2
:1005F000DAB2084B1B789B00DBB21343DAB2054B2F
:100600001A70BD4602B080BD640000200C4200504C
:10061000084200500C00002080B584B000AF021CDE
:10062000FB1D1A700D4B1B68FB60FB1D1B785BB23A
:10063000FA68D318FB60FB68002B0BDBFB68FA2B16
:1006400008DC074BFA681A61FA68044B1A60054B1C
:1006500001221A70BD4604B080BDC0465C00002077
:10066000000004405800002080B500AFFFF7F6FD01
:1006700000F0B0F84B4B181CFFF7AAFF4A4B4A4A50
:10068000926808210A439A60474B474A1268FF2143
:100690008A4301210A431A60434B434A52680721A7
:1006A0008A4304210A435A603F4B7D221A613F4B23
:1006B0007D221A603E4B01221A703B4BFA22DA600F
:1006C000394B394AD26F01210A43DA67364B364A31
:1006D000926801210A439A60334B334A9268802121
:1006E00009050A439A60304B2F4A1268FF2109021C
:1006F0000A431A602C4B2C4A51682E4A0A40C021EA
:1007000089010A435A60284B2B4A5A63264B2B4ACD
:100710001A63254B244A126C08210A431A64224B9F
:10072000214A9268802149040A439A601E4B1E4A5E
:100730009268802109030A439A601B4B1A4A116888
:100740001F4A0A40902109010A431A60164B164AB3
:1007500051681C4A0A408021C9000A435A60124B62
:10076000FA2252009A62104BFA2292005A620E4B01
:100770000D4AD26F04210A43DA670B4B0A4A92688A
:10078000802149020A439A600F4B8022D2041A60EA
:100790000D4B0E4A5A600C4B0D4A1A600A4B2A2226
:1007A0005A61FEE719060000000004405C000020CA
:1007B00058000020FF8FFFFFE2040000C409000082
:1007C000FF00FFFFFFF8FFFF00001140FFFFFF00E9
:1007D0000000017880B500AF00F01CF90B2000216B
:1007E00000F0EEF90A4B181C00F036F90020012148
:1007F00000F0E6F9074B181C00F02EF90A20012141
:1008000000F0DEF9044B181C00F026F9BD4680BD4F
:10081000D40D0000D80D0000E00D000080B584B0BC
:1008200002AF78607B6800220092181C0921002228
:10083000052300F02DF9BD4602B080BD80B586B01D
:1008400002AF78607B689B00FB60FB68012200922E
:10085000181C09210122052300F01AF9BD4604B035
:1008600080BDC04680B582B000AF78600A4B0B4AAD
:10087000126879684A435A60074B00229A60064B17
:1008800005221A60C046044B1A6880235B0213409D
:10089000F9D0BD4602B080BD10E000E004000020A9
:1008A00080B500AF094B00221A606420FFF7DAFF21
:1008B000064B01221A606420FFF7D4FF034B00228D
:1008C0001A606420FFF7CEFFBD4680BD7042005025
:1008D00080B500AF094B00221A60094B00221A6054
:1008E000084B00221A60084B00221A60074B0022B6
:1008F0001A60074B00221A60BD4680BD744200504A
:10090000704200506C4200506842005064420050F7
:100910006042005080B582B000AF0A1CFB1D011C74
:100920001970BB1D1A70FFF7D3FF2A4BBA1D12783E
:10093000D209D2B2111C01220A401A60264BBA1DFC
:1009400012789209D2B2111C01220A401A60234B7C
:10095000BA1D12785209D2B2111C01220A401A6043
:100960001F4BBA1D12781209D2B2111C01220A4083
:100970001A601C4BFA1D12781A60FFF791FF154B95
:10098000BA1D1278D208D2B2111C01220A401A6094
:10099000114BBA1D12789208D2B2111C01220A40E2
:1009A0001A600E4BBA1D12785208D2B2111C0122E5
:1009B0000A401A600A4BBA1D117801220A401A60D7
:1009C000084BFA1D12781A60FFF76AFFBD4602B0A5
:1009D00080BDC0466C4200506842005064420050E6
:1009E000604200507442005080B500AF00200121E9
:1009F000FFF790FFFA23DB00181CFFF733FF0020FE
:100A00000221FFF787FFFA23DB00181CFFF72AFFFC
:100A1000BD4680BD80B500AFFFF75AFF0C4B181CD8
:100A2000FFF720FF0B4B01221A60FFF739FF002070
:100A30002821FFF76FFF00200C21FFF76BFF00203C
:100A40000621FFF767FFFFF7CFFFBD4680BDC04619
:100A5000204E00006442005080B584B000AF786042
:100A60000023FB600AE0FB687A68D3181B7801203A
:100A7000191CFFF74FFFFB680133FB60FB687A68C6
:100A8000D3181B78002BEED1BD4604B080BDC04604
:100A900080B584B000AF7860081C111C1A1CFB1CC8
:100AA0001870BB1C19707B1C1A703B1C0F33FA1C8E
:100AB00012781A703B1C0F331A78BB1C1B78101C61
:100AC000191C00F07DF800200421FFF723FF7B684C
:100AD000002B04D101203021FFF71CFF68E03DE02E
:100AE000FB1C1A783B1C0F331B78D21A3B1C1833A3
:100AF0001B789A420FD13B1C18331B78002B0AD06D
:100B000001202E21FFF706FF3B1C0F331A783B1CF8
:100B10000F33013A1A707B68002B14D07B68181CC5
:100B20000A2100F03BF90B1CDBB23033DBB20120B1
:100B3000191CFFF7EFFE7B68181C0A2100F0EAF889
:100B4000031C7B6003E001203021FFF7E3FE3B1C28
:100B50000F331A783B1C0F33013A1A707B68002B55
:100B6000BED13B1C18331B78002B0BD03B1C0F3322
:100B70001A783B1C18331B78D3185A1CFB1C1B78A3
:100B80009A42ADDC0AE001202021FFF7C3FE3B1CA6
:100B90000F331A783B1C0F33013A1A70FB1C1A787A
:100BA0003B1C0F331B78D21A7B1C1B789A42EADB62
:100BB00000200621FFF7AEFEBD4604B080BDC04652
:100BC00080B584B000AF0A1CFB1D011C1970BB1D51
:100BD0001A703B1C0F3300221A70BB1D1B789B013F
:100BE000D9B23B1C0F33FA1D12788A181A703B1CBD
:100BF0000F331B78802252421343DBB20020191CB2
:100C0000FFF788FEBD4604B080BDC04680B500AF8A
:100C1000A023DA0580235B005921D150A023DA05F7
:100C200080235B001621D150A023DA0580235B00CE
:100C30008821D150A023DA0580235B00D358002BF4
:100C4000E6D0BD4680BDC04680B500AFA023DA0522
:100C500080235B000021D150BD4680BD80B584B0AB
:100C600000AF264B00221A603B1C0B3300221A7087
:100C7000234B1A69072313407B607B68002B15D137
:100C80001F4B204A1A62204BFB6005E0FB685A1E8E
:100C9000FA60002B00DC04E0194BDA6804231340EF
:100CA000F4D03B1C0B3301221A7017E07B68072B32
:100CB00014D1134B154A1A62154BFB6005E0FB6813
:100CC0005A1EFA60002B00DC04E00D4BDA680423A6
:100CD0001340F4D03B1C0B3301221A703B1C0B3326
:100CE0001B785BB2002B06D0FFF790FF044B02226B
:100CF0001A61FFF7A9FFBD4604B080BD08000020BF
:100D00000002005017420000E02E00003956080093
:100D100066560000002934D00123002210B4884216
:100D20002CD301242407A14204D2814202D209011A
:100D30001B01F8E7E400A14204D2814202D249003B
:100D40005B00F8E7884201D3401A1A434C08A042DE
:100D500002D3001B5C0822438C08A04202D3001B74
:100D60009C082243CC08A04202D3001BDC0822438B
:100D7000002803D01B0901D00909E3E7101C10BCAF
:100D80007047002801D00020C04307B4024802A1E8
:100D90004018029003BDC046190000000029F0D0A1
:100DA00003B5FFF7B9FF0EBC4243891A1847C04686
:100DB0007047C046001BB70010270000000000006D
:100DC0000080510100FF0100010000FFFF00000151
:100DD0000001FF0072706D00647574793A000000C4
:040DE00025000000EA
:0C0DE40080F0FA023200000080F0FA02F9
:00000001FF
