:1000000048040020C1000000250100002501000077
:1000100000000000000000000000000000000000E0
:1000200000000000000000000000000025010000AA
:100030000000000000000000250100002501000074
:100040002501000025010000250100002501000018
:1000500025010000250100001D04000065040000CA
:1000600025010000250100002501000025010000F8
:1000700025010000250100002501000025010000E8
:1000800025010000250100002501000025010000D8
:1000900025010000250100002501000025010000C8
:1000A00025010000250100002501000025010000B8
:1000B00025010000250100002501000025010000A8
:1000C00080B582B000AF124B7B60124B3B6007E003
:1000D0003B681A1D3A607A68111D796012681A60CF
:1000E0003A680D4B9A42F3D30C4B3B6004E03B68FB
:1000F0001A1D3A6000221A603A68094B9A42F6D3F8
:1001000000F06CFB00F03AFBBD4602B080BDC0467B
:1001100094080000000000200C0000200C000020CB
:100120004800002080B500AFFEE7C04680B582B031
:1001300000AF021CFB1D1A70064BFA1D1278111C31
:100140001F220A40012191400A1C1A60BD4602B0DC
:1001500080BDC04600E100E080B584B000AF7860AB
:100160007B681B78032B01D8A24B00E0A24BBB603D
:100170000F23FB187A6812781A700F23FB181B786C
:10018000042B06D90F23FB180F22BA181278043A51
:100190001A707B681B78002B03D07B681B78012BBF
:1001A00014D1964B1B78002B10D1954B944A926832
:1001B000802149030A439A60914B914A52698021F8
:1001C00089050A435A618D4B01221A707B681B789E
:1001D000022B03D07B681B78032B14D1894B1B782F
:1001E000002B10D1864B864A9268802189030A43EE
:1001F0009A60834B824A5269802109060A435A61F8
:10020000804B01221A707B681B78042B03D07B681B
:100210001B78052B13D17C4B1B78002B0FD1784B0F
:10022000774A92688021C9030A439A60744B744AE2
:10023000D26920210A43DA61734B01221A707B686C
:100240001B78062B03D07B681B78072B13D16F4BD1
:100250001B78002B0FD16A4B694A926880210904F0
:100260000A439A60664B664AD26980210A43DA6182
:10027000664B01221A707B681B78032B0AD8644BEB
:100280001B78002B10D10620FFF750FF604B012296
:100290001A7009E05F4B1B78002B05D10720FFF790
:1002A00045FF5C4B01221A70BB689A680F23FB184C
:1002B0001B78DB00082199400B1C1A43BB689A602D
:1002C000BB681B680F22BA1812785208D2B2D2004B
:1002D000FF2191400A1CD24313407A685278111CC6
:1002E0000F22BA1812785208D2B2D20091400A1CDA
:1002F0001A43BB681A60BB685B680F22BA18127891
:100300009200072191400A1CD24313407A689278E8
:10031000111C0F22BA181278920091400A1C1A433D
:10032000BB685A60BB681033191C0F23FB181A787E
:10033000131C5B009B189B00CB181A1C7B685B6826
:100340001360BB680C33191C0F23FB181A78131C9D
:100350005B009B189B00CB181A1C7B689B68136082
:100360007B681B7B012B02D0022B0FD01CE0BB68EB
:10037000DA6F7B681B7B0833012199400B1C191C29
:1003800001238B401A43BB68DA670DE0194B194A09
:10039000D16F7A68127B101C01228240101C01224E
:1003A00082400A43DA67C0467B681B69002B12D083
:1003B000BB681A6C0F23FB181B78012199400B1C9A
:1003C0001A43BB681A647B681B781A1C7B6819691E
:1003D000114B9200D150BB689A680F23FB181B7811
:1003E000DB00012199400B1C1A43BB689A60BD4693
:1003F00004B080BD00000440000014400E00002046
:10040000000200500F00002010000020110000200A
:100410000C0000200D0000201400002080B582B0E8
:1004200000AF00237B6013E00C4B01217A68914000
:100430000A1C5A640A4B7A689200D358002B04D0E5
:10044000074B7A689200D35898477B6801337B60EA
:100450007B68032BE8DDBD4602B080BD0000044090
:100460001400002080B582B000AF04237B6014E04C
:100470000D4B7A68043A012191400A1C5A640B4BD7
:100480007A689200D358002B04D0084B7A68920007
:10049000D35898477B6801337B607B68072BE7DD87
:1004A000BD4602B080BDC0460000144014000020CC
:1004B000B0B582B000AF021C3960FB1D1A70FB1D85
:1004C0001B787F2B2FD92D4CFB1D1B781A1C0F235B
:1004D0001340083B9908294AFB1D1B78181C0F2361
:1004E0000340083B9B0806339B00D3185B68FA1D4A
:1004F0001278101C03220240D200101CFF228240FE
:10050000D2431A403B689B01FF200340F81D00784E
:10051000051C03202840C00083401A438B1D9B000C
:10052000E3185A6026E0164CFB1D1B785BB29B0853
:100530001349FA1D127852B29208C03292005258F2
:10054000F91D0978081C03210140C900081CFF217E
:100550008140C94311403A689201FF200240F81DD2
:100560000078051C03202840C00082400A43C033A5
:100570009B001A51BD4602B0B0BDC04600ED00E080
:1005800000E100E080B584B000AF7860094BFB600B
:1005900005E0FB685A1EFA60002B00DC06E0064B03
:1005A000DB687A681A407B689A42F2D1BD4604B093
:1005B00080BDC04690D003000002005080B500AF5F
:1005C000A023DA0580235B005921D150A023DA054E
:1005D00080235B001621D150A023DA0580235B0025
:1005E0008821D150A023DA0580235B00D358002B4B
:1005F000E6D0BD4680BDC04680B500AFA023DA0579
:1006000080235B000021D150BD4680BD80B500AF86
:10061000FFF7D4FF3F4B3F4A126804210A431A6098
:100620001020FFF7AFFF3B4B07221A61394B394AC5
:10063000126A802149020A431A62364B354A12680F
:1006400005210A431A60334B334A1A621520FFF71B
:1006500099FF304B1A221A61304B314A1A60314BE4
:100660002F4A1A60304B32221A60304B2F4A1268E0
:1006700003218A4301210A431A602C4B2B4A12683A
:100680000C218A4304210A431A60284B274A126826
:1006900030218A4310210A431A60244B234A1268EE
:1006A000C0218A4340210A431A60204B1F4A126826
:1006B0001F490A40802149000A431A601B4B1B4A0C
:1006C00012681C490A408021C9000A431A601A4B6B
:1006D000194A126830218A431A60174B164A126869
:1006E000C0218A431A600A200021FFF7E1FE01239E
:1006F0005B42181C0121FFF7DBFE04200221FFF7FB
:10070000D7FE06200321FFF7D3FEFFF775FFBD4696
:1007100080BDC046000200501742000008000020C3
:1007200080F0FA020000002004000020C0400050C9
:10073000FFFCFFFFFFF3FFFF0040005080B500AF5C
:100740000C4B02221A700B4B09225A70094B0422DF
:100750009A70084BF422FF325A60064B064A9A60A0
:10076000044B01221A73034B181CFFF7F5FCBD461E
:1007700080BDC04634000020E703000080B500AF14
:10078000FFF744FFFFF7DAFFFEE7C04680B500AF92
:10079000A023DA0580235B005921D150A023DA057C
:1007A00080235B001621D150A023DA0580235B0053
:1007B0008821D150A023DA0580235B00D358002B79
:1007C000E6D0BD4680BDC04680B500AFA023DA05A7
:1007D00080235B000021D150BD4680BD80B584B030
:1007E00000AF264B00221A600B23FB1800221A7060
:1007F000234B1B69072213407B607B68002B15D1BC
:100800001F4B204A1A62204BFB6005E0FB685A1E12
:10081000FA60002B00DC04E0194BDB680422134073
:10082000F4D00B23FB1801221A7017E07B68072B0A
:1008300014D1134B154A1A62154BFB6005E0FB6897
:100840005A1EFA60002B00DC04E00D4BDB6804222A
:100850001340F4D00B23FB1801221A700B23FB1852
:100860001B785BB2002B06D0FFF790FF044B0222EF
:100870001A61FFF7A9FFBD4604B080BD0800002043
:100880000002005017420000E02E00003956080018
:0408900066560000A8
:0C08940080F0FA023200000080F0FA024E
:00000001FF
